:020000040800F2
:10000000E0050024AD020008F53E0008432000088A
:10001000F13E0008ED0800088942000800000000D9
:100020000000000000000000000000005D3F00082C
:100030007D09000800000000F73E00085F3F00084F
:10004000C7020008C7020008C7020008C70200086C
:10005000C7020008C7020008C7020008C70200085C
:10006000C7020008C7020008C7020008C70200084C
:10007000C7020008C7020008C7020008C70200083C
:10008000C7020008C7020008C7020008C70200082C
:10009000C7020008C7020008C7020008C70200081C
:1000A000C7020008C7020008C7020008C70200080C
:1000B000C7020008C7020008C7020008C7020008FC
:1000C000C7020008C7020008C7020008C7020008EC
:1000D000C702000839420008C7020008C70200082A
:1000E000C7020008C702000800000000C70200089D
:1000F000C7020008C7020008C7020008C7020008BC
:10010000C7020008C7020008C7020008C7020008AB
:10011000C7020008C7020008C7020008C70200089B
:10012000C7020008C7020008C7020008C70200088B
:10013000C7020008C7020008C7020008C70200087B
:1001400000000000000000000000000000000000AF
:10015000C7020008C7020008C7020008C70200085B
:10016000C7020008C7020008C7020008C70200084B
:10017000C7020008C7020008C7020008C70200083B
:10018000C7020008C7020008C7020008C70200082B
:10019000C7020008C7020008C7020008C70200081B
:1001A000C7020008C7020008C7020008C70200080B
:1001B000C7020008C7020008C7020008C7020008FB
:1001C000C7020008C7020008C7020008C7020008EB
:1001D000C7020008C7020008C7020008C7020008DB
:1001E000C7020008C7020008C7020008C7020008CB
:1001F000C7020008C7020008C7020008C7020008BB
:10020000C7020008C7020008C7020008C7020008AA
:10021000C7020008C7020008C7020008C70200089A
:10022000C7020008C7020008C7020008000000005B
:10023000C7020008C702000800000000C70200084B
:10024000C7020008C7020008C7020008C70200086A
:10025000C7020008C7020008C7020008C70200085A
:10026000C7020008C7020008C7020008C70200084A
:10027000C7020008C7020008C7020008000000000B
:10028000C702000800000000C702000800000000CC
:1002900000000000C7020008DFF80CD000F048FAA8
:1002A00000480047294C0008E00500240648804724
:1002B00006480047FEE7FEE7FEE7FEE7FEE7FEE74B
:1002C000FEE7FEE7FEE7FEE741400008990200086E
:1002D0002DE9F05F0546002092469B46884606467B
:1002E000814640241BE0284641464746224600F00E
:1002F00057F853465A46C01A914110D31146184632
:10030000224600F03EF82D1A67EB01084F462246C0
:100310000120002100F035F817EB00094E41201EA6
:10032000A4F10104DFDC484631462A464346BDE8D5
:10033000F09FD2B201E000F8012B491EFBD27047BA
:100340000022F6E710B513460A4604461946FFF7A1
:10035000F0FF204610BD30B50B460146002020229C
:10036000012409E021FA02F59D4205D303FA02F5C2
:10037000491B04FA02F52844151EA2F10102F1DC22
:1003800030BD202A04DB203A00FA02F10020704739
:100390009140C2F1200320FA03F3194390407047C3
:1003A000202A04DB203A21FA02F00021704721FACA
:1003B00002F3D040C2F12002914008431946704731
:1003C0002DE9FE4F804681EA0300C00F0C460090E5
:1003D00021F0004123F00045B8EB0200A94105D20D
:1003E0004046214690461C460B46024623F00040FC
:1003F000104347D0270DC7F30A00C3F30A510290F8
:10040000401A019040286BDAC3F3130040F4801BBC
:100410000098924620B10023D2EB030A63EB0B0B4A
:1004200001985946C0F140025046FFF7AAFF064620
:100430000D4650465946019A00F08CF910EB080021
:100440006141002487EA115284EAE7731A4340D0DD
:10045000009A62B3019A012A4FEA075215DC001B89
:1004600061EB02014FF0004202EA0752CDE900427F
:10047000001C41F5801132462B4600F08CF903B088
:10048000BDE8F08F40462146F9E7001B61EB020111
:10049000001C41F5801300185B412018A2F50017DD
:1004A00047EB030140EAD570B6196D4111E06D08C4
:1004B0004FEA360645EAC0754FEA0752001B61EB6A
:1004C0000201001C41F5801149084FEA3000001973
:1004D000514132462B4603B0BDE8F04F00F04CB915
:1004E0000098012240000023D0EB020263EBE0738E
:1004F000009821464FEAE074B8EB000061EB04017C
:10050000E9E783F000435BE781F0004158E72DE91C
:10051000FE4F81EA030404F0004421F000410094FE
:100520004FF0000B23F0004350EA01045ED052EA82
:1005300003045BD0C3F30A54C1F30A552C44A4F25C
:10054000F3340194A0FB0254C1F3130141F4801170
:10055000C3F3130343F4801301FB024400FB034E77
:10056000840A970A44EA815447EA8357A4FB076840
:1005700002958D0A05FB07854FEA932C04FB0C546A
:100580002705029D4FEA065847EA1637B5EB0805DE
:100590006EEB070C870E920E47EA811742EA831230
:1005A000A7FB0201B6EB0B0164EB00042B0D43EA41
:1005B0000C335E1844EB1C50DA465146E7FB02014F
:1005C000C5F313044FEA0B3343EA14534FEA0432E2
:1005D000019C43EA0603A4F10C040294009CCDE9BB
:1005E00000B400F0D8F803B0BDE8F08F0020014659
:1005F000F9E72DE9F04D81EA030404F0004B21F006
:10060000004514464FF0000A23F0004150EA05026D
:1006100020D054EA01021DD0C5F30A570246C5F3A3
:100620001303C1F31300C1F30A5640F4801543F4D9
:100630008013A7EB0608101BD64608F2FD3873EBB3
:10064000050002D308F1010801E092185B41B8F1FE
:10065000000F03DA00200146BDE8F08D00204FF4C2
:100660008011064684460EE0171B73EB050705D381
:10067000121B63EB050306434CEA010C49084FEAE1
:10068000300092185B4150EA0107EDD152EA0300B5
:1006900012D082EA040083EA0501084305D0101B4A
:1006A000AB4106D20122002306E000224FF00043B6
:1006B00002E06FF0010253101AEB06004CEB0851F8
:1006C00010EB0A0041EB0B01BDE8F04D00F054B80F
:1006D000C1F30A52C1F3130140F2FF3341F4801118
:1006E0009A4202DA00200146704740F233439A42B0
:1006F000A2F2334202DC5242FFF752BEFFF741BE84
:1007000030B5041E71F1000404DB4FF00044404298
:1007100064EB0101141E73F1000405DB1C464FF06D
:100720000043524263EB0403994208BF904230BD3C
:10073000064C074D06E0E06840F0010394E807002E
:1007400098471034AC42F6D3FFF7AAFD3099000861
:1007500050990008202A06DBCB17203A41FA02F014
:1007600043EAE07306E041FA02F3D040C2F120020E
:10077000914008431946704710B5141E73F10004E8
:1007800008DA401C41F1000192185B411A4301D183
:1007900020F0010010BD2DE9F04D92469B4611B1AD
:1007A000B1FA81F202E0B0FA80F220329046FFF70F
:1007B000E8FD04460F4640EA0A0041EA0B015346B1
:1007C0005A46084313D0114653EA010019D0C8F124
:1007D00040025046FFF7E4FD05460E465046594696
:1007E0004246FFF7CEFD084305D0012004E0204635
:1007F0003946BDE8F08D0020054346EAE0762C43FB
:1008000037430A986305E40AA0EB08000022FD0ABA
:1008100044EA47540A3002D500200146E9E70105C1
:1008200010196941DDE9084500196941BDE8F04D3D
:10083000A2E7000010B586B0044600BF6CB900BF47
:100840002748006840F01000254908600846006805
:1008500000F01000009000BF2FE0012C0DD100BF70
:100860001F48006840F010001D49086008460068F5
:1008700000F01000009000BF1FE0012C0DD100BF60
:100880001748006840F010001549086008460068E5
:1008900000F01000009000BF0FE0022C0DD100BF4F
:1008A0000F48006840F010000D49086008460068D5
:1008B00000F01000009000BF00BF00BF094830F8F2
:1008C0001400019000200290012003900320049066
:1008D000054951F8240001A900F062F906B010BDE5
:1008E000E0440258B85100080C00002400BFFEE7A5
:1008F00000B587B000BF1248006840F00200104900
:1009000008600846006800F00200019000BF00BFC8
:100910004FF4304002900120039004900320059092
:1009200002A9084800F03CF9074800F021F8074800
:1009300000F01EF8064800F01BF807B000BD0000EC
:10094000E044025800040258030020000300300075
:100950000100380010B5044644F4C01000F008F857
:1009600010BD10B5044644F4C81000F001F810BDE5
:1009700010B50446204603F0BFFA10BD70470000D2
:1009800070B504461D460023B5F5804F13D154F8C9
:1009900022300C480340D1E9000640EA06108E6878
:1009A00040EA06208E8940EA06408E6930430343C0
:1009B00044F8223003E06FF0704044F82200002039
:1009C00070BD00000000F0CF10B50246002308689B
:1009D00052F820301B480340D1E901042043CC6881
:1009E00020430C6920434C6920438C692043CC6927
:1009F00020430C6A20434C6A20438C6A2043CC6A13
:100A000020430C6B20438C6B20434C6B20430343EF
:100A10008868082801D143F04003086842F8203074
:100A2000086BB0F5801F05D1086818B110680C6B11
:100A300020431060086818B110684C6B20431060A8
:100A4000002010BD8004C0FF30B5034614460022CC
:100A5000601C53F8202002F04042D1E9000540EA32
:100A600005108D6840EA05208D8940EA0545088A11
:100A7000401E45EA0055087D801E45EA00608D69EC
:100A800028430243601C43F82020186800F48010BB
:100A900038B1586820F47002088A401E42EA0052B9
:100AA0005A60002030BD000010B504460CB901208A
:100AB00010BD94F83500022803D080206065012025
:100AC000F6E734492068884205D3334920688842D4
:100AD00001D8012000E00020C0B1042084F83500D6
:100AE0002C49206888420AD32B492068884206D8BE
:100AF0002068006820F001002168086048E0206854
:100B0000006820F001002168086041E0206800686A
:100B100020F00E00216808601E49206888420AD330
:100B20001D492068884206D82068006820F001002E
:100B30002168086005E02068006820F00100216855
:100B40000860206E006820F48070216E086094F8C0
:100B50005C100120884011490860D4E919104860F0
:100B6000E06E40B1E06E006820F48070E16E0860D5
:100B7000D4E91C10486000BF002084F8340000BF96
:100B8000012084F83500206D10B12046216D884782
:100B900000208DE710000240B804024004540258BF
:100BA000F8B502460B460021002600240020824DA5
:100BB00000BFFCE0012707FA01F61F6807EA0604F8
:100BC000B4427CD15F68022F02D05F68122F1AD125
:100BD0004FEAD10C02F1200757F82C004F074FEADB
:100BE000D76C0F2707FA0CF7B8434FEA417C4FEA5E
:100BF000DC6C1F6907FA0CF738434FEAD10C02F19D
:100C0000200747F82C0010684FEA410C032707FA29
:100C10000CF7B8431F7907F003074FEA410C07FAB6
:100C20000CF7384310605F68012F08D05F68022F0F
:100C300005D05F68112F02D05F68122F17D190681E
:100C40004FEA410C032707FA0CF7B8434FEA410C6F
:100C5000DF6807FA0CF738439060506801278F402F
:100C6000B8431F79C7F300178F4038435060D068EE
:100C70004FEA410C032707FA0CF7B8434FEA410C3F
:100C80009F6807FA0CF73843D0605F6807F0805719
:100C9000B7F1805F95D100BF484F3F6847F002072A
:100CA000DFF818C1CCF8007067463F6807F002070C
:100CB000009700BF00BF424F4FEA910C00E075E083
:100CC00057F82C008F074FEA177C0F2707FA0CF70D
:100CD000B8433C4FBA4201D100272DE03A4FBA4207
:100CE00001D1012728E0394FBA4201D1022723E080
:100CF000374FBA4201D103271EE0364FBA4201D125
:100D0000042719E0344FBA4201D1052714E0334FCC
:100D1000BA4201D106270FE0314FBA4201D107276D
:100D20000AE0304FBA4201D1082705E02E4FBA42FF
:100D300001D1092700E00A274FEA817C4FEA1C7C99
:100D400007FA0CF738431E4F4FEA910C47F82C0076
:100D50002868A0435F6807F48037B7F5803F00D16B
:100D6000204328606868A0435F6807F40037B7F540
:100D7000003F00D1204368604FF0B0473868A0437F
:100D80005F6807F48017B7F5801F00D120434FF04C
:100D9000B04738607868A0435F6807F40017B7F57C
:100DA000001F00D120434FF0B0477860491C102944
:100DB000FFF400AFF8BD000080000058F444025872
:100DC00008040058000002580004025800080258A5
:100DD000000C025800100258001402580018025863
:100DE000001C0258002002580024025802461369D1
:100DF0000B400BB1012000E0002070470AB10183D5
:100E000000E041837047000001480068704700001F
:100E10003000002403480068034909780844014968
:100E200008607047300000243800002410B503200B
:100E300000F0D2F80F2000F007F808B1012010BD33
:100E400000F08CF80020FAE770B504460E480078F0
:100E50004FF47A71B1FBF0F00C490968B1FBF0F581
:100E6000284600F035FF08B1012070BD102C07D2D4
:100E700000222146501E00F072F80548046001E08F
:100E80000120F2E70020F0E73800002400000024F1
:100E9000340000244178154A11600178F9B1121D1F
:100EA00041681160017B0907C27A41EA0261827AD6
:100EB00041EAC241427B41EA8241827B41EA4241AE
:100EC000C27B41EA0241427A41EA0221027A41EAC6
:100ED000420102781143054A0832116005E0002101
:100EE000024A121D1160121D1160704798ED00E05A
:100EF00000BF00BF00BFBFF35F8F00BF00BF00BFD8
:100F00000548006820F48030034908600020024949
:100F1000703108607047000024ED00E040F00101EE
:100F20000D4A11600C497039096841F480310A4A50
:100F3000703A116000BF00BF00BFBFF34F8F00BF0A
:100F400000BF00BF00BF00BF00BFBFF36F8F00BF77
:100F500000BF00BF7047000094ED00E070472DE92E
:100F6000F05F80460D46164603F0A4F90746394661
:100F70002A46334601F00700C0F1070ABAF1040F10
:100F800002D94FF0040A01E0C0F1070AD14600F18E
:100F9000040ABAF1070F02D24FF0000A01E0A0F1F3
:100FA000030AD4464FF0010A0AFA09FAAAF1010A23
:100FB0000AEA020A0AFA0CFA4FF0010B0BFA0CFBD0
:100FC000ABF1010B0BEA030B4AEA0B042146404646
:100FD00003F078F9BDE8F09F00BF00F00702064B70
:100FE00019684FF6FF031940044B0B4343EA0221F3
:100FF000014B196000BF70470CED00E00000FA05DE
:1010000070B504460D4600268D48006800F00700C4
:10101000A8420ED28A48006820F007002843884979
:1010200008600846006800F00700A84201D00120CF
:1010300070BD207800F00200022807D181480068C6
:1010400020F00F00E16808437E490860207800F036
:101050000100002851D07B48006820F47060A1682E
:101060000843784908606068022807D17548183835
:101070000068C0F34040F8B90120D9E76068032850
:1010800007D1704818380068C0F34060A0B901204B
:10109000CEE76068012807D16A4818380068C0F3B5
:1010A000002048B90120C3E7664818380068C0F33B
:1010B000800008B90120BBE762480838006820F0CA
:1010C0000700616808435F4908390860FFF79CFE24
:1010D00006466068022811D108E0FFF795FE801BE4
:1010E00041F28831884201D90320A1E755480838E8
:1010F000006800F038001028EFD13AE0606803285B
:1011000011D108E0FFF780FE801B41F28831884250
:1011100001D903208CE74B480838006800F03800FC
:101120001828EFD125E06068012811D108E0FFF709
:101130006BFE801B41F28831884201D9032077E79A
:1011400040480838006800F038000828EFD110E067
:1011500008E0FFF759FE801B41F28831884201D92F
:10116000032065E737480838006800F03800002899
:10117000EFD13348006800F00700A8420ED930488C
:10118000006820F0070028432D49086008460068E1
:1011900000F00700A84201D0012049E7207800F0C4
:1011A0000400042807D12748006820F07000216956
:1011B000084324490860207800F00800082809D175
:1011C0002048001D006820F07000616908431D4937
:1011D000091D0860207800F01000102809D1194876
:1011E000001D006820F4E060A16908431549091D4D
:1011F0000860207800F02000202809D1114808302C
:10120000006820F07000E16908430E490831086069
:1012100000F01EF80B49096801F470614FF4807208
:1012200092FAA2F2B2FA82F2D140074A515CC84067
:10123000064908600F20FFF707FE0020F8E60000CF
:101240000020005218440258785100080000002481
:1012500070B5012500EE905A0022012100230024E0
:10126000DFED861AB0EE610ADFED841AB0EE611A86
:101270000020834D2D6805F0380535B1082D15D0B7
:10128000102D15D0182D7CD114E07D4D103D2D680A
:10129000C5F3401545B17A4D103D2D68C5F3C10623
:1012A000784D25FA06F000E07648E5E07648E3E080
:1012B0007648E1E0724D18352D6805F00302704D57
:1012C00018352D68C5F305116D4D1C352D6805F0D9
:1012D00001036B4D24352D68C5F3CC0515FB03F5D3
:1012E00001EE905AF8EE611AB0EE610A22B1012ABD
:1012F0004FD0022A7DD16BE0614D103D2D68C5F3C2
:1013000040152DB35E4D103D2D68C5F3C1065D4DF2
:1013100025FA06F4B4FBF1F501EE905AB8EE612A15
:10132000DFED5B1AC0EE212A554D20352D68C5F33F
:10133000080501EE905AF8EE611A72EEA11AF7EE66
:10134000002A71EEA21A62EE211AB0EE611A1FE0B5
:101350004C4DB5FBF1F501EE905AB8EE612ADFED88
:101360004C1AC0EE212A464D20352D68C5F30805DC
:1013700001EE905AF8EE611A72EEA11AF7EE002A09
:1013800000E077E071EEA21A62EE211AB0EE611A67
:101390005EE03D4DB5FBF1F501EE905AB8EE612AE5
:1013A000DFED3B1AC0EE212A354D20352D68C5F3FF
:1013B000080501EE905AF8EE611A72EEA11AF7EEE6
:1013C000002A71EEA21A62EE211AB0EE611A3FE015
:1013D0002E4DB5FBF1F501EE905AB8EE612ADFED26
:1013E0002C1AC0EE212A264D20352D68C5F308059C
:1013F00000E00EE001EE905AF8EE611A72EEA11ACA
:10140000F7EE002A71EEA21A62EE211AB0EE611A0E
:101410001EE01D4DB5FBF1F501EE905AF8EE612A84
:10142000DFED1B1A80EE212A154D20352D68C5F3FE
:10143000080501EE905AF8EE611A72EE211AB7EE25
:10144000002A71EE821A62EEA11AB0EE611A00BF94
:1014500000BF0B4D20352D68C5F346256D1C00EEF1
:10146000905AF8EE601A81EE212AFCEEC21A11EEB3
:10147000900A01E0044800BF00BF70BD00000000FA
:10148000104402580090D00300093D0040787D01CF
:101490000000004670B504460025207800F00100E9
:1014A000002872D0F948006800F0380010280CD0ED
:1014B000F648006800F03800182812D1F3481830B8
:1014C000006800F0030002280BD1F04810380068D3
:1014D000C0F3404000286DD0606800286AD1012028
:1014E00070BD00BF6068B0F5803F08D1E748103894
:1014F000006840F48030E549103908602EE06068EB
:1015000068B9E2481038006820F48030DF491039AB
:1015100008600846006820F4802008601EE06068CB
:10152000B0F5A02F0DD1D9481038006840F48020C4
:10153000D649103908600846006840F480300860D9
:101540000CE0D2481038006820F48030CF491039C0
:1015500008600846006820F48020086000BF6068CA
:10156000A0B1FFF751FC054608E0FFF74DFC401B1A
:1015700041F28831884201D90320B1E7C3481038CD
:101580000068C0F340400028EFD013E0FFF73CFCB8
:10159000054608E0FFF738FC401B41F288318842DD
:1015A00001D903209CE7B94810380068C0F34040D7
:1015B0000028EFD1207800F00200022847D1B3487C
:1015C000006800F0380058B1B048006800F03800FA
:1015D00018283ED1AD481830006800F00300B8BBB1
:1015E000AA4810380068C0F3800018B1E06808B954
:1015F000012075E7A5481038006820F01900E1685F
:101600000843A24910390860FFF7FEFB054606E0D3
:10161000FFF7FAFB401B022801D9032060E79B4833
:1016200010380068C0F380000028F1D097480C38CB
:10163000006820F47C304FF47C3292FAA2F2B2FAC5
:1016400082F221699140084390490C3908604AE0D0
:10165000FFE7E06868B38D481038006820F0190093
:10166000E1680843894910390860FFF7CDFB05465A
:1016700006E0FFF7C9FB401B022801D903202FE732
:10168000824810380068C0F380000028F1D07F48FD
:101690000C38006820F47C304FF47C3292FAA2F2CD
:1016A000B2FA82F221699140084378490C39086006
:1016B00019E076481038006820F0010073491039AD
:1016C0000860FFF7A1FB054606E0FFF79DFB401B06
:1016D000022801D9032003E76C4810380068C0F3E2
:1016E00080000028F1D1207800F01000102877D178
:1016F0006648006800F0380008280CD0634800688D
:1017000000F03800182823D160481830006800F035
:10171000030001281CD15D4810380068C0F3002088
:1017200020B1E069802801D00120D9E657480C3863
:10173000006820F0F8404FF0F84292FAA2F2B2FAB4
:1017400082F2216A9140084350490C39086047E011
:10175000E06958B34D481038006840F080004B49AC
:1017600010390860FFF750FB054606E0FFF74CFB19
:10177000401B022801D90320B2E644481038006813
:10178000C0F300200028F1D040480C38006820F059
:10179000F8404FF0F84292FAA2F2B2FA82F2216ACD
:1017A0009140084339490C39086019E0374810382E
:1017B000006820F08000354910390860FFF724FBED
:1017C000054606E0FFF720FB401B022801D9032055
:1017D00086E62E4810380068C0F300200028F1D1BA
:1017E000207800F00800082836D16069D0B1274879
:1017F0006430006840F00100244964310860FFF75C
:1018000003FB054606E0FFF7FFFA401B022801D95B
:10181000032065E61D4864300068C0F340000028DE
:10182000F1D019E019486430006820F00100174930
:1018300064310860FFF7E8FA054606E0FFF7E4FACE
:10184000401B022801D903204AE610486430006892
:10185000C0F340000028F1D1207800F020002028BB
:1018600034D1A069D8B109481038006840F48050DC
:10187000064910390860FFF7C7FA054608E0FFF788
:10188000C3FA401B022803D9032029E6104402585A
:10189000AF480068C0F340300028F0D016E0AC48F4
:1018A000006820F48050AA490860FFF7ADFA0546A9
:1018B00006E0FFF7A9FA401B022801D903200FE632
:1018C000A3480068C0F340300028F2D1207800F02F
:1018D000040004287DD19F48006840F480709D4931
:1018E0000860FFF791FA054606E0FFF78DFA401B06
:1018F000642801D90320F3E59648006800F480705D
:101900000028F2D000BFA068012808D190487030AC
:10191000006840F001008E49703108602DE0A06839
:1019200068B98B487030006820F001008849703138
:1019300008600846006820F0040008601DE0A06808
:1019400005280DD182487030006840F004008049BD
:10195000703108600846006840F0010008600CE043
:101960007B487030006820F00100794970310860D0
:101970000846006820F00400086000BFA068A0B11D
:10198000FFF742FA054608E0FFF73EFA401B41F236
:101990008831884201D90320A2E56D487030006883
:1019A000C0F340000028EFD013E0FFF72DFA054602
:1019B00008E0FFF729FA401B41F28831884201D93B
:1019C00003208DE5624870300068C0F340000028B5
:1019D000EFD1606A00287CD05D481030006800F0CC
:1019E0003800182876D0606A022874D158480068F8
:1019F00020F0807056490860FFF706FA054606E0B9
:101A0000FFF702FA401B022801D9032068E550487D
:101A10000068C0F340600028F2D100BFD4E90A108A
:101A200041EA00104A492831096840F2F3329143F3
:101A30000843474928310860208E401EC0F3080043
:101A4000616B491E4FF47E4202EA41210843218F17
:101A5000491ED20102EA014108433C21095D491EA9
:101A6000120202EA0161084339493031086000BFBF
:101A7000081D00684FF6F87188434FF6F87292FA25
:101A8000A2F2B2FA82F2A16C91400843304934319B
:101A900008602F482C30006820F00C00216C0843AF
:101AA0002B492C3108600846006820F00200616C68
:101AB000084327492C3108600846006840F480300C
:101AC00008600846006840F4003008600846006876
:101AD00002E03BE038E01FE040F480200860084668
:101AE000006840F0010008601948006840F080700C
:101AF00017490860FFF788F9054606E0FFF784F903
:101B0000401B022801D90320EAE411480068C0F311
:101B100040600028F2D019E00D48006820F0807085
:101B20000B490860FFF770F9054606E0FFF76CF90E
:101B3000401B022801D90320D2E405480068C0F305
:101B400040600028F2D101E00120C9E40020C7E490
:101B5000004402580048025870B504460E46154627
:101B60000CB9012070BD94F8450028B9002084F814
:101B70004400204600F024F804F108012068FEF734
:101B800023FF3146A2682068FEF75EFF2946E36A1C
:101B9000D4E90102FEF7F4FEA168206850F82100A4
:101BA00040F00100A268216841F822000348006863
:101BB00040F00040014908600020D3E70040005297
:101BC00010B586B0044600BF3448006840F4805029
:101BD000324908600846006800F48050009000BF59
:101BE00000BF00BF2D480C30006840F008002B49B2
:101BF0000C3108600846006800F00800009000BF43
:101C000000BF00BF0846006840F0100008600846AA
:101C1000006800F01000009000BF00BF00BF1F4828
:101C2000006840F480501D4908600846006800F4D0
:101C30008050009000BF00BF4FF400500190012081
:101C40000290002003900320049001A91448FEF79D
:101C5000A7FF4FF4805001900120029000200390D4
:101C60000320049001A90E48FEF79AFF4CF6B370CA
:101C700001900220029001200390032004900C2088
:101C8000059001A90648FEF78BFF4FF68070019082
:101C900001A90448FEF784FF06B010BDD4440258E1
:101CA000000C025800100258042808D14FF0E0211F
:101CB000096941F004014FF0E022116107E04FF0A3
:101CC000E021096921F004014FF0E0221161704721
:101CD00070B504462546681EB0F1807F01D301200F
:101CE0000FE0681E4FF0E02148610F214FF0FF30F8
:101CF00002F0E8FA00204FF0E02188610720086137
:101D0000002070BD7047704701460022002391F803
:101D1000792091F87A3042EA030070472DE9F041CA
:101D200004462068C569206807682068866805F051
:101D30000F08B8F1000F0DD105F0200050B107F0E9
:101D4000200010B906F0805020B1204602F0EEF9D4
:101D5000BDE8F081B8F1000F72D05D48304018B98D
:101D600007F4907000287AD005F0010048B107F41C
:101D7000807030B1012021680862E06F40F00100FE
:101D8000E06705F0020048B106F0010030B1022022
:101D900021680862E06F40F00400E06705F004008D
:101DA00048B106F0010030B1042021680862E06FFC
:101DB00040F00200E06705F0080078B107F020006D
:101DC00028B906F0805010B906F0010030B10820A3
:101DD00021680862E06F40F00800E067E06F70B3D0
:101DE00005F0200040B107F0200010B906F0805047
:101DF00010B1204602F09AF9E06F00F0080020B917
:101E00002068806800F0400018B3204602F06EF9A8
:101E10002068806800F04000B8B12068806820F039
:101E2000400021688860606F58B12A48616F08657A
:101E3000606FFEF739FE10B1606F016D88470DE0ED
:101E40000DE02046FFF75FFF08E02046FFF75BFF4D
:101E500004E02046FFF757FF0020E06778E705F42D
:101E6000801078B106F4800060B14FF480102168D2
:101E70000862202084F8790084F87A002046FFF771
:101E800041FF65E705F0800048B107F0800010B918
:101E900006F4000018B1204602F08DF958E705F06D
:101EA000400030B107F0400018B1204602F02EF992
:101EB0004EE705F4000040B107F0804028B12068EB
:101EC000006820F080402168086000BF40E7000003
:101ED00001000010D540000810B5034693F87A00C1
:101EE000202867D101B10AB9012010BD00BF93F8C5
:101EF0007800012801D10220F7E7012083F878005B
:101F000000BF5966A3F86820A3F86A2000BF98684C
:101F1000B0F5805F0AD1186920B940F2FF10A3F82C
:101F20006C001CE0FF20A3F86C0018E0986848B92A
:101F3000186918B9FF20A3F86C0010E07F20A3F8FF
:101F40006C000CE09868B0F1805F08D1186918B98E
:101F50007F20A3F86C0002E03F20A3F86C0000BFD4
:101F60000020D867222083F87A0000BF002083F881
:101F7000780000BF1868806840F001001C68A0600D
:101F80001868006800F0005060B11868006840F4FC
:101F900080701C6820601868806840F080501C6861
:101FA000A06005E01868006840F490701C6820602C
:101FB00000209AE7022098E71D4A0168914236D135
:101FC0001C49098801F4004189BB1A49098801F4B8
:101FD000804171B1184909780A2903D00021154AB6
:101FE000118024E01349098841F40041114A11800D
:101FF0001DE0114909780D2906D10E49098841F4DF
:1020000080410C4A118012E00B490978094A128874
:10201000C2F30D02094B995406490988491C054A27
:10202000118011460988C72901DD00211180704700
:1020300000100140280000242A00002498000024F9
:10204000704700BFFEE710B50020FEF7F3FB01204C
:10205000FEF7F0FB0220FEF7EDFB0320FEF7EAFBA4
:1020600010BD000010B50446012C01D12B490870A9
:102070002A480078002835D001212948FEF7B6FE0D
:1020800070B102212648FEF7B1FE48B10421244870
:10209000FEF7ACFE20B108212148FEF7A7FE08BBE1
:1020A0000A2002F091FD00201C49087001211C4803
:1020B000FEF79CFE08B9012010BD02211848FEF76A
:1020C00095FE08B90220F7E704211548FEF78EFEB9
:1020D00008B90320F0E708211148FEF787FED8B9B8
:1020E0000420E9E701210E48FEF780FE012813D104
:1020F00002210B48FEF77AFE01280DD10421084881
:10210000FEF774FE012807D108210548FEF76EFE90
:10211000012801D1014908700020CDE71C000024EE
:102120000010025818B504460448009443880288F9
:102130000021084600F07CF918BD0000880000244A
:102140008B490872032842D1898848F25252914241
:102150000ED14FF4A071864A1180F02151802C21BC
:1021600051812A2191812B21D1816021D180FDE0F3
:102170007F49898845F2084291420FD14FF4A071FE
:102180007B4A1180F02151802221518120219181AF
:102190002121D18141F20801D180E7E07449898889
:1021A00045F210529142E2D14FF44871704A1180C9
:1021B0004FF4F07151804FF4305151814FF4285158
:1021C00091814FF42C51D181A021D180CEE00428FF
:1021D00043D16749898848F2525291420ED14FF457
:1021E000A071634A1180F02151802C2151812A2154
:1021F00091812B21D181A021D180B7E05C498988D0
:1022000045F2084291420FD14FF4A071584A118013
:10221000F021518022215181202191812121D181E0
:1022200041F23801D180A1E05149898845F210522C
:1022300091429CD14FF448714D4A11804FF4F07196
:1022400051804FF4305151814FF4285191814FF416
:102250002C51D1816021D18088E0012843D14449AB
:10226000898848F2525291420ED1F021404A1180A1
:102270004FF4A07151802C2151812A2191812B2171
:10228000D181C021D18071E03949898845F2084265
:1022900091420FD1F021364A11804FF4A071518044
:1022A00022215181202191812121D1814FF481511D
:1022B000D1805BE02E49898845F21052914255D178
:1022C0004FF4F0712A4A11804FF4487151804FF455
:1022D000305151814FF4285191814FF42C51D181CB
:1022E000C021D18042E02249898848F2525291426D
:1022F0000ED1F0211E4A11804FF4A07151802C2183
:1023000051812A2191812B21D1810021D1802DE081
:102310001749898845F2084291420FD1F021144AA9
:1023200011804FF4A071518022215181202191818F
:102330002121D18141F21001D18017E00C49898817
:1023400045F21052914211D14FF4F071084A1180B8
:102350004FF4487151804FF4305151814FF428515E
:1023600091814FF42C51D1810021D1807047000020
:102370008800002470B504460D4616462A48808819
:1023800048F25251884214D12749888901F046FD0C
:10239000201201F037FDE0B201F034FD2249C88976
:1023A00001F03CFD281201F02DFDE8B201F02AFDFC
:1023B00032E01D48808845F20841884206D1012359
:1023C0001A462946204601F01BFB25E01648808866
:1023D00045F2105188421FD11349888901F01EFD32
:1023E000201201F00FFD10498989491C88B201F0C3
:1023F00015FDE0B201F006FD0B49C88901F00EFDA4
:10240000281201F0FFFC0849C989491C88B201F073
:1024100005FDE8B201F0F6FC034840890349088055
:10242000891C0E8070BD000088000024FEFF016042
:102430002DE9F84F04460D4616461F46DDF8289054
:102440000020009083462348808845F20841884256
:102450001ED1781B83B2301B82B22946204601F080
:10246000CFFA01F0EDFC00BF05E01FFA89F001F0A2
:10247000E1FC0BF1010B781B311B48435845F4D8A4
:102480001448438802880021084601F0B9FA1EE08A
:10249000301B401C80B20090A84616E04146204602
:1024A00001F056FA01F0CCFC4FF0000A06E00A49B0
:1024B000A1F800900AF101001FFA80FA0098824505
:1024C000F5DB08F101001FFA80F8B845E6DDBDE84C
:1024D000F88F0000880000240000026000B58FB073
:1024E000FD48FE490860FE484860002088600021E1
:1024F000FA48C16001611021416100218161C1611F
:1025000001624FF480514162002181624FF48041A9
:10251000C1620021016341634FF480118163102087
:102520000890012009904D200A9000200E9005206F
:10253000019001200290052003900020079001AA3D
:1025400008A9E648FFF708FB0A2002F03DFB00223D
:102550004FF40061E348FEF751FC0A2002F034FB1F
:1025600001221103DF48FEF749FC0A2002F02CFB90
:10257000042001F0E1F901F0D5F9DB49888001F090
:10258000D1F9D9498880084680884FF6FF7101EA61
:102590000020D549888001F0C5F9D34989880843CE
:1025A000D14988800846808848F25251884248D0F4
:1025B000002001F0C1F9CC4988800846808845F2A6
:1025C000084188423DD04FF4704001F027FC55206F
:1025D00001F018FC4FF2010001F020FCAA2001F0EC
:1025E00011FC4FF2020001F019FC522001F00AFC2C
:1025F0004FF2030001F012FC082001F003FC4FF23F
:10260000040001F00BFC012001F0FCFB4FF44540FD
:1026100001F092F901F086F9B34988800846808874
:102620004FF6FF7101EA0020AF4988804CF201505B
:1026300001F082F901F076F9AB4989880843AA498B
:102640008880A948808848F2525188427ED1112062
:1026500001F0E4FB782002F0B7FA362001F0DEFB4F
:10266000002001F0CFFB3A2001F0D8FB052001F05B
:10267000C9FBB22001F0D2FB0C2001F0C3FB0C20FF
:1026800001F0C0FB002001F0BDFB332001F0BAFBDC
:10269000332001F0B7FBB72001F0C0FB352001F07B
:1026A000B1FBBB2001F0BAFB282001F0ABFBC0203E
:1026B00001F0B4FB2C2001F0A5FBC22001F0AEFB21
:1026C000012001F09FFBC32001F0A8FB0B2001F0CB
:1026D00099FBC42001F0A2FB202001F093FBC6204F
:1026E00001F09CFB0F2001F08DFBD02001F096FB48
:1026F000A42001F087FBA12001F084FBE02001F081
:102700008DFBD02001F07EFB012001F07BFB082037
:1027100001F078FB0F2001F075FB112001F072FB36
:102720002A2001F06FFB362001F06CFB552001F0F0
:1027300069FB442001F066FB3A2001F063FB0B20AB
:1027400001F060FB062001F05DFB00E04BE0112092
:1027500001F058FB202001F055FBE12001F05EFB69
:10276000D02001F04FFB022001F04CFB072001F0CC
:1027700049FB0A2001F046FB0B2001F043FB182027
:1027800001F040FB342001F03DFB432001F03AFB17
:102790004A2001F037FB2B2001F034FB1B2001F015
:1027A00031FB1C2001F02EFB222001F02BFB1F200F
:1027B00001F028FB292001F031FB2C2001F02EFB39
:1027C0000320FFF7BDFC362001F028FB4649C888EE
:1027D00001F018FB4448438802880021084601F0B4
:1027E0000FF901F082B84048808845F208418842DC
:1027F0007CD14FF48071012001F02CFB4FF4E0619B
:10280000022001F027FB41F23001032001F022FBFE
:102810000021042001F01EFB40F20221082001F0FB
:1028200019FB0021092001F015FB00210A2001F00D
:1028300011FB00210C2001F00DFB00210D2001F007
:1028400009FB00210F2001F005FB0021102001F001
:1028500001FB0021112001F0FDFA0021122001F0FE
:10286000F9FA0021132001F0F5FAC82002F0ACF9C2
:102870000721112001F0EEFA322002F0A5F941F211
:10288000B021102001F0E6FA322002F09DF940F26A
:10289000BD11122001F0DEFA322002F095F94FF45A
:1028A000A051132001F0D6FA0E21292001F0D2FA0E
:1028B000322002F089F90021202001F0CBFA40F209
:1028C0003F11212001F0C6FA40F60D31302001F011
:1028D000C1FA41F623110AE0004000523C000024F6
:1028E00004410052000C025888000024ACE0312062
:1028F00001F0B0FA41F62641322001F0ABFA42F283
:102900001C61332001F0A6FA42F21941342001F093
:10291000A1FA40F60B51352001F09CFA41F2060174
:10292000362001F097FA4FF4C261372001F092FA95
:1029300040F20671382001F08DFA4FF441713920D0
:1029400001F088FA40F605613A2001F083FA40F67A
:1029500001613B2001F07EFA4FF487713C2001F0C9
:1029600079FA40F20E513D2001F074FA40F2034131
:102970003E2001F06FFA40F207613F2001F06AFA51
:102980000021502001F066FAEF21512001F062FA97
:102990000021522001F05EFA40F23F11532001F075
:1029A00059FA4FF42741602001F054FA01216120C7
:1029B00001F050FA00216A2001F04CFA0021802039
:1029C00001F048FA0021812001F044FA0021822020
:1029D00001F040FA0021832001F03CFA002184201C
:1029E00001F038FA0021852001F034FA10219020FE
:1029F00001F030FA0021922001F02CFA03219320FB
:102A000001F028FA4FF48871952001F023FA002193
:102A1000972001F01FFA0021982001F01BFA0320F3
:102A2000FFF78EFBFE48C188032001F013FA4FF434
:102A30008971072001F00EFAF948438802880021C5
:102A4000084600F0DDFFCCE6F548808845F21051DD
:102A50008842F8D1322002F0B7F855214FF4704087
:102A600001F0F8F9AA214FF2010001F0F3F9522127
:102A70004FF2020001F0EEF908214FF2030001F0DD
:102A8000E9F901214FF2040001F0E4F986214BF647
:102A9000014001F0DFF96A214BF6024001F0DAF95A
:102AA00086214BF6015001F0D5F96A214BF6025010
:102AB00001F0D0F967214BF6016001F0CBF900215C
:102AC0004FF4514001F0C6F95D214DF2011001F0C3
:102AD000C1F900214DF2021001F0BCF96B214DF259
:102AE000031001F0B7F900214DF2041001F0B2F922
:102AF00084214DF2051001F0ADF900214DF20610D0
:102B000001F0A8F99C214DF2071001F0A3F9002172
:102B10004DF2081001F09EF9B1214DF2091001F0BB
:102B200099F900214DF20A1001F094F9D9214DF2E2
:102B30000B1001F08FF900214DF20C1001F08AF911
:102B4000FD214DF20D1001F085F901214DF20E101D
:102B500001F080F938214DF20F1001F07BF90121CD
:102B60004DF2101001F076F968214DF2111001F0CC
:102B700071F901214DF2121001F06CF9B9214DF2F9
:102B8000131001F067F901214DF2141001F062F900
:102B9000FB214DF2151001F05DF902214DF21610E6
:102BA00001F058F963214DF2171001F053F9022199
:102BB0004DF2181001F04EF9B9214DF2191001F043
:102BC00049F902214DF21A1001F044F9BB214DF2EE
:102BD0001B1001F03FF903214DF21C1001F03AF9EE
:102BE00003214DF21D1001F035F903214DF21E10A5
:102BF00001F030F946214DF21F1001F02BF90321AD
:102C00004DF2201001F026F969214DF2211001F05A
:102C100021F903214DF2221001F01CF98F214DF210
:102C2000231001F017F903214DF2241001F012F9DD
:102C3000A4214DF2251001F00DF903214DF22610CB
:102C400001F008F9B9214DF2271001F003F9032131
:102C50004DF2281001F0FEF8C7214DF2291001F0C5
:102C6000F9F803214DF22A1001F0F4F8C9214DF2D0
:102C70002B1001F0EFF803214DF22C1001F0EAF8CF
:102C8000CB214DF22D1001F0E5F803214DF22E106D
:102C900001F0E0F8CB214DF22F1001F0DBF8032119
:102CA0004DF2301001F0D6F8CB214DF2311001F089
:102CB000D1F803214DF2321001F0CCF8CC214DF2C5
:102CC000331001F0C7F800214FF4524001F0C2F870
:102CD0005D214DF2012001F0BDF800214DF20220EE
:102CE00001F0B8F86B214DF2032001F0B3F8002198
:102CF0004DF2042001F0AEF884214DF2052001F0E0
:102D0000A9F800214DF2062001F0A4F89C214DF213
:102D1000072001F09FF800214DF2082001F09AF8F9
:102D2000B1214DF2092001F095F800214DF20A2061
:102D300001F090F8D9214DF20B2001F08BF8002121
:102D40004DF20C2001F086F8FD214DF20D2001F02E
:102D500081F801214DF20E2001F07CF838214DF26E
:102D60000F2001F077F801214DF2102001F072F8E8
:102D700068214DF2112001F06DF801214DF2122071
:102D800001F068F8B9214DF2132001F063F8012138
:102D90004DF2142001F05EF8FB214DF2152001F0F8
:102DA00059F802214DF2162001F054F863214DF23A
:102DB000172001F04FF802214DF2182001F04AF8D7
:102DC000B9214DF2192001F045F802214DF21A20E7
:102DD00001F040F8BB214DF21B2001F03BF803212C
:102DE0004DF21C2001F036F803214DF21D2001F0B8
:102DF00031F803214DF21E2001F02CF846214DF24E
:102E00001F2001F027F803214DF2202001F022F8C5
:102E100069214DF2212001F01DF8032102E000009C
:102E2000880000244DF2222001F014F88F214DF289
:102E3000232001F00FF803214DF2242001F00AF8BD
:102E4000A4214DF2252001F005F803214DF22620A2
:102E500001F000F8B9214DF2272000F0FBFF03211B
:102E60004DF2282000F0F6FFC7214DF2292000F096
:102E7000F1FF03214DF22A2000F0ECFFC9214DF2B1
:102E80002B2000F0E7FF03214DF22C2000F0E2FFA1
:102E9000CB214DF22D2000F0DDFF03214DF22E203D
:102EA00000F0D8FFCB214DF22F2000F0D3FF0321FB
:102EB0004DF2302000F0CEFFCB214DF2312000F05A
:102EC000C9FF03214DF2322000F0C4FFCC214DF2A6
:102ED000332000F0BFFF00214FF4534000F0BAFF51
:102EE0005D214DF2013000F0B5FF00214DF20230BE
:102EF00000F0B0FF6B214DF2033000F0ABFF00217A
:102F00004DF2043000F0A6FF84214DF2053000F0B0
:102F1000A1FF00214DF2063000F09CFF9C214DF2F4
:102F2000073000F097FF00214DF2083000F092FFCB
:102F3000B1214DF2093000F08DFF00214DF20A3031
:102F400000F088FFD9214DF20B3000F083FF002103
:102F50004DF20C3000F07EFFFD214DF20D3000F0FF
:102F600079FF01214DF20E3000F074FF38214DF24F
:102F70000F3000F06FFF01214DF2103000F06AFFBA
:102F800068214DF2113000F065FF01214DF2123041
:102F900000F060FFB9214DF2133000F05BFF01211A
:102FA0004DF2143000F056FFFB214DF2153000F0C9
:102FB00051FF02214DF2163000F04CFF63214DF21B
:102FC000173000F047FF02214DF2183000F042FFA9
:102FD000B9214DF2193000F03DFF02214DF21A30B7
:102FE00000F038FFBB214DF21B3000F033FF03210E
:102FF0004DF21C3000F02EFF03214DF21D3000F089
:1030000029FF03214DF21E3000F024FF46214DF22E
:103010001F3000F01FFF03214DF2203000F01AFF97
:1030200069214DF2213000F015FF03214DF22230CD
:1030300000F010FF8F214DF2233000F00BFF032131
:103040004DF2243000F006FFA4214DF2253000F0AF
:1030500001FF03214DF2263000F0FCFEB9214DF2B4
:10306000273000F0F7FE03214DF2283000F0F2FE89
:10307000C7214DF2293000F0EDFE03214DF22A3038
:1030800000F0E8FEC9214DF22B3000F0E3FE0321F1
:103090004DF22C3000F0DEFECB214DF22D3000F051
:1030A000D9FE03214DF22E3000F0D4FECB214DF29B
:1030B0002F3000F0CFFE03214DF2303000F0CAFE79
:1030C000CB214DF2313000F0C5FE03214DF23230FC
:1030D00000F0C0FECC214DF2333000F0BBFE0021E9
:1030E0004FF4544000F0B6FE5D214DF2014000F077
:1030F000B1FE00214DF2024000F0ACFE6B214DF21A
:10310000034000F0A7FE00214DF2044000F0A2FEB3
:1031100084214DF2054000F09DFE00214DF2064055
:1031200000F098FE9C214DF2074000F093FE002134
:103130004DF2084000F08EFEB1214DF2094000F042
:1031400089FE00214DF20A4000F084FED9214DF2A3
:103150000B4000F07FFE00214DF20C4000F07AFEA3
:10316000FD214DF20D4000F075FE01214DF20E40A3
:1031700000F070FE38214DF20F4000F06BFE01218F
:103180004DF2104000F066FE68214DF2114000F053
:1031900061FE01214DF2124000F05CFEB9214DF2BA
:1031A000134000F057FE01214DF2144000F052FE92
:1031B000FB214DF2154000F04DFE02214DF216406C
:1031C00000F048FE63214DF2174000F043FE02215B
:1031D0004DF2184000F03EFEB9214DF2194000F0CA
:1031E00039FE02214DF21A4000F034FEBB214DF2AF
:1031F0001B4000F02FFE03214DF21C4000F02AFE80
:1032000003214DF21D4000F025FE03214DF21E402A
:1032100000F020FE46214DF21F4000F01BFE03216E
:103220004DF2204000F016FE69214DF2214000F0E1
:1032300011FE03214DF2224000F00CFE8F214DF2D1
:10324000234000F007FE03214DF2244000F002FE6F
:10325000A4214DF2254000F0FDFD03214DF2264052
:1032600000F0F8FDB9214DF2274000F0F3FD0321F5
:103270004DF2284000F0EEFDC7214DF2294000F04C
:10328000E9FD03214DF22A4000F0E4FDC9214DF291
:103290002B4000F0DFFD03214DF22C4000F0DAFD61
:1032A000CB214DF22D4000F0D5FD03214DF22E40F3
:1032B00000F0D0FDCB214DF22F4000F0CBFD0321DB
:1032C0004DF2304000F0C6FDCB214DF2314000F010
:1032D000C1FD03214DF2324000F0BCFDCC214DF286
:1032E000334000F0B7FD00214FF4554000F0B2FD2F
:1032F0005D214DF2015000F0ADFD00214DF2025074
:1033000000F0A8FD6B214DF2035000F0A3FD002159
:103310004DF2045000F09EFD84214DF2055000F066
:1033200099FD00214DF2065000F094FD9C214DF2D4
:10333000075000F08FFD00214DF2085000F08AFD8B
:10334000B1214DF2095000F085FD00214DF20A50E7
:1033500000F080FDD9214DF20B5000F07BFD0021E3
:103360004DF20C5000F076FDFD214DF20D5000F0B5
:1033700071FD01214DF20E5000F06CFD38214DF22F
:103380000F5000F067FD01214DF2105000F062FD7A
:1033900068214DF2115000F05DFD01214DF21250F7
:1033A00000F058FDB9214DF2135000F053FD0121FA
:1033B0004DF2145000F04EFDFB214DF2155000F07F
:1033C00049FD02214DF2165000F044FD63214DF2FB
:1033D000175000F03FFD02214DF2185000F03AFD69
:1033E000B9214DF2195000F035FD02214DF21A506D
:1033F00000F030FDBB214DF21B5000F02BFD0321EE
:103400004DF21C5000F026FD03214DF21D5000F03E
:1034100021FD03214DF21E5000F01CFD46214DF20E
:103420001F5000F017FD03214DF2205000F012FD57
:1034300069214DF2215000F00DFD03214DF2225083
:1034400000F008FD8F214DF2235000F003FD032111
:103450004DF2245000F0FEFCA4214DF2255000F066
:10346000F9FC03214DF2265000F0F4FCB9214DF295
:10347000275000F0EFFC03214DF2285000F0EAFC49
:10348000C7214DF2295000F0E5FC03214DF22A50EE
:1034900000F0E0FCC9214DF22B5000F0DBFC0321D1
:1034A0004DF22C5000F0D6FCCB214DF22D5000F007
:1034B000D1FC03214DF22E5000F0CCFCCB214DF27B
:1034C0002F5000F0C7FC03214DF2305000F0C2FC39
:1034D000CB214DF2315000F0BDFC03214DF23250B2
:1034E00000F0B8FCCC214DF2335000F0B3FC0021C9
:1034F0004FF4564000F0AEFC5D214DF2016000F04B
:10350000A9FC00214DF2026000F0A4FC6B214DF2F9
:10351000036000F09FFC00214DF2046000F09AFC73
:1035200084214DF2056000F095FC00214DF206600B
:1035300000F090FC9C214DF2076000F08BFC002114
:103540004DF2086000F086FCB1214DF2096000F0F8
:1035500081FC00214DF20A6000F07CFCD9214DF283
:103560000B6000F077FC00214DF20C6000F072FC63
:10357000FD214DF20D6000F06DFC01214DF20E6059
:1035800000F068FC38214DF20F6000F063FC01216F
:103590004DF2106000F05EFC68214DF2116000F009
:1035A00059FC01214DF2126000F054FCB9214DF29A
:1035B000136000F04FFC01214DF2146000F04AFC52
:1035C000FB214DF2156000F045FC02214DF2166022
:1035D00000F040FC63214DF2176000F03BFC02213B
:1035E0004DF2186000F036FCB9214DF2196000F080
:1035F00031FC02214DF21A6000F02CFCBB214DF28F
:103600001B6000F027FC03214DF21C6000F022FC3F
:1036100003214DF21D6000F01DFC03214DF21E60E0
:1036200000F018FC46214DF21F6000F013FC03214E
:103630004DF2206000F00EFC69214DF2216000F097
:1036400009FC03214DF2226000F004FC8F214DF2B1
:10365000236000F0FFFB03214DF2246000F0FAFB31
:10366000A4214DF2256000F0F5FB03214DF2266008
:1036700000F0F0FBB9214DF2276000F0EBFB0321D5
:103680004DF2286000F0E6FBC7214DF2296000F002
:10369000E1FB03214DF22A6000F0DCFBC9214DF271
:1036A0002B6000F0D7FB03214DF22C6000F0D2FB21
:1036B000CB214DF22D6000F0CDFB03214DF22E60A9
:1036C00000F0C8FBCB214DF22F6000F0C3FB0321BB
:1036D0004DF2306000F0BEFBCB214DF2316000F0C6
:1036E000B9FB03214DF2326000F0B4FBCC214DF266
:1036F000336000F0AFFB24214FF43A4000F0AAFB06
:1037000024214BF6012000F0A5FB24214BF60220DA
:1037100000F0A0FB24214FF4394000F09BFB242152
:103720004BF6011000F096FB24214BF6021000F03E
:1037300091FB55214FF4704000F08CFBAA214FF211
:10374000010000F087FB52214FF2020000F082FBE3
:1037500008214FF2030000F07DFB00214FF204002E
:1037600000F078FBCC214FF4314000F073FB0521D1
:103770004FF43C4000F06EFB05214BF6014000F099
:1037800069FB05214BF6024000F064FB01214FF478
:10379000384000F05FFB03214BF6010000F05AFBBC
:1037A00003214BF6020000F055FB03214BF603000A
:1037B00000F050FB07214BF6025000F04BFB31218B
:1037C0004BF6035000F046FB07214BF6026000F079
:1037D00041FB31214BF6036000F03CFB07214BF627
:1037E000027000F037FB31214BF6037000F032FB22
:1037F000AA214FF47F4000F02DFB55214FF60170B8
:1038000000F028FB25214FF6027000F023FB012178
:103810004FF6037000F01EFB11214FF2043000F050
:1038200019FB10214FF2063000F014FB00214FF27B
:10383000083000F00FFB00214FF4545000F00AFB59
:1038400055214FF4685000F005FB00214FF428503B
:1038500000F000FB002142F6012000F0FBFA0121FC
:1038600042F6022000F0F6FADF2142F6032000F0D3
:10387000F1FA00214FF42C5000F0ECFA002142F64E
:10388000013000F0E7FA032142F6023000F0E2FADC
:103890001F2142F6033000F0DDFA4FF4885000F0AB
:1038A000BDFA0A2001F090F94FF4245000F0B6FA66
:1038B000052001F089F955214FF4685000F0CAFA4B
:1038C00060214FF4585000F0C5FA0320FEF738FC91
:1038D0001248C1884FF4585000F0BCFA0F48438892
:1038E00002880021084600F08BF80C48808845F2D9
:1038F0001051884205D1012251030948FDF77EFA93
:1039000005E000224FF400510548FDF777FA4FF625
:10391000FF70FEF707FC0FB000BD00008800002418
:10392000000C025808B5034800880090BDF800005C
:1039300008BD00000000026010B50446204600F0FB
:103940006DFA052001F04CF9FFF7ECFF10BD000007
:1039500030B504460D462948808848F252518842C5
:1039600014D12649888900F059FA201200F04AFA49
:10397000E0B200F047FA2149C88900F04FFA281256
:1039800000F040FAE8B200F03DFA36E01B488088CB
:1039900045F2084188420AD118498889214600F039
:1039A00059FA1649C889294600F054FA25E0134807
:1039B000808845F2105188421FD11049888900F053
:1039C0002DFA201200F01EFA0C498989491C88B290
:1039D00000F024FAE0B200F015FA0849C88900F0B6
:1039E0001DFA281200F00EFA0449C989491C88B250
:1039F00000F014FAE8B200F005FA30BD88000024A7
:103A00002DE9FC4F04460D46904699460026B246E5
:103A10000027B3460020019000908A48808848F231
:103A20005251884232D1264604EB0800401E1FFA4C
:103A300080FA2F4605EB0900401E1FFA80FB019615
:103A400000978049888900F0E9F9301200F0DAF92E
:103A5000F0B200F0D7F94FEA2A2000F0D3F90AF0CB
:103A6000FF0000F0CFF97749C88900F0D7F9381284
:103A700000F0C8F9F8B200F0C5F94FEA2B2000F0C9
:103A8000C1F90BF0FF0000F0BDF9D5E06D4880886A
:103A900045F20841884273D16A48007A03281CD154
:103AA00068484088401BA0EB090086B26548408802
:103AB000401B401E1FFA80FA62480088001BA0EBE2
:103AC000080087B25F480088001B401E1FFA80FB79
:103AD000CDF804A0CDF800B040E05A48007A0428A0
:103AE0000ED12E4605EB0900401E1FFA80FA27462C
:103AF00004EB0800401E1FFA80FB019600972DE0A2
:103B00005048007A012814D14E480088001BA0EBD1
:103B1000080086B24B480088001B401E1FFA80FA3E
:103B20002F4605EB09001FFA80FBCDF804A0009793
:103B300014E0264604EB0800401E1FFA80FA4148B4
:103B40004088401BA0EB090087B23E484088401BDC
:103B5000401E1FFA80FB0196CDF800B03146502080
:103B600000F078F95146512000F074F9394652209E
:103B700000F070F95946532000F06CF95CE0FFE763
:103B80003048808845F21051884255D1264604EBD2
:103B90000800401E1FFA80FA2F4605EB0900401E60
:103BA0001FFA80FB019600972649888900F036F9B4
:103BB000301200F027F923498989491C88B200F0A6
:103BC0002DF9F0B200F01EF91E498989891C88B2CE
:103BD00000F024F94FEA2A2000F014F919498989E4
:103BE000C91C88B200F01AF90AF0FF0000F00AF9C7
:103BF0001449C88900F012F9381200F003F911498C
:103C0000C989491C88B200F009F9F8B200F0FAF845
:103C10000C49C989891C88B200F000F94FEA2B20B1
:103C200000F0F0F80749C989C91C88B200F0F6F81D
:103C30000BF0FF0000F0E6F8DDE90010FFF788FE6A
:103C4000BDE8FC8F880000242DE9F84F80460F4620
:103C500016461C46BB462046E31704EB5373DB10A5
:103C600021464FEAE47C04EB5C7C4FEAEC0CA4EBCD
:103C7000CC0CBCF1000F02D04FF0010C01E04FF072
:103C8000000C6344224604EBD27C4FEA6C0C03FB2D
:103C90000CF3DBB20093A6F12000C6B200255EE073
:103CA0000C2C07D106EB46002F4901EB800010F8E1
:103CB00005901BE0102C05D12C4800EB061010F8E5
:103CC000059013E0182C07D106EBC600284901EB3C
:103CD000800010F8059009E0202C05D1254800EB64
:103CE000C61010F8059001E0BDE8F88F4FF0000A0B
:103CF0002FE009F0800030B11F4839460268404685
:103D0000FEF738FB07E00A9828B91C4839460268D4
:103D10004046FEF72FFB4FEA49604FEA1069781CD6
:103D200087B217484088B84200DCDDE7A7EB0B00FC
:103D3000A0420AD15F4608F101001FFA80F810483E
:103D40000088404500DCCFE706E00AF1010000F002
:103D5000FF0ABAF1080FCCDB00BF681CC5B200989F
:103D600085429DDB00BFBFE7F051000864560008A4
:103D7000545C0008B06900082000002424000024DE
:103D8000880000242DE9F84705460E4690469946DE
:103D9000DDE9094705F0FF0A08EB05001FFA80F886
:103DA00009EB06001FFA80F921E0454502DB554684
:103DB000301986B24E4500DB1FE004EBD47105EBF1
:103DC00061010F4A1288914202DD0025301986B246
:103DD000002000903A78234631462846FFF734FF0A
:103DE000204604EBD07105EB61018DB27F1C387861
:103DF0007E2802DC38782028D7DA00BFBDE8F887B3
:103E00008800002401B5BDF800000090BDF8000056
:103E10000149088008BD00000000026001B5BDF83E
:103E200000000090BDF800000149088008BD0000B6
:103E3000FEFF016001490880704700000000026039
:103E40000248408902490880704700008800002429
:103E5000FEFF0160024A1080921C11807047000032
:103E6000FEFF01601FB5012000220092CDE9012074
:103E70000323122251060390002000F00CF80120C9
:103E800000210091019103231922CDE90210590765
:103E900000F001F81FBD2DE9FF5F04460D461646F0
:103EA0001F46DDE910ABDDE90E89FDF721F80120A1
:103EB0008DF80000E0B28DF801000195F0B28DF8A8
:103EC000080000208DF809008DF80A008DF80B70AD
:103ED0008DF80C808DF80D908DF80EA08DF80FB038
:103EE0006846FCF7D7FF0420FDF718F8BDE8FF9FF0
:103EF00000BFFEE77047704770B5044600224FF4DC
:103F000080511548FCF77AFF00251CE0012251037F
:103F10001148FCF773FF04F4000028B10122D1031B
:103F20000D48FCF76BFF05E000224FF400410A4802
:103F3000FCF764FF00224FF400510748FCF75EFFD6
:103F40006400681CC5B2182DE0DB01221103024891
:103F5000FCF754FF70BD000000040258704710B514
:103F6000FCF758FF10BD000010B504460420FDF713
:103F70009BFE0148046010BD0800002400B59DB000
:103F80004C210AA8FCF7DCF9202102A8FCF7D8F99B
:103F90002A48006820F004002849086000BF00207B
:103FA000019026480C30006840F4404023490C3111
:103FB00008600846006800F44040019000BF00BF60
:103FC00000BF1E480C30006800F40050B0F5005FE0
:103FD000F7D101200A9000040B90022013900221D7
:103FE000149105211591A021169102211791042108
:103FF0001891022119910C211A9100211B911C91F9
:104000000AA8FDF747FA08B100BFFEE73F2002907B
:104010000320039000200490082005904020069083
:1040200007900001089040200990022102A8FCF7A7
:10403000E7FF08B100BFFEE71DB000BD0C48025805
:104040002048006840F470001E4908601E4800685F
:1040500040F001001C49086000201B491031086035
:104060001948006819490840174908600020164996
:1040700018310860091D0860091D086012492831BF
:104080000860091D0860091D0860091D0860091DF8
:104090000860091D0860091D0860091D08600A48BC
:1040A000006820F48020084908600020064960313B
:1040B0000860012006490860C0060249803908608E
:1040C0007047000088ED00E0004402587FEDF6EAFA
:1040D0000881005170B50546AC6B0020A4F86A0059
:1040E000A4F862002046FDF70EFE70BD0168096865
:1040F00021F49071026811600168896821F0010162
:1041000002689160202180F87A10704710B504464B
:104110002068006820F0400021680860202084F8B2
:1041200079002046FDF78CFF002010BD2DE9F041FD
:104130000446B4F86C7094F87A00222833D12068D1
:10414000858CA068B0F5805F09D1206938B9666EAA
:1041500005EA07003080606E801C606605E0F8B2FA
:104160002840626E511C61661070B4F86A00401EEF
:1041700080B2A4F86A00A0B92068006820F49070AA
:10418000216808602068806820F00100216888604C
:10419000202084F87A002046FDF70EFF0020BDE8BD
:1041A000F0810020FBE72068008B40F008002168C8
:1041B00008830220F3E7014691F87900212839D1DC
:1041C000B1F86200C8B90868006800F0005030B16A
:1041D0000868806820F400000B68986005E00868B3
:1041E000006820F080000B6818600868006840F0E4
:1041F00040000B681860002070478868B0F5805F49
:104200000BD1086948B9CA6D1088C0F308000B6863
:104210001885C86D801CC86505E0CB6D581CC86545
:1042200018780B681885B1F86200401EA1F862008A
:104230000020E1E70220DFE770B500240F4D1048B1
:10424000FDF76CFD00BF03E0641CAC4200D904E044
:104250000B48FDF759FD2028F6D100BF002403E0EC
:10426000641CAC4200D906E0012206490448FDF76F
:1042700033FE0028F4D100BF70BD0000FFFF010035
:10428000600100242A00002400BFFEE70FB4084BA1
:1042900010B504A902AA039800F0FAF8044602A98E
:1042A000002000F08CFC204610BC5DF814FB0000E0
:1042B000BF4B000802480068C0F3022070470000AE
:1042C0000CED00E010B5002804DB0A07130E054AC8
:1042D000135406E00A07140E034A00F00F031B1FD5
:1042E000D45410BD00E400E018ED00E002E008C87E
:1042F000121F08C1002AFAD170477047002001E060
:1043000001C1121F002AFBD1704700002DE9FF5F99
:1043100082B00021DDE90430020DDDF840B0034336
:1043200018D044F61050A2F2FF32424315141198EF
:1043300001281FD0A5EB0B00401C5FEA000A4FF0DC
:1043400000064E4FDFF83891B046504615D5CAF1F9
:10435000000413E0119801244AA3012801D16FEA57
:104360000B010298119AC0E90031C0E9024206B07F
:10437000BDE8F09FCBF10000DFE704460021404A92
:10438000491842EB0450CDE9001012E0E00707D0D5
:1043900032463B4640464946FCF7B9F880468946D6
:1043A00032463B4610461946FCF7B1F806460F4622
:1043B0006410002CEAD1DDE90401DDE90023BAF143
:1043C000000F06DAFCF7A3F842464B46FCF79FF8CD
:1043D00005E0FCF70EF942464B46FCF70AF90446A5
:1043E0000E460022284BFCF78BF903D84FF0FF3024
:1043F000014607E00022254B20463146FBF7E0FF4F
:10440000FCF766F9102409E0002C0ADB0A220023DD
:10441000FBF75EFF039B30321A55641E50EA01021F
:10442000F2D1641C039AC4F111031444119A012AB5
:1044300003D0012208430DD10AE0084304D0002034
:104440004FF0110B119072E7A3EB0B056D1E0DE001
:104450005B4504DD4FF0000205F1010504E003DADD
:104460004FF00002A5F10105002AECD00298119945
:10447000C0E90231C0E9004579E7000000001440BE
:104480000000F03F300000000000F0430000E03F7B
:104490002DE9FF4F95B09B468946064600250FE261
:1044A000252877D100242746F84A0121059400E009
:1044B000044316F8013F203B01FA03F01042F7D104
:1044C00030782A2811D06FF02F033078A0F1300215
:1044D000092A16D8059A44F0020402EB820203EB83
:1044E00042021044761C0590EFE759F8042B059220
:1044F000002A03DA504244F40054059044F00204C8
:10450000761C30782E2816D116F8010F44F00404DA
:104510002A280DD06FF02F023078A0F13003092B3C
:1045200009D807EB870302EB4303C718761CF3E7B0
:1045300059F8047B761C30786C280FD006DC4C28A8
:1045400017D068280DD06A2814D104E0742810D040
:104550007A280FD10DE044F400140AE044F48014EA
:1045600001E044F440147278824202D104F58014D0
:10457000761C761C307866280BD013DC582877D050
:1045800009DC002875D04528F6D04628F4D0472805
:104590001AD19DE118E0632835D0642879D06528C8
:1045A00012D195E1702873D008DC6728F1D0692812
:1045B0006FD06E280DD06F2806D1B5E073282CD0AF
:1045C000752875D0782874D05A46179990476D1C75
:1045D00075E1C4F30250022809D003280DD0D9F8A0
:1045E000001004280DD00D6009F1040967E1D9F825
:1045F0000010EA17C1E90052F6E7D9F800100D8063
:10460000F2E70D70F0E719F8041B8DF80010002098
:104610008DF80100EA46012003E059F804AB4FF0A1
:10462000FF3061074FF0000102D40DE008F10101F5
:104630008846B9420FDA8045F8DB1AF808100029DD
:10464000F4D108E008F1010188468142FADB1AF84A
:1046500008100029F6D105985B46A0EB0807214613
:104660003846179A00F094FA284400EB080507E052
:104670004DE029E10DE01AF8010B5A4617999047D1
:10468000B8F10108F7D25B4621463846179A13E184
:1046900042E00A220092C4F302524FF0000A022ABA
:1046A00008D059F804CB032A4FEAEC710AD00DE088
:1046B00029E02AE009F1070121F00702F2E802C12E
:1046C000914609E00FFA8CFC4FEAEC71042A03D101
:1046D0004FFA8CFC4FEAEC71002907DA0A460021F8
:1046E000DCF1000C61EB02012D2202E0220504D571
:1046F0002B228DF80420012203E0E20701D02022C2
:10470000F7E7904659E00A2102E010220DE010215F
:104710004FF0000A00910BE010224FF0000A44F025
:1047200004040827009203E008224FF0000A0092D8
:10473000C4F30252022A05D059F804CB0021032AFF
:1047400008D009E009F1070121F00702F2E802C1EF
:10475000914605E01FFA8CFC042A01D10CF0FF0CF5
:104760004FF00008220728D5702806D0009B83F060
:10477000100353EA0A0305D00EE040228DF804200E
:10478000012208E05CEA010206D030228DF8042004
:104790008DF8050002229046009B83F0080353EA3F
:1047A0000A030AD15CEA010201D1620705D5302271
:1047B0008DF804204FF001087F1E582804D034A043
:1047C00003900EA802900DE036A0F9E7534660462C
:1047D000009AFBF77DFD84460398825C0298401E98
:1047E000029002705CEA0100F0D1029806A9081A52
:1047F00000F1200A600702D524F4803400E001278C
:10480000574502DDA7EB0A0000E0002000EB0A019B
:10481000009005984144401A0590E00306D45B4699
:104820002146179A059800F0B3F90544002706E0E1
:1048300001A85A46C05D179990476D1C7F1C4745DB
:10484000F6DBE0030CD55B462146179A059800F08D
:104850009FF9054404E030205A46179990476D1C93
:104860000099481E00900029F5DC08E002980299A2
:104870005A460078491C0291179990476D1CBAF16D
:104880000001AAF1010AF1DC65E10000092801003C
:1048900030313233343536373839616263646566B6
:1048A0000000000030313233343536373839414278
:1048B000434445460000000000F058F90544761CCA
:1048C000307800287FF4ECAD19B02846BDE8F08FB1
:1048D000620700D4062709F1070222F0070CFCE862
:1048E0000223E14603F000485FEA080C02D00FF211
:1048F000702C0DE05FEA045C02D50FF2682C07E033
:104900005FEAC47C02D00FF2602C01E0AFF2700CC1
:104910004FF0FF3823F00043CDF850C065280CD08D
:1049200006DC452809D046281DD047283DD13DE06A
:10493000662818D067287ED138E00021112F01DBCE
:10494000112000E0781CCDE9000106A90EA8FFF7B0
:10495000DDFCDDE90F010E9A03910021009207F1C1
:10496000010A04914DE04FF000400097CDE901109D
:1049700006A90EA8FFF7CAFCDDE90F0203920E9B01
:1049800011990022DDF80CA00093049211B9791C52
:1049900000EB010AB7EB0A0004D4C0F1FF3007F1C5
:1049A000010A0490AAEB0700019044E0012F00DA0D
:1049B00001270021112F01DD112000E03846CDE94B
:1049C000000106A90EA8FFF7A1FCDDE90F010E9A70
:1049D0000391002104910092BA4621070CD4039957
:1049E000514500DA8A46BAF1010F05DD009AAAF1B5
:1049F0000101515C302908D0B84202DA10F1040FED
:104A000006DA0121CDE9011015E0AAF10101E9E77B
:104A1000002805DC049901440491AAEB000102E09E
:104A2000411C514500DD8A460499401A401C019002
:104A30004FF000400290200704D40198504501DB5C
:104A4000CDF8048000208DF84F0002980DF14F073B
:104A5000B0F1004F25D02B200E9002984FF00208A5
:104A600000280CDA404202902D200E9007E00A2127
:104A70000298FBF770FC3031029007F8011DB8F185
:104A80000001A8F10108F2DC02980028EFD1791E9C
:104A90000E980870307800F0200040F0450007F8CC
:104AA000020D12A8C01B00F107081498007800B18D
:104AB000012000EB0A01019801EBE07105984144E7
:104AC000401A401E0590E00306D45B462146179A23
:104AD000059800F05DF805441498007818B15A461E
:104AE000179990476D1CE00324D55B462146179A21
:104AF000059800F04DF805441CE00498002807DBF9
:104B0000DDE90301884203DD0098405C179901E06C
:104B1000179930205A469047049805F10105401C2A
:104B200004900198401E019004D12E205A461799F6
:104B300090476D1CBAF10001AAF1010ADDDC05E025
:104B400017F8010B5A46179990476D1CB8F10001F0
:104B5000A8F10108F4DC5B462146179A0598ABE6FC
:104B60002D0000002B000000200000002DE9F04186
:104B7000044600251E461746880404D405E039463D
:104B80002020B0476D1C641EF9D52846BDE8F08191
:104B90002DE9F041044600251E469046C80301D584
:104BA000302700E02027880404D505E04146384638
:104BB000B0476D1C641EF9D52846BDE8F0810A682F
:104BC000531C0B601070704730B50446002504E09C
:104BD0004FF47A7000F004F86D1CA542F8D330BD94
:104BE00070B5034600224FF0E02675690D4E366819
:104BF00003FB06F44FF0E026B16910E04FF0E02629
:104C0000B06988420BD0884202D20E1A324402E0C8
:104C10002E1A0E4432440146A24200D300E0EDE7D2
:104C200000BF70BD080000242DED028B86B09FED03
:104C3000FD0AB0EE408A9FEDFB0AF0EE408AFCF7D9
:104C4000F5F8FFF70FF9FFF799F94FF4C870FFF780
:104C50008BF9FDF7F8F9FDF741FCFBF749FE9FEDF5
:104C6000F20A38EE000ADFEDF10A30EE600ADFEDFD
:104C7000F00A80EE201A9FEDEF0A21EE000ABDEE49
:104C8000C00A10EE100A86B23046FBF763FE9FEDB5
:104C9000E60A38EE800ADFEDE50A30EE600A9FEDA5
:104CA000E41AC0EE010A9FEDE30A20EE800ABDEE91
:104CB000C00A10EE100A86B23046FBF752FE1F20E3
:104CC000DD490860DDA010210B464FF4A072CDE94C
:104CD00000100A214620FFF755F80020D649086049
:104CE000DCA010210B464FF4A072CDE900103C214E
:104CF0004620FFF747F8DDA010210B464FF4A072C5
:104D0000CDE9001050214620FFF73CF8B7EEC80A65
:104D100053EC102BDBA102A8FFF7B8FA02A8102170
:104D20000B464FF4A072CDE900103C21AA20FFF7FA
:104D300029F8B7EEE80A53EC102BD2A102A8FFF72E
:104D4000A5FA02A810210B464FF4A072CDE900107D
:104D50005021AA20FFF716F84FF47840B6490860B2
:104D6000CAA010210B464FF4A072CDE900107821A3
:104D70003220FFF707F8CDA010210B464FF4A072A8
:104D8000CDE900108C213220FEF7FCFF0020AA495B
:104D90000860D8E10020FDF765F90446012C5CD1DC
:104DA0009FEDCA0A38EE000AB0EE408A9FED9E0AD7
:104DB000B4EEC08AF1EE10FA03DD9FED9B0AB0EE6F
:104DC000408AB7EEC80A53EC102BAEA102A8FFF739
:104DD0005DFA02A810210B464FF4A072CDE9001035
:104DE0003C21AA20FEF7CEFF9FED8F0A38EE000A85
:104DF000DFED8E0A30EE600ADFED8D0AB4EEE00AD8
:104E0000F1EE10FA02DD4FF6FF7522E09FED860A03
:104E100038EE000ADFED850A30EE600AB5EEC00A12
:104E2000F1EE10FA01D2002513E09FED7F0A38EE73
:104E3000000ADFED7E0A30EE600A9FED7D1AC0EEBB
:104E4000010A9FED7C0A20EE800ABCEEC00A10EE3B
:104E5000105AA8B2FBF77EFD75E1022C5CD19FEDE4
:104E60009B0A38EE400AB0EE408A9FED990AB4EEF4
:104E7000C08AF1EE10FA03D29FED950AB0EE408A97
:104E8000B7EEC80A53EC102B7EA102A8FFF7FEF97B
:104E900002A810210B464FF4A072CDE900103C216E
:104EA000AA20FEF76FFF9FED600A38EE000ADFEDE3
:104EB0005F0A30EE600ADFED5E0AB4EEE00AF1EE62
:104EC00010FA02DD4FF6FF7522E09FED570A38EE2B
:104ED000000ADFED560A30EE600AB5EEC00AF1EEC8
:104EE00010FA01D2002513E09FED4F0A38EE000AB8
:104EF000DFED4E0A30EE600ADFED4D0A80EE201A3B
:104F00009FED4C0A21EE000ABCEEC00A10EE105ACA
:104F1000A8B2FBF71FFD16E1032C5CD19FED6B0AD5
:104F200038EE800AF0EE408A9FED3F0AF4EEC08A28
:104F3000F1EE10FA03DD9FED3C0AF0EE408AB7EE89
:104F4000E80A53EC102B4FA102A8FFF79FF902A823
:104F500010210B464FF4A072CDE900105021AA2079
:104F6000FEF710FF9FED300A38EE800ADFED2F0AC2
:104F700030EE600ADFED2E0AB4EEE00AF1EE10FA30
:104F800002DD4FF6FF7522E09FED270A38EE800A1A
:104F9000DFED260A30EE600AB5EEC00AF1EE10FA37
:104FA00001D2002513E09FED200A38EE800ADFEDE4
:104FB0001F0A30EE600ADFED1E0A80EE201A9FED18
:104FC0001D0A21EE000ABCEEC00A10EE105AA8B26B
:104FD000FBF7C7FCB7E0042C7CD19FED3C0A38EE10
:104FE000C00AF0EE408A9FED3A0AF4EEC08AF1EE74
:104FF00010FA03D29FED360AF0EE408AB7EEE80AC7
:1050000053EC102B1FA102A8FFF740F902A81021B2
:105010000B464FF4A072CDE900105021AA20FEF7F4
:10502000B1FE58E00000000000401C46000010C225
:1050300000409C4600FF7F47200000244441433845
:105040003536332054657374204578706572696D08
:10505000656E740043484120566F6C746167653A11
:105060002020202020202020202000004348422013
:10507000566F6C746167653A202020202020202024
:105080002020000025392E33666D56004B313A2022
:105090004348412B3130306D5620204B323A20436B
:1050A00048412D3130306D56000000004B333A201E
:1050B0004348422B3130306D5620204B343A204348
:1050C00048422D3130306D56000000000000C842CB
:1050D00000401CC637E01FED2C0A38EE800A5FED59
:1050E0002D0A30EE600A5FED2E0AB4EEE00AF1EE12
:1050F00010FA02DD4FF6FF7522E01FED350A38EE9B
:10510000800A5FED360A30EE600AB5EEC00AF1EEB5
:1051100010FA01D2002513E01FED3D0A38EE800A97
:105120005FED3E0A70EE600A1FED3F1A80EE810AC5
:105130005FED400A20EE200ABCEEC00A10EE105AC5
:10514000A8B2FBF70EFC25E60100020004000600F1
:1051500008000A000C001000200040008000000140
:10516000010002000400060008000A000C00100004
:105170002000400080000001000000000102030444
:1051800001020304060708090100020004000600EA
:1051900008000A000C001000200040008000000100
:1051A000010002000400060008000A000C001000C4
:1051B00020004000800000010100020004000800FF
:1051C000010002000400060008000A000C001000A4
:1051D00020004000800000010100020004000600E1
:1051E00008000A000C0010002000400080000001B0
:1051F00000000000000000000000000000000000AF
:105200003F4000000000000000003000400030007F
:105210004000000009000BC03D000BC03D0009002C
:1052200018C024407FE0224031800000180024C0D4
:105230001B000D803240018003801C4027401C80F1
:105240000740004010006000000000000000000067
:105250000000000000001F8020404020000040208F
:1052600020401F8000000000090006001F8006008B
:1052700009000000040004003F8004000400000056
:1052800000100060000000000000000004000400A6
:1052900004000400040000000000004000000000C2
:1052A00000000000002001C006003800400000009F
:1052B0001F802040204020401F8000000000104040
:1052C0003FC000400000000018C0214022402440A0
:1052D0001840000010802040244024401B80000023
:1052E00002000D0011003FC0014000003C8024403E
:1052F00024402440238000001F8024402440344068
:10530000038000003000200027C03800200000008B
:105310001B802440244024401B8000001C0022C02D
:10532000224022401F8000000000000008400000D2
:105330000000000000000000046000000000000009
:10534000000004000A00110020804040090009000C
:105350000900090009000000000040402080110001
:105360000A00040018002000234024001800000058
:105370001F802040274029401F400000004007C0F8
:1053800039000F0001C0004020403FC024402440AD
:105390001B8000001F802040204020403080000003
:1053A00020403FC0204020401F80000020403FC0E0
:1053B00024402E4030C0000020403FC024402E003A
:1053C000300000000F001080204022403380020097
:1053D00020403FC0040004003FC020402040204047
:1053E0003FC02040204000000060202020203FC01F
:1053F0002000200020403FC024400B0030C020404F
:1054000020403FC020400040004000C03FC03C0062
:1054100003C03C003FC0000020403FC00C402300C0
:105420003FC020001F802040204020401F800000FF
:1054300020403FC024402400180000001F8021406D
:10544000214020E01FA0000020403FC02440260053
:1054500019C0004018C02440244022403180000080
:10546000300020403FC020403000000020003F803E
:10547000004000403F80200020003E0001C00700A7
:1054800038002000380007C03C0007C0380000008A
:10549000204039C0060039C02040000020003840BC
:1054A00007C0384020000000304021C0264038406E
:1054B00020C00000000000007FE0402040200000ED
:1054C000000070000C00038000400000000040203D
:1054D00040207FE00000000000002000400020008D
:1054E000000000000010001000100010001000105C
:1054F00000000000400000000000000000000280EA
:105500000540054003C0004020003FC00440044067
:1055100003800000000003800440044006400000B7
:1055200000000380044024403FC00040000003808E
:105530000540054003400000000004401FC0244017
:1055400024402000000002E00550055006500420D1
:1055500020403FC00440040003C00040000004405D
:1055600027C000400000000000100010041027E0D9
:105570000000000020403FC00140070004C004407C
:10558000204020403FC000400040000007C0040011
:1055900007C0040003C00000044007C0044004002A
:1055A00003C000400000038004400440038000006A
:1055B000041007F004500440038000000000038042
:1055C0000440045007F00010044007C002400400EB
:1055D00004000000000006400540054004C0000033
:1055E000000004001F800440004000000400078009
:1055F0000040044007C000400400070004C00180D0
:1056000006000400060001C0070001C006000000FB
:10561000044006C0010006C004400000041007104A
:1056200004E00180060004000000044005C00640BC
:10563000044000000000000004007BE04020000067
:10564000000000000000FFF000000000000040200B
:105650007BE00400000000004000800040002000CB
:1056600020004000000000000000000000000000DA
:10567000000000000000000000001FCC000C000033
:10568000000000000000080030006000080030004A
:1056900060000000022003FC1E20022003FC1E20EC
:1056A0000220000000000E1811043FFF10840C7847
:1056B000000000000F0010840F3800C00778188425
:1056C0000078000000780F8410C411240E9800E4C4
:1056D000008400080800680070000000000000005E
:1056E0000000000000000000000007E0181820047F
:1056F00040020000000040022004181807E00000EB
:10570000000000000240024001800FF001800240D2
:10571000024000000080008000800FF800800080C0
:10572000008000000001000D000E000000000000DD
:1057300000000000000000800080008000800080E9
:10574000008000800000000C000C00000000000041
:105750000000000000000006001800600180060044
:1057600018002000000007F00808100410040808C2
:1057700007F000000000080408041FFC00040004F7
:105780000000000000000E0C1014102410441184BE
:105790000E0C000000000C181004110411041288F3
:1057A0000C700000000000E00320042408241FFC0B
:1057B0000024000000001F981084110411041088B8
:1057C00010700000000007F0088811041104188808
:1057D0000070000000001C00100010FC13001C00F2
:1057E0001000000000000E38114410841084114491
:1057F0000E38000000000700088C10441044088890
:1058000007F00000000000000000030C030C000083
:105810000000000000000000000101060000000080
:105820000000000000000080014002200410080871
:105830001004000002200220022002200220022088
:10584000022000000000100408080410022001409B
:105850000080000000000E001200100C106C108080
:105860000F00000003E00C1813E4142417C40828E8
:1058700007D000000004003C03C41C40074000E4C3
:10588000001C000410041FFC1104110411040E88F4
:105890000070000003E00C1810041004100410083D
:1058A0001C10000010041FFC100410041004080851
:1058B00007F0000010041FFC1104110417C41004A9
:1058C0000818000010041FFC1104110017C010007C
:1058D0000800000003E00C181004100410441C78A9
:1058E0000040000010041FFC108400800080108421
:1058F0001FFC10040000100410041FFC100410040E
:105900000000000000030001100110011FFE100044
:105910001000000010041FFC110403801464181C04
:105920001004000010041FFC100400040004000414
:10593000000C000010041FFC1F0000FC1F001FFCD7
:105940001004000010041FFC0C04030000E01018F9
:105950001FFC100007F008081004100410040808C9
:1059600007F0000010041FFC1084108010801080CD
:105970000F00000007F0081810241024101C080A5B
:1059800007F2000010041FFC1104110011C01130B7
:105990000E0C000400000E1C11041084108410442E
:1059A0001C3800001800100010041FFC1004100028
:1059B0001800000010001FF8100400040004100478
:1059C0001FF8100010001E0011E0001C0070138072
:1059D0001C0010001FC0103C00E01F0000E0103C45
:1059E0001FC000001004180C163401C001C016348A
:1059F000180C100410001C00130400FC13041C00FD
:105A0000100000000804101C1064108413041C040F
:105A1000101800000000000000007FFE400240025D
:105A200040020000000030000C0003800060001CF9
:105A30000003000000004002400240027FFE000020
:105A40000000000000000000200040004000400076
:105A50002000000000010001000100010001000120
:105A60000001000100004000400020000000000094
:105A7000000000000000009801240144014401449A
:105A800000FC000410001FFC0088010401040088D1
:105A9000007000000000007000880104010401048F
:105AA0000088000000000070008801040104110853
:105AB0001FFC0004000000F80144014401440144BB
:105AC00000C800000000010401040FFC11041104CF
:105AD00011001800000000D601290129012901C97F
