:020000040800F2
:1000000068060024AD020008115100085F320008A4
:100010000D510008ED08000811580008000000000C
:10002000000000000000000000000000E75400088D
:10003000A50900080000000013510008E954000859
:10004000C7020008C7020008C7020008C70200086C
:10005000C7020008C7020008C7020008C70200085C
:10006000C7020008C7020008C7020008C70200084C
:10007000C7020008C7020008C7020008C70200083C
:10008000C7020008C7020008C7020008C70200082C
:10009000C7020008C7020008C7020008C70200081C
:1000A000C7020008C7020008C7020008C70200080C
:1000B000C7020008C7020008C7020008C7020008FC
:1000C000C7020008C7020008C7020008C7020008EC
:1000D000C7020008C1570008C7020008C70200088D
:1000E000C7020008C702000800000000C70200089D
:1000F000C7020008C7020008C7020008C7020008BC
:10010000C7020008C7020008C7020008C7020008AB
:10011000C7020008C7020008C7020008C70200089B
:10012000C7020008C7020008C7020008C70200088B
:10013000C7020008C7020008C7020008C70200087B
:1001400000000000000000000000000000000000AF
:10015000C7020008C7020008C7020008C70200085B
:10016000C7020008C7020008C7020008C70200084B
:10017000C7020008C7020008C7020008C70200083B
:10018000C7020008C7020008C7020008C70200082B
:10019000C7020008C7020008C7020008C70200081B
:1001A000C7020008C7020008C7020008C70200080B
:1001B000C7020008C7020008C7020008C7020008FB
:1001C000C7020008C7020008C7020008C7020008EB
:1001D000C7020008C7020008C7020008C7020008DB
:1001E000C7020008C7020008C7020008C7020008CB
:1001F000C7020008C7020008C7020008C7020008BB
:10020000C7020008C7020008C7020008C7020008AA
:10021000C7020008C7020008C7020008C70200089A
:10022000C7020008C7020008C7020008000000005B
:10023000C7020008C702000800000000C70200084B
:10024000C7020008C7020008C7020008C70200086A
:10025000C7020008C7020008C7020008C70200085A
:10026000C7020008C7020008C7020008C70200084A
:10027000C7020008C7020008C7020008000000000B
:10028000C702000800000000C702000800000000CC
:1002900000000000C7020008DFF80CD000F048FAA8
:1002A00000480047B16100086806002406488047FE
:1002B00006480047FEE7FEE7FEE7FEE7FEE7FEE74B
:1002C000FEE7FEE7FEE7FEE7C955000899020008D1
:1002D0002DE9F05F0546002092469B46884606467B
:1002E000814640241BE0284641464746224600F00E
:1002F00057F853465A46C01A914110D31146184632
:10030000224600F03EF82D1A67EB01084F462246C0
:100310000120002100F035F817EB00094E41201EA6
:10032000A4F10104DFDC484631462A464346BDE8D5
:10033000F09FD2B201E000F8012B491EFBD27047BA
:100340000022F6E710B513460A4604461946FFF7A1
:10035000F0FF204610BD30B50B460146002020229C
:10036000012409E021FA02F59D4205D303FA02F5C2
:10037000491B04FA02F52844151EA2F10102F1DC22
:1003800030BD202A04DB203A00FA02F10020704739
:100390009140C2F1200320FA03F3194390407047C3
:1003A000202A04DB203A21FA02F00021704721FACA
:1003B00002F3D040C2F12002914008431946704731
:1003C0002DE9FE4F804681EA0300C00F0C460090E5
:1003D00021F0004123F00045B8EB0200A94105D20D
:1003E0004046214690461C460B46024623F00040FC
:1003F000104347D0270DC7F30A00C3F30A510290F8
:10040000401A019040286BDAC3F3130040F4801BBC
:100410000098924620B10023D2EB030A63EB0B0B4A
:1004200001985946C0F140025046FFF7AAFF064620
:100430000D4650465946019A00F08CF910EB080021
:100440006141002487EA115284EAE7731A4340D0DD
:10045000009A62B3019A012A4FEA075215DC001B89
:1004600061EB02014FF0004202EA0752CDE900427F
:10047000001C41F5801132462B4600F08CF903B088
:10048000BDE8F08F40462146F9E7001B61EB020111
:10049000001C41F5801300185B412018A2F50017DD
:1004A00047EB030140EAD570B6196D4111E06D08C4
:1004B0004FEA360645EAC0754FEA0752001B61EB6A
:1004C0000201001C41F5801149084FEA3000001973
:1004D000514132462B4603B0BDE8F04F00F04CB915
:1004E0000098012240000023D0EB020263EBE0738E
:1004F000009821464FEAE074B8EB000061EB04017C
:10050000E9E783F000435BE781F0004158E72DE91C
:10051000FE4F81EA030404F0004421F000410094FE
:100520004FF0000B23F0004350EA01045ED052EA82
:1005300003045BD0C3F30A54C1F30A552C44A4F25C
:10054000F3340194A0FB0254C1F3130141F4801170
:10055000C3F3130343F4801301FB024400FB034E77
:10056000840A970A44EA815447EA8357A4FB076840
:1005700002958D0A05FB07854FEA932C04FB0C546A
:100580002705029D4FEA065847EA1637B5EB0805DE
:100590006EEB070C870E920E47EA811742EA831230
:1005A000A7FB0201B6EB0B0164EB00042B0D43EA41
:1005B0000C335E1844EB1C50DA465146E7FB02014F
:1005C000C5F313044FEA0B3343EA14534FEA0432E2
:1005D000019C43EA0603A4F10C040294009CCDE9BB
:1005E00000B400F0D8F803B0BDE8F08F0020014659
:1005F000F9E72DE9F04D81EA030404F0004B21F006
:10060000004514464FF0000A23F0004150EA05026D
:1006100020D054EA01021DD0C5F30A570246C5F3A3
:100620001303C1F31300C1F30A5640F4801543F4D9
:100630008013A7EB0608101BD64608F2FD3873EBB3
:10064000050002D308F1010801E092185B41B8F1FE
:10065000000F03DA00200146BDE8F08D00204FF4C2
:100660008011064684460EE0171B73EB050705D381
:10067000121B63EB050306434CEA010C49084FEAE1
:10068000300092185B4150EA0107EDD152EA0300B5
:1006900012D082EA040083EA0501084305D0101B4A
:1006A000AB4106D20122002306E000224FF00043B6
:1006B00002E06FF0010253101AEB06004CEB0851F8
:1006C00010EB0A0041EB0B01BDE8F04D00F054B80F
:1006D000C1F30A52C1F3130140F2FF3341F4801118
:1006E0009A4202DA00200146704740F233439A42B0
:1006F000A2F2334202DC5242FFF752BEFFF741BE84
:1007000030B5041E71F1000404DB4FF00044404298
:1007100064EB0101141E73F1000405DB1C464FF06D
:100720000043524263EB0403994208BF904230BD3C
:10073000064C074D06E0E06840F0010394E807002E
:1007400098471034AC42F6D3FFF7AAFDB8AE0008C4
:10075000D8AE0008202A06DBCB17203A41FA02F077
:1007600043EAE07306E041FA02F3D040C2F120020E
:10077000914008431946704710B5141E73F10004E8
:1007800008DA401C41F1000192185B411A4301D183
:1007900020F0010010BD2DE9F04D92469B4611B1AD
:1007A000B1FA81F202E0B0FA80F220329046FFF70F
:1007B000E8FD04460F4640EA0A0041EA0B015346B1
:1007C0005A46084313D0114653EA010019D0C8F124
:1007D00040025046FFF7E4FD05460E465046594696
:1007E0004246FFF7CEFD084305D0012004E0204635
:1007F0003946BDE8F08D0020054346EAE0762C43FB
:1008000037430A986305E40AA0EB08000022FD0ABA
:1008100044EA47540A3002D500200146E9E70105C1
:1008200010196941DDE9084500196941BDE8F04D3D
:10083000A2E7000010B586B0044600BF6CB900BF47
:100840002748006840F01000254908600846006805
:1008500000F01000009000BF2FE0012C0DD100BF70
:100860001F48006840F010001D49086008460068F5
:1008700000F01000009000BF1FE0012C0DD100BF60
:100880001748006840F010001549086008460068E5
:1008900000F01000009000BF0FE0022C0DD100BF4F
:1008A0000F48006840F010000D49086008460068D5
:1008B00000F01000009000BF00BF00BF094830F8F2
:1008C0001400019000200290012003900320049066
:1008D000054951F8240001A900F076F906B010BDD1
:1008E000E0440258406700080C00002400BFFEE707
:1008F00010B51D481D4908604FF480004860002174
:100900001A4881601721C1604FF000710161002118
:1009100041614FF000518161C1610021016241627A
:100920008162C16241638163C16301644164816426
:10093000C16401654FF0004141650021816501F00E
:10094000BBFE0A480068006840F0010007490968DA
:100950000860074800F020F8064800F01DF8064837
:1009600000F01AF810BD000000380040E00100243B
:1009700003002000030030000100380010B50446D9
:1009800044F4C01000F008F810BD10B5044644F45B
:10099000C81000F001F810BD10B50446204604F060
:1009A000E9FC10BD7047000070B504461D460023E9
:1009B000B5F5804F13D154F822300C480340D1E9EB
:1009C000000640EA06108E6840EA06208E8940EA5A
:1009D00006408E693043034344F8223003E06FF051
:1009E000704044F82200002070BD00000000F0CFED
:1009F00010B502460023086852F820301B48034017
:100A0000D1E901042043CC6820430C6920434C69A0
:100A100020438C692043CC6920430C6A20434C6AF4
:100A200020438C6A2043CC6A20430C6B20438C6BA0
:100A300020434C6B204303438868082801D143F0CE
:100A40004003086842F82030086BB0F5801F05D1DC
:100A5000086818B110680C6B20431060086818B162
:100A600010684C6B20431060002010BD8004C0FF54
:100A700030B5034614460022601C53F8202002F0D3
:100A80004042D1E9000540EA05108D6840EA0520A2
:100A90008D8940EA0545088A401E45EA0055087DD3
:100AA000801E45EA00608D6928430243601C43F8BC
:100AB0002020186800F4801038B1586820F47002C3
:100AC000088A401E42EA00525A60002030BD0000F1
:100AD00010B504460CB9012010BD94F83500022869
:100AE00003D0802060650120F6E734492068884201
:100AF00005D333492068884201D8012000E0002056
:100B0000C0B1042084F835002C49206888420AD3FB
:100B10002B492068884206D82068006820F0010030
:100B20002168086048E02068006820F00100216822
:100B3000086041E02068006820F00E00216808602D
:100B40001E49206888420AD31D492068884206D879
:100B50002068006820F001002168086005E0206836
:100B6000006820F0010021680860206E006820F411
:100B70008070216E086094F85C1001208840114953
:100B80000860D4E919104860E06E40B1E06E00687A
:100B900020F48070E16E0860D4E91C10486000BF4A
:100BA000002084F8340000BF012084F83500206D57
:100BB00010B12046216D884700208DE710000240CB
:100BC000B804024004540258F8B502460B4600210E
:100BD000002600240020824D00BFFCE0012707FA18
:100BE00001F61F6807EA0604B4427CD15F68022F51
:100BF00002D05F68122F1AD14FEAD10C02F1200700
:100C000057F82C004F074FEAD76C0F2707FA0CF75D
:100C1000B8434FEA417C4FEADC6C1F6907FA0CF7D6
:100C200038434FEAD10C02F1200747F82C00106836
:100C30004FEA410C032707FA0CF7B8431F7907F076
:100C400003074FEA410C07FA0CF7384310605F685E
:100C5000012F08D05F68022F05D05F68112F02D0E6
:100C60005F68122F17D190684FEA410C032707FAEB
:100C70000CF7B8434FEA410CDF6807FA0CF738432A
:100C80009060506801278F40B8431F79C7F3001761
:100C90008F4038435060D0684FEA410C032707FA71
:100CA0000CF7B8434FEA410C9F6807FA0CF738433A
:100CB000D0605F6807F08057B7F1805F95D100BFC3
:100CC000484F3F6847F00207DFF818C1CCF80070C2
:100CD00067463F6807F00207009700BF00BF424F1A
:100CE0004FEA910C00E075E057F82C008F074FEAAF
:100CF000177C0F2707FA0CF7B8433C4FBA4201D1D3
:100D000000272DE03A4FBA4201D1012728E0394FA0
:100D1000BA4201D1022723E0374FBA4201D103275B
:100D20001EE0364FBA4201D1042719E0344FBA42CF
:100D300001D1052714E0334FBA4201D106270FE055
:100D4000314FBA4201D107270AE0304FBA4201D1F0
:100D5000082705E02E4FBA4201D1092700E00A27F3
:100D60004FEA817C4FEA1C7C07FA0CF738431E4F90
:100D70004FEA910C47F82C002868A0435F6807F4FD
:100D80008037B7F5803F00D1204328606868A043D2
:100D90005F6807F40037B7F5003F00D12043686073
:100DA0004FF0B0473868A0435F6807F48017B7F585
:100DB000801F00D120434FF0B04738607868A043CF
:100DC0005F6807F40017B7F5001F00D120434FF00C
:100DD000B0477860491C1029FFF400AFF8BD00004F
:100DE00080000058F44402580804005800000258DB
:100DF0000004025800080258000C02580010025863
:100E00000014025800180258001C02580020025812
:100E100000240258024613690B400BB1012000E088
:100E2000002070470AB1018300E041837047000051
:100E30000148006870470000300000240348006843
:100E400003490978084401490860704730000024CC
:100E50003800002410B5032000F0D2F80F2000F075
:100E600007F808B1012010BD00F08CF80020FAE767
:100E700070B504460E4800784FF47A71B1FBF0F07B
:100E80000C490968B1FBF0F5284602F02FF808B1CB
:100E9000012070BD102C07D200222146501E00F008
:100EA00072F80548046001E00120F2E70020F0E755
:100EB0003800002400000024340000244178154A42
:100EC00011600178F9B1121D41681160017B0907B9
:100ED000C27A41EA0261827A41EAC241427B41EA36
:100EE0008241827B41EA4241C27B41EA0241427A2D
:100EF00041EA0221027A41EA420102781143054A9D
:100F00000832116005E00021024A121D1160121D15
:100F10001160704798ED00E000BF00BF00BFBFF355
:100F20005F8F00BF00BF00BF0548006820F480301D
:100F300003490860002002497031086070470000D2
:100F400024ED00E040F001010D4A11600C497039B8
:100F5000096841F480310A4A703A116000BF00BF4D
:100F600000BFBFF34F8F00BF00BF00BF00BF00BF77
:100F700000BFBFF36F8F00BF00BF00BF704700000E
:100F800094ED00E070472DE9F05F80460D4616466F
:100F900004F054FC074639462A46334601F0070060
:100FA000C0F1070ABAF1040F02D94FF0040A01E0B8
:100FB000C0F1070AD14600F1040ABAF1070F02D2C4
:100FC0004FF0000A01E0A0F1030AD4464FF0010AF5
:100FD0000AFA09FAAAF1010A0AEA020A0AFA0CFA5A
:100FE0004FF0010B0BFA0CFBABF1010B0BEA030BFF
:100FF0004AEA0B042146404604F028FCBDE8F09F75
:1010000000BF00F00702064B19684FF6FF031940B6
:10101000044B0B4343EA0221014B196000BF7047A8
:101020000CED00E00000FA052DE9F0410446002532
:101030000026206800F00060B0F1006F30D1606ED3
:1010400048B1B0F5801F0DD0B0F5001F10D0B0F53D
:10105000401F15D113E0F948006840F40030F7490B
:1010600008600FE00221201D04F054F8054609E055
:10107000022104F1240004F0E5F8054602E001E055
:10108000012500BF00BF55B9EC482430006820F4AA
:101090004010616E0843E9492431086000E02E43A6
:1010A000208800F48070B0F5807F2DD1606D052818
:1010B0001AD2DFE800F0030A10171800DF480068B2
:1010C00040F40030DD49086010E00021201D04F0EC
:1010D00021F805460AE0002104F1240004F0B2F8EA
:1010E000054603E002E001E0012500BF00BF55B95D
:1010F000D2482430006820F00700616D0843CF49D2
:101100002431086000E02E43208800F40070B0F520
:10111000007F33D1A06D802817D003DC40B1402878
:101120001CD10CE0C02817D0B0F5807F16D114E098
:10113000C248006840F40030C049086010E0002157
:10114000201D03F0E7FF05460AE0002104F124001A
:1011500004F078F8054603E002E001E0012500BF55
:1011600000BF55B9B5482430006820F4E070A16D87
:101170000843B2492431086000E02E43208800F47F
:101180008060B0F5806F38D1D4F8A400B0F5800F3E
:1011900019D004DC50B1B0F5001F1DD10DE0B0F541
:1011A000C00F17D0B0F5000F16D114E0A3480068A7
:1011B00040F40030A149086010E00021201D03F038
:1011C000A9FF05460AE0002104F1240004F03AF8E2
:1011D000054603E002E001E0012500BF00BF5DB964
:1011E00096482C30006820F46000D4F8A41008431E
:1011F00092492C31086000E02E43208800F4006002
:10120000B0F5006F38D1D4F8A800B0F1007F19D044
:1012100004DC50B1B0F1807F1DD10DE0B0F1407F12
:1012200017D0B0F1806F16D114E08448006840F404
:1012300000308249086010E00021201D03F06AFFA1
:1012400005460AE0002104F1240003F0FBFF0546F7
:1012500003E002E001E0012500BF00BF5DB977486F
:101260002C30006820F0E060D4F8A81008437349DF
:101270002C31086000E02E43206800F00070B0F1CF
:10128000007F27D1A06CA0B1102804D0202809D05D
:1012900030280FD10CE06948006840F400306749FD
:1012A000086009E00221201D03F034FF054603E039
:1012B00002E001E0012500BF00BF55B95F482030C2
:1012C000006820F03000A16C08435C4920310860C0
:1012D00000E02E43208800F48050B0F5805F36D1C6
:1012E000E06DB0F5005F19D004DC50B1B0F5805F5F
:1012F0001DD10DE0B0F5405F17D0B0F5804F16D18D
:1013000014E04E48006840F400304C49086010E09A
:101310000021201D03F0FEFE05460AE0002104F135
:10132000240003F08FFF054603E002E001E0012501
:1013300000BF00BF55B941482430006820F4E040A8
:10134000E16D08433D492431086000E02E432088C8
:1013500000F40050B0F5005F34D1206EB0F5403F8E
:101360001DD007DC68B1B0F5803F0BD0B0F5003F71
:1013700018D10DE0B0F5802F12D0B0F5A02F11D10B
:101380000FE011E00121201D03F0C4FE05460BE033
:10139000012104F1240003F055FF054604E003E0B9
:1013A00002E001E0012500BF00BF55B92348243009
:1013B000006820F4E020216E0843204924310860B1
:1013C00000E02E43208800F48040B0F5804F38D1F3
:1013D000D4F8AC00B0F1405F1DD007DC68B1B0F1CB
:1013E000805F0BD0B0F1005F18D10DE0B0F1804FFD
:1013F00012D0B0F1A04F11D10FE011E00121201D5A
:1014000003F088FE05460BE0012104F1240003F0FF
:1014100019FF054604E003E002E001E0012500BFFA
:1014200000BF6DB905482C30006820F0E040D4F8CA
:10143000AC10084301492C31086002E02C440258EA
:101440002E43208800F40040B0F5004F26D1E06E16
:1014500098B1B0F1805F03D0B0F1005F0ED106E02B
:10146000FA48006840F40030F849086008E00121BB
:10147000201D03F04FFE054602E001E0012500BFFC
:1014800000BF55B9F1482430006820F04050E16EAB
:101490000843EE492431086000E02E43206800F044
:1014A0008070B0F1807F27D1606CA0B1012804D09A
:1014B000022809D003280FD10CE0E448006840F46A
:1014C0000030E249086009E00221201D03F022FEFD
:1014D000054603E002E001E0012500BF00BF55B969
:1014E000DA482030006820F00300616C0843D749D7
:1014F0002031086000E02E43206800F48000B0F541
:10150000800F7DD1D248006840F48070D0490860D7
:10151000FFF78EFC074606E0FFF78AFCC01B642835
:1015200001D9032505E0CA48006800F4807000284E
:10153000F2D000BF8DBBC5484430006800F4407055
:10154000B4F8B01001F44071884214D0BF48443060
:10155000006820F44078BD484430006840F4803092
:10156000BA49443108600846006820F480300860B9
:101570000846C0F80080D4F8B000B0F5807F15D1DF
:10158000FFF756FC074609E0FFF752FCC01B41F28B
:101590008831884202D9032507E038E0AB4844305F
:1015A0000068C0F340000028EED000BF4DBB00BF74
:1015B000B4F8B00000F44070B0F5407F0ED1A348FD
:1015C0001C38006820F47C51A24AD4F8B0001040C6
:1015D00041EA10109D491C39086007E09B481C38FF
:1015E000006820F47C5099491C39086097484430C1
:1015F0000068B4F8B010C1F30B010843934901E04F
:1016000006E002E04431086002E02E4300E02E4391
:10161000207800F0010068B3A06F182819D005DC0D
:1016200048B1082808D0102816D10BE0202811D086
:10163000282811D10FE011E00121201D03F06AFDDF
:1016400005460BE0012104F1240003F0FBFD0546F3
:1016500004E003E002E001E0012500BF00BF55B94E
:101660007A482830006820F03800A16F0843774995
:101670002831086000E02E43207800F002000228A4
:1016800028D1606F062815D2DFE800F003040A11A4
:10169000121311E00121201D03F03CFD05460BE073
:1016A000012104F1240003F0CDFD054604E003E030
:1016B00002E001E0012500BF00BF55B963482830B2
:1016C000006820F00700616F084360492831086016
:1016D00000E02E43207800F0040004282AD1D4F83A
:1016E0009000062815D2DFE800F003040A11121357
:1016F00011E00121201D03F00DFD05460BE0012145
:1017000004F1240003F09EFD054604E003E002E03E
:1017100001E0012500BF00BF5DB94C482C300068D6
:1017200020F00700D4F89010084348492C31086095
:1017300000E02E43207800F02000202836D1D4F895
:101740008C00B0F1405F1DD007DC68B1B0F1805F64
:101750000BD0B0F1005F18D10DE0B0F1804F12D086
:10176000B0F1A04F11D10FE011E00021201D03F0D6
:10177000D1FC05460BE0022104F1240003F062FDD8
:10178000054604E003E002E001E0012500BF00BFE0
:101790005DB92E482830006820F0E040D4F88C1065
:1017A00008432A492831086000E02E43207800F0E1
:1017B0004000402836D1D4F89800B0F5406F1DD0D5
:1017C00007DC68B1B0F5806F0BD0B0F5006F18D1B1
:1017D0000DE0B0F5805F12D0B0F5A05F11D10FE041
:1017E00011E00021201D03F095FC05460BE00221CD
:1017F00004F1240003F026FD054604E003E002E0C6
:1018000001E0012500BF00BF5DB910482C30006821
:1018100020F4E050D4F8981008430C492C310860AB
:1018200000E02E43207800F0800080283BD1D4F8DF
:101830009C00B0F5C04F24D00EDCA0B1B0F5005F25
:1018400012D0B0F5804F1FD114E000002C44025894
:1018500000480258FFFCFF0FB0F5004F12D0B0F562
:10186000204F11D10FE011E00021201D03F052FCA8
:1018700005460BE0022104F1240003F0E3FC0546D9
:1018800004E003E002E001E0012500BF00BF4DB924
:10189000B248006820F46040D4F89C100843AF4977
:1018A000086000E02E43207800F00800082816D1D8
:1018B000D4F88000B0F5805F06D1022104F1240045
:1018C00003F0C0FC06430AE0A448001F006820F4AF
:1018D0004050D4F880100843A049091F08602078C0
:1018E00000F01000102814D1D4F89400B0F5807FD7
:1018F00006D1022104F1240003F0A4FC064308E011
:101900009648006820F44070D4F894100843934936
:101910000860206800F40020B0F5002F26D1D4F82C
:10192000A00030B1B0F5803F09D0B0F5003F0ED136
:101930000CE00021201D03F0EDFB054609E002212B
:1019400004F1240003F07EFC054602E001E00125DD
:1019500000BF00BF4DB98148006820F44030D4F882
:10196000A01008437D49086000E02E43206800F481
:101970008020B0F5802F2DD1D4F88400B0F5801FE1
:1019800006D0B0F5001F0CD0B0F5401F11D10FE00C
:1019900072482C38006840F4003070492C390860D7
:1019A00009E0012104F1240003F04CFC054602E0AB
:1019B00001E0012500BF00BF5DB96848001F006855
:1019C00020F44010D4F8841008436449091F0860CB
:1019D00000E02E43206800F48030B0F5803F24D131
:1019E000E06C18B1B0F5803F0FD108E05B482C38AF
:1019F000006840F4003059492C39086007E00221A2
:101A0000201D03F087FB054601E0012500BF00BF54
:101A100055B952480C38006820F48030E16C084316
:101A20004E490C39086000E02E43206800F0005059
:101A3000B0F1005F05D1022104F1240003F002FCA3
:101A40000643206800F40030B0F5003F27D1E06F76
:101A5000A0B1B0F5807F06D0B0F5007F0CD0B0F516
:101A6000407F0CD109E03D482C38006840F400303C
:101A70003A492C39086004E003E002E001E0012566
:101A800000BF00BF55B93548001F006820F4407002
:101A9000E16F08433149091F086000E02E432068C8
:101AA00000F48010B0F5801F09D12C480838006878
:101AB00020F00040216F0843284908390860206859
:101AC00000F08050B0F1805F0AD1244848380068A7
:101AD00020F48040D4F8B410084320494839086005
:101AE000206800F40010B0F5001F09D11B48083829
:101AF000006820F08070A16E08431849083908601A
:101B0000206800F08040B0F1804F11D100BF134831
:101B10004838006820F400401049483908600846F9
:101B20000068D4F8B81008430C494839086000BF71
:101B3000206800F00040B0F1004F09D107480C3890
:101B4000006820F04050216D084304490C390860BA
:101B500016B90020BDE8F0810120FBE75844025887
:101B600070B504460D4600268D48006800F0070059
:101B7000A8420ED28A48006820F00700284388490E
:101B800008600846006800F00700A84201D0012064
:101B900070BD207800F00200022807D1814800685B
:101BA00020F00F00E16808437E490860207800F0CB
:101BB0000100002851D07B48006820F47060A168C3
:101BC0000843784908606068022807D175481838CA
:101BD0000068C0F34040F8B90120D9E760680328E5
:101BE00007D1704818380068C0F34060A0B90120E0
:101BF000CEE76068012807D16A4818380068C0F34A
:101C0000002048B90120C3E7664818380068C0F3CF
:101C1000800008B90120BBE762480838006820F05E
:101C20000700616808435F4908390860FFF700F959
:101C300006466068022811D108E0FFF7F9F8801B1A
:101C400041F28831884201D90320A1E7554808387C
:101C5000006800F038001028EFD13AE060680328EF
:101C600011D108E0FFF7E4F8801B41F28831884287
:101C700001D903208CE74B480838006800F0380091
:101C80001828EFD125E06068012811D108E0FFF79E
:101C9000CFF8801B41F28831884201D9032077E7D1
:101CA00040480838006800F038000828EFD110E0FC
:101CB00008E0FFF7BDF8801B41F28831884201D966
:101CC000032065E737480838006800F0380000282E
:101CD000EFD13348006800F00700A8420ED9304821
:101CE000006820F0070028432D4908600846006876
:101CF00000F00700A84201D0012049E7207800F059
:101D00000400042807D12748006820F070002169EA
:101D1000084324490860207800F00800082809D109
:101D20002048001D006820F07000616908431D49CB
:101D3000091D0860207800F01000102809D119480A
:101D4000001D006820F4E060A16908431549091DE1
:101D50000860207800F02000202809D111480830C0
:101D6000006820F07000E16908430E4908310860FE
:101D700000F01EF80B49096801F470614FF480729D
:101D800092FAA2F2B2FA82F2D140074A515CC840FC
:101D9000064908600F20FFF76BF80020F8E6000006
:101DA0000020005218440258006700080000002478
:101DB00070B5012500EE905A002201210023002475
:101DC000DFED861AB0EE610ADFED841AB0EE611A1B
:101DD0000020834D2D6805F0380535B1082D15D04C
:101DE000102D15D0182D7CD114E07D4D103D2D689F
:101DF000C5F3401545B17A4D103D2D68C5F3C106B8
:101E0000784D25FA06F000E07648E5E07648E3E014
:101E10007648E1E0724D18352D6805F00302704DEB
:101E200018352D68C5F305116D4D1C352D6805F06D
:101E300001036B4D24352D68C5F3CC0515FB03F567
:101E400001EE905AF8EE611AB0EE610A22B1012A51
:101E50004FD0022A7DD16BE0614D103D2D68C5F356
:101E600040152DB35E4D103D2D68C5F3C1065D4D87
:101E700025FA06F4B4FBF1F501EE905AB8EE612AAA
:101E8000DFED5B1AC0EE212A554D20352D68C5F3D4
:101E9000080501EE905AF8EE611A72EEA11AF7EEFB
:101EA000002A71EEA21A62EE211AB0EE611A1FE04A
:101EB0004C4DB5FBF1F501EE905AB8EE612ADFED1D
:101EC0004C1AC0EE212A464D20352D68C5F3080571
:101ED00001EE905AF8EE611A72EEA11AF7EE002A9E
:101EE00000E077E071EEA21A62EE211AB0EE611AFC
:101EF0005EE03D4DB5FBF1F501EE905AB8EE612A7A
:101F0000DFED3B1AC0EE212A354D20352D68C5F393
:101F1000080501EE905AF8EE611A72EEA11AF7EE7A
:101F2000002A71EEA21A62EE211AB0EE611A3FE0A9
:101F30002E4DB5FBF1F501EE905AB8EE612ADFEDBA
:101F40002C1AC0EE212A264D20352D68C5F3080530
:101F500000E00EE001EE905AF8EE611A72EEA11A5E
:101F6000F7EE002A71EEA21A62EE211AB0EE611AA3
:101F70001EE01D4DB5FBF1F501EE905AF8EE612A19
:101F8000DFED1B1A80EE212A154D20352D68C5F393
:101F9000080501EE905AF8EE611A72EE211AB7EEBA
:101FA000002A71EE821A62EEA11AB0EE611A00BF29
:101FB00000BF0B4D20352D68C5F346256D1C00EE86
:101FC000905AF8EE601A81EE212AFCEEC21A11EE48
:101FD000900A01E0044800BF00BF70BD000000008F
:101FE000104402580090D00300093D0040787D0164
:101FF0000000004670B504460025207800F001007E
:10200000002872D0F948006800F0380010280CD081
:10201000F648006800F03800182812D1F34818304C
:10202000006800F0030002280BD1F0481038006867
:10203000C0F3404000286DD0606800286AD10120BC
:1020400070BD00BF6068B0F5803F08D1E748103828
:10205000006840F48030E549103908602EE060687F
:1020600068B9E2481038006820F48030DF49103940
:1020700008600846006820F4802008601EE0606860
:10208000B0F5A02F0DD1D9481038006840F4802059
:10209000D649103908600846006840F4803008606E
:1020A0000CE0D2481038006820F48030CF49103955
:1020B00008600846006820F48020086000BF60685F
:1020C000A0B1FEF7B5FE054608E0FEF7B1FE401BE5
:1020D00041F28831884201D90320B1E7C348103862
:1020E0000068C0F340400028EFD013E0FEF7A0FEE8
:1020F000054608E0FEF79CFE401B41F2883188420D
:1021000001D903209CE7B94810380068C0F340406B
:102110000028EFD1207800F00200022847D1B34810
:10212000006800F0380058B1B048006800F038008E
:1021300018283ED1AD481830006800F00300B8BB45
:10214000AA4810380068C0F3800018B1E06808B9E8
:10215000012075E7A5481038006820F01900E168F3
:102160000843A24910390860FEF762FE054606E002
:10217000FEF75EFE401B022801D9032060E79B4862
:1021800010380068C0F380000028F1D097480C3860
:10219000006820F47C304FF47C3292FAA2F2B2FA5A
:1021A00082F221699140084390490C3908604AE065
:1021B000FFE7E06868B38D481038006820F0190028
:1021C000E1680843894910390860FEF731FE054689
:1021D00006E0FEF72DFE401B022801D903202FE761
:1021E000824810380068C0F380000028F1D07F4892
:1021F0000C38006820F47C304FF47C3292FAA2F262
:10220000B2FA82F221699140084378490C3908609A
:1022100019E076481038006820F001007349103941
:102220000860FEF705FE054606E0FEF701FE401BCE
:10223000022801D9032003E76C4810380068C0F376
:1022400080000028F1D1207800F01000102877D10C
:102250006648006800F0380008280CD06348006821
:1022600000F03800182823D160481830006800F0CA
:10227000030001281CD15D4810380068C0F300201D
:1022800020B1E069802801D00120D9E657480C38F8
:10229000006820F0F8404FF0F84292FAA2F2B2FA49
:1022A00082F2216A9140084350490C39086047E0A6
:1022B000E06958B34D481038006840F080004B4941
:1022C00010390860FEF7B4FD054606E0FEF7B0FDE4
:1022D000401B022801D90320B2E6444810380068A8
:1022E000C0F300200028F1D040480C38006820F0EE
:1022F000F8404FF0F84292FAA2F2B2FA82F2216A62
:102300009140084339490C39086019E037481038C2
:10231000006820F08000354910390860FEF788FD1C
:10232000054606E0FEF784FD401B022801D9032084
:1023300086E62E4810380068C0F300200028F1D14E
:10234000207800F00800082836D16069D0B127480D
:102350006430006840F00100244964310860FEF7F1
:1023600067FD054606E0FEF763FD401B022801D924
:10237000032065E61D4864300068C0F34000002873
:10238000F1D019E019486430006820F001001749C5
:1023900064310860FEF74CFD054606E0FEF748FD97
:1023A000401B022801D903204AE610486430006827
:1023B000C0F340000028F1D1207800F02000202850
:1023C00034D1A069D8B109481038006840F4805071
:1023D000064910390860FEF72BFD054608E0FEF7B8
:1023E00027FD401B022803D9032029E61044025888
:1023F000AF480068C0F340300028F0D016E0AC4889
:10240000006820F48050AA490860FEF711FD0546D7
:1024100006E0FEF70DFD401B022801D903200FE660
:10242000A3480068C0F340300028F2D1207800F0C3
:10243000040004287DD19F48006840F480709D49C5
:102440000860FEF7F5FC054606E0FEF7F1FC401BD0
:10245000642801D90320F3E59648006800F48070F1
:102460000028F2D000BFA068012808D19048703041
:10247000006840F001008E49703108602DE0A068CE
:1024800068B98B487030006820F0010088497031CD
:1024900008600846006820F0040008601DE0A0689D
:1024A00005280DD182487030006840F00400804952
:1024B000703108600846006840F0010008600CE0D8
:1024C0007B487030006820F0010079497031086065
:1024D0000846006820F00400086000BFA068A0B1B2
:1024E000FEF7A6FC054608E0FEF7A2FC401B41F201
:1024F0008831884201D90320A2E56D487030006818
:10250000C0F340000028EFD013E0FEF791FC054631
:1025100008E0FEF78DFC401B41F28831884201D96A
:1025200003208DE5624870300068C0F34000002849
:10253000EFD1606A00287CD05D481030006800F060
:102540003800182876D0606A022874D1584800688C
:1025500020F0807056490860FEF76AFC054606E0E8
:10256000FEF766FC401B022801D9032068E55048AD
:102570000068C0F340600028F2D100BFD4E90A101F
:1025800041EA00104A492831096840F2F332914388
:102590000843474928310860208E401EC0F30800D8
:1025A000616B491E4FF47E4202EA41210843218FAC
:1025B000491ED20102EA014108433C21095D491E3E
:1025C000120202EA0161084339493031086000BF54
:1025D000081D00684FF6F87188434FF6F87292FABA
:1025E000A2F2B2FA82F2A16C914008433049343130
:1025F00008602F482C30006820F00C00216C084344
:102600002B492C3108600846006820F00200616CFC
:10261000084327492C3108600846006840F48030A0
:1026200008600846006840F400300860084600680A
:1026300002E03BE038E01FE040F4802008600846FC
:10264000006840F0010008601948006840F08070A0
:1026500017490860FEF7ECFB054606E0FEF7E8FBCD
:10266000401B022801D90320EAE411480068C0F3A6
:1026700040600028F2D019E00D48006820F080701A
:102680000B490860FEF7D4FB054606E0FEF7D0FBD9
:10269000401B022801D90320D2E405480068C0F39A
:1026A00040600028F2D101E00120C9E40020C7E425
:1026B000004402580048025870B504460025002620
:1026C0000CB9012070BD606A00B900BFA06AB0F506
:1026D000800F00D100BF8E49206888420CD08D4900
:1026E0002068884208D08C492068884204D0E0687D
:1026F0000F2801D90120E5E7204602F0C7FE064673
:1027000083492068884209D082492068884205D0E0
:1027100081492068884201D0082E0DD87C49206864
:10272000884207D07B492068884203D07A492068D4
:10273000884203D1102E01D90120C3E7A06AB0F569
:10274000800F1DD17249206888420DD071492068E0
:10275000884209D070492068884205D0206BB0F5C6
:10276000702F01D90120ADE7206B10B9A0890504B5
:1027700000E0256BE068B0EB154F01D90120A1E71F
:1027800094F8810028B9002084F88000204600F0E9
:10279000C5F8022084F881002068006820F001005C
:1027A00021680860A069B0F1806F0BD16068B0F556
:1027B000800F07D1A06B28B92068006840F48050D2
:1027C00021680860A16AE06908432843E16B084377
:1027D000E168084321688860616A606B0843A16B07
:1027E0000843A16908432169084361690843216AD4
:1027F000084361680843E16C0843A1680843A16C81
:102800000843A16D08432168C860A06AB0F5800F35
:102810004DD1206C012806D12068006840F40040AA
:102820002168086005E02068006820F40040216805
:102830000860606C012806D12068006840F4804080
:102840002168086005E02068006820F48040216865
:1028500008602F49206888420AD02E4920688842A3
:1028600006D02D492068884202D0B5F5702F0ED0D1
:1028700027492068884207D026492068884203D02B
:1028800025492068884209D1B5F5F81F06D120688E
:10289000006840F400502168086005E02068006886
:1028A00020F40050216808602168E06A08646068CC
:1028B00088B9A06A38B92068806820F4C05040F414
:1028C0000060216888602068806820F4C06040F45F
:1028D0008060216888602068006D20F00100216818
:1028E0000865606800F48000B0F5800F07D12068AB
:1028F000C06820F00040616D08432168C860002076
:10290000C4F88400012084F881000020DAE6000089
:102910000030014000380040003C004010B5B6B027
:10292000044600BF1A48006840F0020018490860D9
:102930000846006800F00200019000BF00BF00BF21
:1029400013480830006840F480401149083108609D
:102950000846006800F48040019000BF00BF4FF4BB
:10296000805002900020199002A8FEF75DFB4FF402
:102970003040319002203290012033900320349077
:102980000520359031A90348FEF71EF936B010BD79
:10299000E0440258000402582DE9F84F04468846E6
:1029A00091461D460A9E0027BA4600BF94F8800053
:1029B000012802D10220BDE8F88F012084F88000B0
:1029C00000BFFEF735FA074694F88100012812D0BF
:1029D0006068B0F5800F05D1A06818B994F881003F
:1029E000042808D04FF0020A00BF002084F88000BD
:1029F00000BF5046DFE7B8F1000F03D0B9F1000F78
:102A000000D045B94FF0010A00BF002084F88000D3
:102A100000BF5046CFE794F88100042802D005207B
:102A200084F881000020C4F88400C4F86490A4F8FD
:102A30006A50A4F86850C4F85C80A4F86250A4F806
:102A4000605020676067206840686FF30F0028437C
:102A5000216848602068006840F001002168086033
:102A60006068B0F5800F05D12068006840F4007000
:102A700021680860E0680F284CD942E0B4F8620091
:102A800088B12068406900F0020002280BD1E06D97
:102A9000006821680862E06D001DE065B4F862001E
:102AA000401EA4F86200B4F86A0088B1206840694A
:102AB00048F20801084058B12068006B616E086058
:102AC000606E001D6066B4F86A00401EA4F86A00DB
:102AD000701CB0B1FEF7ACF9C01BB04211D3204658
:102AE00002F056FC00BF002084F8800000BFD4F83C
:102AF000840040F48070C4F88400012084F88100D0
:102B000059E7B4F862000028B8D1B4F86A00002888
:102B1000B4D10FE1E068072871D966E0B4F862002B
:102B200020B32068406900F0020002281ED1B4F8EA
:102B3000620001280ED9E06B60B1E06D0068216889
:102B40000862E06D001DE065B4F86200801EA4F824
:102B500062000BE0E06D008821680884E06D801C55
:102B6000E065B4F86200401EA4F86200B4F86A00A0
:102B700010B32068406900F46040E8B12068406903
:102B800000F4004060B12068006B616E0860606E08
:102B9000001D6066B4F86A00801EA4F86A000BE0AD
:102BA0002068008E616E0880606E801C6066B4F8DC
:102BB0006A00401EA4F86A00701CB0B1FEF738F934
:102BC000C01BB04211D3204602F0E2FB00BF002040
:102BD00084F8800000BFD4F8840040F48070C4F80A
:102BE0008400012084F88100E5E6B4F86200002842
:102BF00094D1B4F86A00002890D19BE0FFE790E000
:102C0000B4F8620058B32068406900F0020002285E
:102C100033D1B4F8620003280FD9E06B40280CD9F7
:102C2000E06D006821680862E06D001DE065B4F8A1
:102C30006200001FA4F862001FE0B4F862000128DF
:102C40000ED9E06B60B1E06D008821680884E06D0A
:102C5000801CE065B4F86200801EA4F862000CE0FD
:102C6000E06D0078216881F82000E06D401CE0658F
:102C7000B4F86200401EA4F86200B4F86A0048B3D9
:102C80002068406900F4604020B32068406900F487
:102C9000004060B12068006B616E0860606E001DCE
:102CA0006066B4F86A00001FA4F86A0020E020689B
:102CB000406900F4C040B0F5005F0CD92068008E78
:102CC000616E0880606E801C6066B4F86A00801EC9
:102CD000A4F86A000CE0206890F83000616E08707B
:102CE000606E401C6066B4F86A00401EA4F86A007A
:102CF000701CB0B1FEF79CF8C01BB04211D3204647
:102D000002F046FB00BF002084F8800000BFD4F82A
:102D1000840040F48070C4F88400012084F88100AD
:102D200049E6B4F8620000287FF46AAFB4F86A009C
:102D30000028F9D13B46002208212046009602F0E7
:102D4000B2FB28B1D4F8840040F02000C4F884001D
:102D5000204602F01DFB00BF002084F8800000BF69
:102D6000012084F88100D4F8840008B1012022E613
:102D7000002020E670B504460E4615460CB9012029
:102D800070BD94F8450028B9002084F8440020461E
:102D900000F024F804F108012068FDF729FE31460F
:102DA000A2682068FDF764FE2946E36AD4E90102BF
:102DB000FDF7FAFDA168206850F8210040F00100FD
:102DC000A268216841F822000348006840F00040F2
:102DD000014908600020D3E70040005210B586B0DA
:102DE000044600BF3448006840F48050324908600F
:102DF0000846006800F48050009000BF00BF00BF8C
:102E00002D480C30006840F008002B490C31086058
:102E10000846006800F00800009000BF00BF00BF37
:102E20000846006840F0100008600846006800F09E
:102E30001000009000BF00BF00BF1F48006840F4B2
:102E400080501D4908600846006800F480500090DA
:102E500000BF00BF4FF400500190012002900020FD
:102E600003900320049001A91448FDF7ADFE4FF430
:102E700080500190012002900020039003200490D4
:102E800001A90E48FDF7A0FE4CF6B3700190022098
:102E9000029001200390032004900C20059001A9CA
:102EA0000648FDF791FE4FF68070019001A9044895
:102EB000FDF78AFE06B010BDD4440258000C02583B
:102EC00000100258042808D14FF0E021096941F0B0
:102ED00004014FF0E022116107E04FF0E0210969A1
:102EE00021F004014FF0E0221161704770B50446F3
:102EF0002546681EB0F1807F01D301200FE0681ED7
:102F00004FF0E02148610F214FF0FF3002F09EFCAE
:102F100000204FF0E021886107200861002070BD8B
:102F20007047704701460022002391F8792091F8FC
:102F30007A3042EA030070472DE9F04104462068E8
:102F4000C569206807682068866805F00F08B8F131
:102F5000000F0DD105F0200050B107F0200010B98E
:102F600006F0805020B1204602F0A4FBBDE8F081BD
:102F7000B8F1000F72D05D48304018B907F4907076
:102F800000287AD005F0010048B107F4807030B114
:102F9000012021680862E06F40F00100E06705F061
:102FA000020048B106F0010030B102202168086239
:102FB000E06F40F00400E06705F0040048B106F05F
:102FC000010030B1042021680862E06F40F0020087
:102FD000E06705F0080078B107F0200028B906F096
:102FE000805010B906F0010030B108202168086255
:102FF000E06F40F00800E067E06F70B305F020007C
:1030000040B107F0200010B906F0805010B1204602
:1030100002F050FBE06F00F0080020B920688068E3
:1030200000F0400018B3204602F024FB20688068BE
:1030300000F04000B8B12068806820F040002168AE
:103040008860606F58B12A48616F0865606FFDF74E
:103050003FFD10B1606F016D88470DE00DE0204627
:10306000FFF75FFF08E02046FFF75BFF04E0204624
:10307000FFF757FF0020E06778E705F4801078B18C
:1030800006F4800060B14FF48010216808622020AF
:1030900084F8790084F87A002046FFF741FF65E75D
:1030A00005F0800048B107F0800010B906F4000078
:1030B00018B1204602F043FB58E705F0400030B15C
:1030C00007F0400018B1204602F0E4FA4EE705F49C
:1030D000000040B107F0804028B12068006820F06F
:1030E00080402168086000BF40E700000100001038
:1030F0005D56000810B5034693F87A00202867D182
:1031000001B10AB9012010BD00BF93F87800012871
:1031100001D10220F7E7012083F8780000BF59664B
:10312000A3F86820A3F86A2000BF9868B0F5805F14
:103130000AD1186920B940F2FF10A3F86C001CE016
:10314000FF20A3F86C0018E0986848B9186918B90E
:10315000FF20A3F86C0010E07F20A3F86C000CE0C7
:103160009868B0F1805F08D1186918B97F20A3F87A
:103170006C0002E03F20A3F86C0000BF0020D8677D
:10318000222083F87A0000BF002083F8780000BF77
:103190001868806840F001001C68A060186800682A
:1031A00000F0005060B11868006840F480701C683E
:1031B00020601868806840F080501C68A06005E0BE
:1031C0001868006840F490701C68206000209AE73E
:1031D000022098E71D4A0168914236D11C490988AE
:1031E00001F4004189BB1A49098801F4804171B199
:1031F000184909780A2903D00021154A118024E0D2
:103200001349098841F40041114A11801DE0114918
:1032100009780D2906D10E49098841F480410C4AEC
:10322000118012E00B490978094A1288C2F30D0295
:10323000094B995406490988491C054A11801146D1
:103240000988C72901DD0021118070470010014065
:10325000280000242A00002498000024704700BFA2
:10326000FEE710B50020FDF7E5FA0120FDF7E2FAD0
:103270000220FDF7DFFA0320FDF7DCFA10BD0000A5
:1032800010B50446012C01D12B4908702A4800785A
:10329000002835D001212948FDF7BCFD70B102217D
:1032A0002648FDF7B7FD48B104212448FDF7B2FDDB
:1032B00020B108212148FDF7ADFD08BB0A2002F02E
:1032C00047FF00201C49087001211C48FDF7A2FDA2
:1032D00008B9012010BD02211848FDF79BFD08B96F
:1032E0000220F7E704211548FDF794FD08B90320F3
:1032F000F0E708211148FDF78DFDD8B90420E9E772
:1033000001210E48FDF786FD012813D102210B484B
:10331000FDF780FD01280DD104210848FDF77AFD55
:10332000012807D108210548FDF774FD012801D1C6
:10333000014908700020CDE71C000024001002584D
:1033400018B50446044800944388028800210846C2
:1033500000F07CF918BD0000880000248B49087239
:10336000032842D1898848F2525291420ED14FF43B
:10337000A071864A1180F02151802C2151812A218F
:1033800091812B21D1816021D180FDE07F49898805
:1033900045F2084291420FD14FF4A0717B4A11804F
:1033A000F021518022215181202191812121D1813F
:1033B00041F20801D180E7E07449898845F2105252
:1033C0009142E2D14FF44871704A11804FF4F0718C
:1033D00051804FF4305151814FF4285191814FF475
:1033E0002C51D181A021D180CEE0042843D167495E
:1033F000898848F2525291420ED14FF4A071634A2B
:103400001180F02151802C2151812A2191812B2181
:10341000D181A021D180B7E05C49898845F208427A
:1034200091420FD14FF4A071584A1180F021518080
:1034300022215181202191812121D18141F2380124
:10344000D180A1E05149898845F2105291429CD126
:103450004FF448714D4A11804FF4F07151804FF490
:10346000305151814FF4285191814FF42C51D18129
:103470006021D18088E0012843D14449898848F2FD
:10348000525291420ED1F021404A11804FF4A07166
:1034900051802C2151812A2191812B21D181C02160
:1034A000D18071E03949898845F2084291420FD1B3
:1034B000F021364A11804FF4A071518022215181B0
:1034C000202191812121D1814FF48151D1805BE074
:1034D0002E49898845F21052914255D14FF4F0712E
:1034E0002A4A11804FF4487151804FF43051518174
:1034F0004FF4285191814FF42C51D181C021D180BA
:1035000042E02249898848F2525291420ED1F0217C
:103510001E4A11804FF4A07151802C2151812A2123
:1035200091812B21D1810021D1802DE017498988FB
:1035300045F2084291420FD1F021144A11804FF414
:10354000A071518022215181202191812121D1819D
:1035500041F21001D18017E00C49898845F21052E0
:10356000914211D14FF4F071084A11804FF4487123
:1035700051804FF4305151814FF4285191814FF4D3
:103580002C51D1810021D180704700008800002497
:1035900070B504460D4616462A48808848F25251B6
:1035A000884214D12749888901F046FD201201F094
:1035B00037FDE0B201F034FD2249C88901F03CFD3D
:1035C000281201F02DFDE8B201F02AFD32E01D487D
:1035D000808845F20841884206D101231A462946CF
:1035E000204601F01BFB25E01648808845F210516B
:1035F00088421FD11349888901F01EFD201201F075
:103600000FFD10498989491C88B201F015FDE0B20F
:1036100001F006FD0B49C88901F00EFD281201F0EA
:10362000FFFC0849C989491C88B201F005FDE8B2D0
:1036300001F0F6FC0348408903490880891C0E808C
:1036400070BD000088000024FEFF01602DE9F84FE6
:1036500004460D4616461F46DDF8289000200090CF
:1036600083462348808845F2084188421ED1781B52
:1036700083B2301B82B22946204601F0CFFA01F016
:10368000EDFC00BF05E01FFA89F001F0E1FC0BF151
:10369000010B781B311B48435845F4D81448438824
:1036A00002880021084601F0B9FA1EE0301B401CD8
:1036B00080B20090A84616E04146204601F056FA36
:1036C00001F0CCFC4FF0000A06E00A49A1F8009096
:1036D0000AF101001FFA80FA00988245F5DB08F133
:1036E00001001FFA80F8B845E6DDBDE8F88F00005C
:1036F000880000240000026000B58FB0FD48FE493C
:103700000860FE484860002088600021FA48C160D7
:1037100001611021416100218161C16101624FF4A9
:1037200080514162002181624FF48041C1620021D9
:10373000016341634FF480118163102008900120E0
:1037400009904D200A9000200E9005200190012044
:103750000290052003900020079001AA08A9E648DE
:10376000FFF708FB0A2002F0F3FC00224FF400618F
:10377000E348FDF757FB0A2002F0EAFC012211039F
:10378000DF48FDF74FFB0A2002F0E2FC042001F0C5
:10379000E1F901F0D5F9DB49888001F0D1F9D94987
:1037A0008880084680884FF6FF7101EA0020D549DD
:1037B000888001F0C5F9D34989880843D1498880B8
:1037C0000846808848F25251884248D0002001F0D3
:1037D000C1F9CC4988800846808845F20841884272
:1037E0003DD04FF4704001F027FC552001F018FC4B
:1037F0004FF2010001F020FCAA2001F011FC4FF271
:10380000020001F019FC522001F00AFC4FF2030003
:1038100001F012FC082001F003FC4FF2040001F05B
:103820000BFC012001F0FCFB4FF4454001F092F944
:1038300001F086F9B3498880084680884FF6FF7109
:1038400001EA0020AF4988804CF2015001F082F972
:1038500001F076F9AB4989880843AA498880A948CC
:10386000808848F2525188427ED1112001F0E4FB59
:10387000782002F06DFC362001F0DEFB002001F024
:10388000CFFB3A2001F0D8FB052001F0C9FBB220A4
:1038900001F0D2FB0C2001F0C3FB0C2001F0C0FBB7
:1038A000002001F0BDFB332001F0BAFB332001F012
:1038B000B7FBB72001F0C0FB352001F0B1FBBB2006
:1038C00001F0BAFB282001F0ABFBC02001F0B4FBF3
:1038D0002C2001F0A5FBC22001F0AEFB012001F07D
:1038E0009FFBC32001F0A8FB0B2001F099FBC42033
:1038F00001F0A2FB202001F093FBC62001F09CFB0D
:103900000F2001F08DFBD02001F096FBA42001F0E8
:1039100087FBA12001F084FBE02001F08DFBD0208B
:1039200001F07EFB012001F07BFB082001F078FB19
:103930000F2001F075FB112001F072FB2A2001F02D
:103940006FFB362001F06CFB552001F069FB442031
:1039500001F066FB3A2001F063FB0B2001F060FBF5
:10396000062001F05DFB00E04BE0112001F058FB68
:10397000202001F055FBE12001F05EFBD02001F09A
:103980004FFB022001F04CFB072001F049FB0A200D
:1039900001F046FB0B2001F043FB182001F040FB37
:1039A000342001F03DFB432001F03AFB4A2001F0B6
:1039B00037FB2B2001F034FB1B2001F031FB1C20D6
:1039C00001F02EFB222001F02BFB1F2001F028FB31
:1039D000292001F031FB2C2001F02EFB0320FFF702
:1039E000BDFC362001F028FB4649C88801F018FBD1
:1039F0004448438802880021084601F00FF901F08D
:103A000082B84048808845F2084188427CD14FF412
:103A10008071012001F02CFB4FF4E061022001F0E5
:103A200027FB41F23001032001F022FB002104209A
:103A300001F01EFB40F20221082001F019FB0021D9
:103A4000092001F015FB00210A2001F011FB0021E3
:103A50000C2001F00DFB00210D2001F009FB0021DD
:103A60000F2001F005FB0021102001F001FB0021D7
:103A7000112001F0FDFA0021122001F0F9FA0021D5
:103A8000132001F0F5FAC82002F062FB0721112093
:103A900001F0EEFA322002F05BFB41F2B02110207F
:103AA00001F0E6FA322002F053FB40F2BD11122081
:103AB00001F0DEFA322002F04BFB4FF4A05113204C
:103AC00001F0D6FA0E21292001F0D2FA322002F0BC
:103AD0003FFB0021202001F0CBFA40F23F112120D2
:103AE00001F0C6FA40F60D31302001F0C1FA41F67E
:103AF00023110AE0004000523C000024044100521F
:103B0000000C025888000024ACE0312001F0B0FA2B
:103B100041F62641322001F0ABFA42F21C6133201B
:103B200001F0A6FA42F21941342001F0A1FA40F660
:103B30000B51352001F09CFA41F20601362001F0CC
:103B400097FA4FF4C261372001F092FA40F2067101
:103B5000382001F08DFA4FF44171392001F088FAD4
:103B600040F605613A2001F083FA40F601613B20FE
:103B700001F07EFA4FF487713C2001F079FA40F2AF
:103B80000E513D2001F074FA40F203413E2001F055
:103B90006FFA40F207613F2001F06AFA00215020DD
:103BA00001F066FAEF21512001F062FA0021522063
:103BB00001F05EFA40F23F11532001F059FA4FF440
:103BC0002741602001F054FA0121612001F050FAF0
:103BD00000216A2001F04CFA0021802001F048FA0F
:103BE0000021812001F044FA0021822001F040FAF6
:103BF0000021832001F03CFA0021842001F038FAF2
:103C00000021852001F034FA1021902001F030FAD3
:103C10000021922001F02CFA0321932001F028FAD0
:103C20004FF48871952001F023FA0021972001F0CC
:103C30001FFA0021982001F01BFA0320FFF78EFBEA
:103C4000FE48C188032001F013FA4FF48971072060
:103C500001F00EFAF948438802880021084600F076
:103C6000DDFFCCE6F548808845F210518842F8D156
:103C7000322002F06DFA55214FF4704001F0F8F94E
:103C8000AA214FF2010001F0F3F952214FF2020094
:103C900001F0EEF908214FF2030001F0E9F90121EA
:103CA0004FF2040001F0E4F986214BF6014001F0E7
:103CB000DFF96A214BF6024001F0DAF986214BF672
:103CC000015001F0D5F96A214BF6025001F0D0F90C
:103CD00067214BF6016001F0CBF900214FF4514010
:103CE00001F0C6F95D214DF2011001F0C1F900218A
:103CF0004DF2021001F0BCF96B214DF2031001F0FE
:103D0000B7F900214DF2041001F0B2F984214DF20F
:103D1000051001F0ADF900214DF2061001F0A8F9EF
:103D20009C214DF2071001F0A3F900214DF208107B
:103D300001F09EF9B1214DF2091001F099F900212D
:103D40004DF20A1001F094F9D9214DF20B1001F057
:103D50008FF900214DF20C1001F08AF9FD214DF28E
:103D60000D1001F085F901214DF20E1001F080F9DE
:103D700038214DF20F1001F07BF901214DF21010A6
:103D800001F076F968214DF2111001F071F901216D
:103D90004DF2121001F06CF9B9214DF2131001F03F
:103DA00067F901214DF2141001F062F9FB214DF287
:103DB000151001F05DF902214DF2161001F058F9CD
:103DC00063214DF2171001F053F902214DF2181042
:103DD00001F04EF9B9214DF2191001F049F9022113
:103DE0004DF21A1001F044F9BB214DF21B1001F005
:103DF0003FF903214DF21C1001F03AF903214DF275
:103E00001D1001F035F903214DF21E1001F030F9BB
:103E100046214DF21F1001F02BF903214DF2201025
:103E200001F026F969214DF2211001F021F9032159
:103E30004DF2221001F01CF98F214DF2231001F0F8
:103E400017F903214DF2241001F012F9A4214DF2CB
:103E5000251001F00DF903214DF2261001F008F9AB
:103E6000B9214DF2271001F003F903214DF228107A
:103E700001F0FEF8C7214DF2291001F0F9F80321F5
:103E80004DF22A1001F0F4F8C9214DF22B1001F087
:103E9000EFF803214DF22C1001F0EAF8CB214DF29E
:103EA0002D1001F0E5F803214DF22E1001F0E0F89D
:103EB000CB214DF22F1001F0DBF803214DF2301031
:103EC00001F0D6F8CB214DF2311001F0D1F80321E9
:103ED0004DF2321001F0CCF8CC214DF2331001F04C
:103EE000C7F800214FF4524001F0C2F85D214DF2B5
:103EF000012001F0BDF800214DF2022001F0B8F8D8
:103F00006B214DF2032001F0B3F800214DF20420A3
:103F100001F0AEF884214DF2052001F0A9F800214E
:103F20004DF2062001F0A4F89C214DF2072001F08B
:103F30009FF800214DF2082001F09AF8B1214DF2CE
:103F4000092001F095F800214DF20A2001F090F8C7
:103F5000D9214DF20B2001F08BF800214DF20C20FD
:103F600001F086F8FD214DF20D2001F081F80121CC
:103F70004DF20E2001F07CF838214DF20F2001F0B7
:103F800077F801214DF2102001F072F868214DF20E
:103F9000112001F06DF801214DF2122001F068F8B6
:103FA000B9214DF2132001F063F801214DF21420E4
:103FB00001F05EF8FB214DF2152001F059F80221C5
:103FC0004DF2162001F054F863214DF2172001F054
:103FD0004FF802214DF2182001F04AF8B9214DF2B4
:103FE000192001F045F802214DF21A2001F040F8A5
:103FF000BB214DF21B2001F03BF803214DF21C20A8
:1040000001F036F803214DF21D2001F031F80321B3
:104010004DF21E2001F02CF846214DF21F2001F038
:1040200027F803214DF2202001F022F869214DF2FA
:10403000212001F01DF8032102E000008800002487
:104040004DF2222001F014F88F214DF2232001F0CF
:104050000FF803214DF2242001F00AF8A4214DF2BB
:10406000252001F005F803214DF2262001F000F88B
:10407000B9214DF2272000F0FBFF03214DF228204B
:1040800000F0F6FFC7214DF2292000F0F1FF0321D7
:104090004DF22A2000F0ECFFC9214DF22B2000F058
:1040A000E7FF03214DF22C2000F0E2FFCB214DF27F
:1040B0002D2000F0DDFF03214DF22E2000F0D8FF6F
:1040C000CB214DF22F2000F0D3FF03214DF2302001
:1040D00000F0CEFFCB214DF2312000F0C9FF0321CB
:1040E0004DF2322000F0C4FFCC214DF2332000F01D
:1040F000BFFF00214FF4534000F0BAFF5D214DF2A5
:10410000013000F0B5FF00214DF2023000F0B0FFA9
:104110006B214DF2033000F0ABFF00214DF2043073
:1041200000F0A6FF84214DF2053000F0A1FF002130
:104130004DF2063000F09CFF9C214DF2073000F05C
:1041400097FF00214DF2083000F092FFB1214DF2AF
:10415000093000F08DFF00214DF20A3000F088FF99
:10416000D9214DF20B3000F083FF00214DF20C30CD
:1041700000F07EFFFD214DF20D3000F079FF0121AE
:104180004DF20E3000F074FF38214DF20F3000F088
:104190006FFF01214DF2103000F06AFF68214DF2EF
:1041A000113000F065FF01214DF2123000F060FF88
:1041B000B9214DF2133000F05BFF01214DF21430B4
:1041C00000F056FFFB214DF2153000F051FF0221A7
:1041D0004DF2163000F04CFF63214DF2173000F025
:1041E00047FF02214DF2183000F042FFB9214DF295
:1041F000193000F03DFF02214DF21A3000F038FF77
:10420000BB214DF21B3000F033FF03214DF21C3077
:1042100000F02EFF03214DF21D3000F029FF032195
:104220004DF21E3000F024FF46214DF21F3000F009
:104230001FFF03214DF2203000F01AFF69214DF2DB
:10424000213000F015FF03214DF2223000F010FF65
:104250008F214DF2233000F00BFF03214DF224306B
:1042600000F006FFA4214DF2253000F001FF0321EC
:104270004DF2263000F0FCFEB9214DF2273000F05F
:10428000F7FE03214DF2283000F0F2FEC7214DF277
:10429000293000F0EDFE03214DF22A3000F0E8FE57
:1042A000C9214DF22B3000F0E3FE03214DF22C30FA
:1042B00000F0DEFECB214DF22D3000F0D9FE0321BF
:1042C0004DF22E3000F0D4FECB214DF22F3000F015
:1042D000CFFE03214DF2303000F0CAFECB214DF26B
:1042E000313000F0C5FE03214DF2323000F0C0FE47
:1042F000CC214DF2333000F0BBFE00214FF454408E
:1043000000F0B6FE5D214DF2014000F0B1FE00214B
:104310004DF2024000F0ACFE6B214DF2034000F084
:10432000A7FE00214DF2044000F0A2FE84214DF2D0
:10433000054000F09DFE00214DF2064000F098FE81
:104340009C214DF2074000F093FE00214DF2084001
:1043500000F08EFEB1214DF2094000F089FE0021EF
:104360004DF20A4000F084FED9214DF20B4000F0DE
:104370007FFE00214DF20C4000F07AFEFD214DF24F
:104380000D4000F075FE01214DF20E4000F070FE70
:1043900038214DF20F4000F06BFE01214DF210402C
:1043A00000F066FE68214DF2114000F061FE01212F
:1043B0004DF2124000F05CFEB9214DF2134000F0C6
:1043C00057FE01214DF2144000F052FEFB214DF248
:1043D000154000F04DFE02214DF2164000F048FE5F
:1043E00063214DF2174000F043FE02214DF21840C8
:1043F00000F03EFEB9214DF2194000F039FE0221D5
:104400004DF21A4000F034FEBB214DF21B4000F08B
:104410002FFE03214DF21C4000F02AFE03214DF235
:104420001D4000F025FE03214DF21E4000F020FE4D
:1044300046214DF21F4000F01BFE03214DF22040AB
:1044400000F016FE69214DF2214000F011FE03211B
:104450004DF2224000F00CFE8F214DF2234000F07F
:1044600007FE03214DF2244000F002FEA4214DF28C
:10447000254000F0FDFD03214DF2264000F0F8FD3F
:10448000B9214DF2274000F0F3FD03214DF2284001
:1044900000F0EEFDC7214DF2294000F0E9FD0321B7
:1044A0004DF22A4000F0E4FDC9214DF22B4000F00E
:1044B000DFFD03214DF22C4000F0DAFDCB214DF25F
:1044C0002D4000F0D5FD03214DF22E4000F0D0FD2F
:1044D000CB214DF22F4000F0CBFD03214DF23040B7
:1044E00000F0C6FDCB214DF2314000F0C1FD0321AB
:1044F0004DF2324000F0BCFDCC214DF2334000F0D3
:10450000B7FD00214FF4554000F0B2FD5D214DF2A2
:10451000015000F0ADFD00214DF2025000F0A8FD69
:104520006B214DF2035000F0A3FD00214DF2045029
:1045300000F09EFD84214DF2055000F099FD002110
:104540004DF2065000F094FD9C214DF2075000F012
:104550008FFD00214DF2085000F08AFDB1214DF28F
:10456000095000F085FD00214DF20A5000F080FD59
:10457000D9214DF20B5000F07BFD00214DF20C5083
:1045800000F076FDFD214DF20D5000F071FD01218E
:104590004DF20E5000F06CFD38214DF20F5000F03E
:1045A00067FD01214DF2105000F062FD68214DF2CF
:1045B000115000F05DFD01214DF2125000F058FD48
:1045C000B9214DF2135000F053FD01214DF214506A
:1045D00000F04EFDFB214DF2155000F049FD022187
:1045E0004DF2165000F044FD63214DF2175000F0DB
:1045F0003FFD02214DF2185000F03AFDB9214DF275
:10460000195000F035FD02214DF21A5000F030FD36
:10461000BB214DF21B5000F02BFD03214DF21C502D
:1046200000F026FD03214DF21D5000F021FD032175
:104630004DF21E5000F01CFD46214DF21F5000F0BF
:1046400017FD03214DF2205000F012FD69214DF2BB
:10465000215000F00DFD03214DF2225000F008FD25
:104660008F214DF2235000F003FD03214DF2245021
:1046700000F0FEFCA4214DF2255000F0F9FC0321CE
:104680004DF2265000F0F4FCB9214DF2275000F015
:10469000EFFC03214DF2285000F0EAFCC7214DF257
:1046A000295000F0E5FC03214DF22A5000F0E0FC17
:1046B000C9214DF22B5000F0DBFC03214DF22C50B0
:1046C00000F0D6FCCB214DF22D5000F0D1FC03219F
:1046D0004DF22E5000F0CCFCCB214DF22F5000F0CB
:1046E000C7FC03214DF2305000F0C2FCCB214DF24B
:1046F000315000F0BDFC03214DF2325000F0B8FC07
:10470000CC214DF2335000F0B3FC00214FF4564061
:1047100000F0AEFC5D214DF2016000F0A9FC00212B
:104720004DF2026000F0A4FC6B214DF2036000F03A
:104730009FFC00214DF2046000F09AFC84214DF2B0
:10474000056000F095FC00214DF2066000F090FC41
:104750009C214DF2076000F08BFC00214DF20860B7
:1047600000F086FCB1214DF2096000F081FC0021CF
:104770004DF20A6000F07CFCD9214DF20B6000F094
:1047800077FC00214DF20C6000F072FCFD214DF22F
:104790000D6000F06DFC01214DF20E6000F068FC30
:1047A00038214DF20F6000F063FC01214DF21060E2
:1047B00000F05EFC68214DF2116000F059FC01210F
:1047C0004DF2126000F054FCB9214DF2136000F07C
:1047D0004FFC01214DF2146000F04AFCFB214DF228
:1047E000156000F045FC02214DF2166000F040FC1F
:1047F00063214DF2176000F03BFC02214DF218607E
:1048000000F036FCB9214DF2196000F031FC0221B4
:104810004DF21A6000F02CFCBB214DF21B6000F041
:1048200027FC03214DF21C6000F022FC03214DF215
:104830001D6000F01DFC03214DF21E6000F018FC0D
:1048400046214DF21F6000F013FC03214DF2206061
:1048500000F00EFC69214DF2216000F009FC0321FB
:104860004DF2226000F004FC8F214DF2236000F035
:10487000FFFB03214DF2246000F0FAFBA4214DF26E
:10488000256000F0F5FB03214DF2266000F0F0FBFF
:10489000B9214DF2276000F0EBFB03214DF22860B7
:1048A00000F0E6FBC7214DF2296000F0E1FB032197
:1048B0004DF22A6000F0DCFBC9214DF22B6000F0C4
:1048C000D7FB03214DF22C6000F0D2FBCB214DF23F
:1048D0002D6000F0CDFB03214DF22E6000F0C8FBEF
:1048E000CB214DF22F6000F0C3FB03214DF230606D
:1048F00000F0BEFBCB214DF2316000F0B9FB03218B
:104900004DF2326000F0B4FBCC214DF2336000F088
:10491000AFFB24214FF43A4000F0AAFB24214BF6D0
:10492000012000F0A5FB24214BF6022000F0A0FBA3
:1049300024214FF4394000F09BFB24214BF6011059
:1049400000F096FB24214BF6021000F091FB55215C
:104950004FF4704000F08CFBAA214FF2010000F0F0
:1049600087FB52214FF2020000F082FB08214FF238
:10497000030000F07DFB00214FF2040000F078FB03
:10498000CC214FF4314000F073FB05214FF43C4043
:1049900000F06EFB05214BF6014000F069FB05219C
:1049A0004BF6024000F064FB01214FF4384000F068
:1049B0005FFB03214BF6010000F05AFB03214BF68D
:1049C000020000F055FB03214BF6030000F050FB02
:1049D00007214BF6025000F04BFB31214BF6035000
:1049E00000F046FB07214BF6026000F041FB31214D
:1049F0004BF6036000F03CFB07214BF6027000F021
:104A000037FB31214BF6037000F032FBAA214FF443
:104A10007F4000F02DFB55214FF6017000F028FB80
:104A200025214FF6027000F023FB01214FF60370A1
:104A300000F01EFB11214FF2043000F019FB102191
:104A40004FF2063000F014FB00214FF2083000F066
:104A50000FFB00214FF4545000F00AFB55214FF496
:104A6000685000F005FB00214FF4285000F000FBD7
:104A7000002142F6012000F0FBFA012142F602205B
:104A800000F0F6FADF2142F6032000F0F1FA0021EF
:104A90004FF42C5000F0ECFA002142F6013000F007
:104AA000E7FA032142F6023000F0E2FA1F2142F653
:104AB000033000F0DDFA4FF4885000F0BDFA0A2010
:104AC00001F046FB4FF4245000F0B6FA052001F047
:104AD0003FFB55214FF4685000F0CAFA60214FF4B3
:104AE000585000F0C5FA0320FEF738FC1248C18880
:104AF0004FF4585000F0BCFA0F4843880288002158
:104B0000084600F08BF80C48808845F21051884226
:104B100005D1012251030948FCF784F905E0002280
:104B20004FF400510548FCF77DF94FF6FF70FEF792
:104B300007FC0FB000BD000088000024000C0258E4
:104B400008B5034800880090BDF8000008BD0000CB
:104B50000000026010B50446204600F06DFA052002
:104B600001F002FBFFF7ECFF10BD000030B504467A
:104B70000D462948808848F25251884214D126496E
:104B8000888900F059FA201200F04AFAE0B200F0E9
:104B900047FA2149C88900F04FFA281200F040FA7C
:104BA000E8B200F03DFA36E01B48808845F2084143
:104BB00088420AD118498889214600F059FA1649D5
:104BC000C889294600F054FA25E01348808845F248
:104BD000105188421FD11049888900F02DFA201207
:104BE00000F01EFA0C498989491C88B200F024FAA9
:104BF000E0B200F015FA0849C88900F01DFA281241
:104C000000F00EFA0449C989491C88B200F014FA70
:104C1000E8B200F005FA30BD880000242DE9FC4F11
:104C200004460D46904699460026B2460027B346F4
:104C30000020019000908A48808848F252518842B2
:104C400032D1264604EB0800401E1FFA80FA2F4698
:104C500005EB0900401E1FFA80FB01960097804972
:104C6000888900F0E9F9301200F0DAF9F0B200F0CA
:104C7000D7F94FEA2A2000F0D3F90AF0FF0000F03C
:104C8000CFF97749C88900F0D7F9381200F0C8F990
:104C9000F8B200F0C5F94FEA2B2000F0C1F90BF093
:104CA000FF0000F0BDF9D5E06D48808845F208416D
:104CB000884273D16A48007A03281CD1684840882A
:104CC000401BA0EB090086B265484088401B401E8F
:104CD0001FFA80FA62480088001BA0EB080087B228
:104CE0005F480088001B401E1FFA80FBCDF804A01F
:104CF000CDF800B040E05A48007A04280ED12E4684
:104D000005EB0900401E1FFA80FA274604EB080055
:104D1000401E1FFA80FB019600972DE05048007A54
:104D2000012814D14E480088001BA0EB080086B271
:104D30004B480088001B401E1FFA80FA2F4605EBE7
:104D400009001FFA80FBCDF804A0009714E0264666
:104D500004EB0800401E1FFA80FA41484088401BBF
:104D6000A0EB090087B23E484088401B401E1FFA56
:104D700080FB0196CDF800B03146502000F078F964
:104D80005146512000F074F93946522000F070F974
:104D90005946532000F06CF95CE0FFE7304880880A
:104DA00045F21051884255D1264604EB0800401EBA
:104DB0001FFA80FA2F4605EB0900401E1FFA80FB00
:104DC000019600972649888900F036F9301200F0E4
:104DD00027F923498989491C88B200F02DF9F0B2DE
:104DE00000F01EF91E498989891C88B200F024F957
:104DF0004FEA2A2000F014F919498989C91C88B2A0
:104E000000F01AF90AF0FF0000F00AF91449C88905
:104E100000F012F9381200F003F91149C989491C50
:104E200088B200F009F9F8B200F0FAF80C49C98923
:104E3000891C88B200F000F94FEA2B2000F0F0F84E
:104E40000749C989C91C88B200F0F6F80BF0FF00C9
:104E500000F0E6F8DDE90010FFF788FEBDE8FC8F02
:104E6000880000242DE9F84F80460F4616461C4660
:104E7000BB462046E31704EB5373DB1021464FEA91
:104E8000E47C04EB5C7C4FEAEC0CA4EBCC0CBCF1B6
:104E9000000F02D04FF0010C01E04FF0000C634412
:104EA000224604EBD27C4FEA6C0C03FB0CF3DBB222
:104EB0000093A6F12000C6B200255EE00C2C07D1BD
:104EC00006EB46002F4901EB800010F805901BE02F
:104ED000102C05D12C4800EB061010F8059013E0BB
:104EE000182C07D106EBC600284901EB800010F80A
:104EF000059009E0202C05D1254800EBC61010F8DC
:104F0000059001E0BDE8F88F4FF0000A2FE009F0AE
:104F1000800030B11F48394602684046FEF738FB32
:104F200007E00A9828B91C48394602684046FEF74F
:104F30002FFB4FEA49604FEA1069781C87B2174887
:104F40004088B84200DCDDE7A7EB0B00A0420AD1A5
:104F50005F4608F101001FFA80F8104800884045BC
:104F600000DCCFE706E00AF1010000F0FF0ABAF129
:104F7000080FCCDB00BF681CC5B2009885429DDBE2
:104F800000BFBFE778670008EC6B0008DC71000821
:104F9000387F00082000002424000024880000241A
:104FA0002DE9F84705460E4690469946DDE9094742
:104FB00005F0FF0A08EB05001FFA80F809EB060070
:104FC0001FFA80F921E0454502DB5546301986B2CB
:104FD0004E4500DB1FE004EBD47105EB61010F4A85
:104FE0001288914202DD0025301986B2002000901F
:104FF0003A78234631462846FFF734FF204604EB33
:10500000D07105EB61018DB27F1C38787E2802DCFF
:1050100038782028D7DA00BFBDE8F8878800002458
:1050200001B5BDF800000090BDF8000001490880FE
:1050300008BD00000000026001B5BDF8000000904E
:10504000BDF800000149088008BD0000FEFF0160B6
:105050000149088070470000000002600248408952
:10506000024908807047000088000024FEFF0160AC
:10507000024A1080921C118070470000FEFF016000
:105080001FB5012000220092CDE901200323122246
:1050900051060390002000F00CF80120002100913F
:1050A000019103231922CDE90210590700F001F8FC
:1050B0001FBD2DE9FF5F04460D4616461F46DDE97C
:1050C00010ABDDE90E89FBF727FF01208DF800000A
:1050D000E0B28DF801000195F0B28DF808000020D3
:1050E0008DF809008DF80A008DF80B708DF80C8092
:1050F0008DF80D908DF80EA08DF80FB06846FBF777
:10510000DDFE0420FBF71EFFBDE8FF9F00BFFEE7AA
:10511000704770472DE9F04104460E460027484885
:10512000006800F00300032802D10120BDE8F081EF
:1051300043482838006820F08060414928390860D9
:10514000FBF776FE054606E0FBF772FE401B0228E1
:1051500001D90320EAE73A4828380068C0F3C06064
:105160000028F1D100BF3648006820F47C30216867
:1051700040EA013032490860A088401EC0F30800B0
:10518000A168491E4FF47E4202EA41210843A189E9
:10519000491ED20102EA01410843217C491E120244
:1051A00002EA0161084326491031086000BF244823
:1051B000001D006820F0C000616908432049091DF6
:1051C00008600846006820F02000A16908431C49D7
:1051D000091D08602EB90846006840F400200860E8
:1051E00012E0012E08D11648001D006840F480101E
:1051F0001349091D086007E01148001D006840F4CC
:1052000000100F49091D08600D482838006840F05B
:1052100080600B4928390860FBF70AFE054606E066
:10522000FBF706FE401B022801D903207EE7044855
:1052300028380068C0F3C0600028F1D0384675E710
:10524000284402582DE9F04104460E4600274848FC
:10525000006800F00300032802D10120BDE8F081BE
:1052600043482838006820F08050414928390860B8
:10527000FBF7DEFD054606E0FBF7DAFD401B0228E2
:1052800001D90320EAE73A4828380068C0F34070A3
:105290000028F1D100BF3648006820F07C702188DA
:1052A00040EA015032490860A088401EC0F308005F
:1052B000A168491E4FF47E4202EA41210843A189B8
:1052C000491ED20102EA01410843217C491E120213
:1052D00002EA0161084326491831086000BF2448EA
:1052E000001D006820F44060616908432049091DE1
:1052F00008600846006820F40070A16908431C4952
:10530000091D08602EB90846006840F48000086056
:1053100012E0012E08D11648001D006840F400007C
:105320001349091D086007E01148001D006840F09E
:1053300080700F49091D08600D482838006840F04A
:1053400080500B4928390860FBF772FD054606E0DE
:10535000FBF76EFD401B022801D903207EE70448BD
:1053600028380068C0F340700028F1D0384675E74F
:105370002844025801B582B04FF47A70012301AA83
:1053800002A900900148FDF707FB0EBDE0010024D3
:10539000026851690268926942F0080203689A61E2
:1053A0000268926942F0100203689A61026812680A
:1053B00022F0010203681A600268126940F26B333E
:1053C0009A4303681A610268926822F440420368B3
:1053D0009A6090F88120042A0ED001F020025AB180
:1053E000D0F8842042F08002C0F8842002689269DC
:1053F00042F0200203689A6190F88120032A21D0AC
:1054000001F040025AB1D0F8842042F00402C0F802
:1054100084200268926942F0400203689A61826ABD
:10542000B2F5800F0ED101F080025AB1D0F884207D
:1054300042F00202C0F884200268926942F08002C1
:1054400003689A6101F400725AB1D0F8842042F0E6
:105450000102C0F884200268926942F40072036875
:105460009A6101F480725AB1D0F8842042F00802A7
:10547000C0F884200268926942F4807203689A61DD
:105480000022A0F86220A0F86A20704710B50146FB
:105490000124C86B04EB5013C868421CD01DC2081D
:1054A00002FB03F010BD2DE9F04106460C461746FD
:1054B0009846069D0BE0681C48B12DB1FBF7B8FC7F
:1054C000A0EB0800A84202D90320BDE8F0813068B3
:1054D00040692040A04201D1012000E00020B842F4
:1054E000E9D00020F1E7704710B5FBF7A7FC10BD2D
:1054F00010B504460420FDF7E5FC0148046010BD2A
:105500000800002400B59DB04C210AA8FAF718FF46
:10551000202102A8FAF714FF2A48006820F00400AE
:105520002849086000BF0020019026480C30006820
:1055300040F4404023490C3108600846006800F4FC
:105540004040019000BF00BF00BF1E480C30006803
:1055500000F40050B0F5005FF7D101200A9000047C
:105560000B90022013900221149105211591A02186
:1055700016910221179104211891022119910C21F1
:105580001A9100211B911C910AA8FCF733FD08B168
:1055900000BFFEE73F20029003200390002004900C
:1055A00008200590402006900790000108904020B8
:1055B0000990022102A8FCF7D3FA08B100BFFEE768
:1055C0001DB000BD0C4802582048006840F470002F
:1055D0001E4908601E48006840F001001C49086030
:1055E00000201B491031086019480068194908401B
:1055F000174908600020164918310860091D086025
:10560000091D0860124928310860091D0860091D3C
:105610000860091D0860091D0860091D0860091D52
:105620000860091D08600A48006820F480200849C5
:1056300008600020064960310860012006490860C2
:10564000C0060249803908607047000088ED00E01C
:10565000004402587FEDF6EA0881005170B5054616
:10566000AC6B0020A4F86A00A4F862002046FDF7A5
:1056700058FC70BD0168096821F4907102681160DE
:105680000168896821F0010102689160202180F899
:105690007A10704710B504462068006820F040007A
:1056A00021680860202084F879002046FDF7D6FDA7
:1056B000002010BD2DE9F0410446B4F86C7094F858
:1056C0007A00222833D12068858CA068B0F5805FED
:1056D00009D1206938B9666E05EA07003080606E2E
:1056E000801C606605E0F8B22840626E511C61665D
:1056F0001070B4F86A00401E80B2A4F86A00A0B925
:105700002068006820F49070216808602068806834
:1057100020F0010021688860202084F87A0020466B
:10572000FDF758FD0020BDE8F0810020FBE7206870
:10573000008B40F00800216808830220F3E701464F
:1057400091F87900212839D1B1F86200C8B9086808
:10575000006800F0005030B10868806820F4000054
:105760000B68986005E00868006820F080000B680E
:1057700018600868006840F040000B68186000205E
:1057800070478868B0F5805F0BD1086948B9CA6D69
:105790001088C0F308000B681885C86D801CC865A8
:1057A00005E0CB6D581CC86518780B681885B1F8F2
:1057B0006200401EA1F862000020E1E70220DFE75E
:1057C00070B500240F4D1048FDF7B6FB00BF03E095
:1057D000641CAC4200D904E00B48FDF7A3FB202871
:1057E000F6D100BF002403E0641CAC4200D906E0FF
:1057F000012206490448FDF77DFC0028F4D100BFD2
:1058000070BD0000FFFF0100600100242A00002499
:1058100000BFFEE70FB4084B10B504A902AA039815
:1058200000F0FAF8044602A9002000F08CFC2046A3
:1058300010BC5DF814FB00004761000802480068D6
:10584000C0F30220704700000CED00E010B5002806
:1058500004DB0A07130E054A135406E00A07140E68
:10586000034A00F00F031B1FD45410BD00E400E0F6
:1058700018ED00E002E008C8121F08C1002AFAD1A2
:1058800070477047002001E001C1121F002AFBD1C0
:10589000704700002DE9FF5F82B00021DDE9043090
:1058A000020DDDF840B0034318D044F61050A2F2C8
:1058B000FF3242431514119801281FD0A5EB0B00AD
:1058C000401C5FEA000A4FF000064E4FDFF83891A7
:1058D000B046504615D5CAF1000413E011980124D2
:1058E0004AA3012801D16FEA0B010298119AC0E97D
:1058F0000031C0E9024206B0BDE8F09FCBF10000E4
:10590000DFE704460021404A491842EB0450CDE944
:10591000001012E0E00707D032463B4640464946B9
:10592000FAF7F5FD8046894632463B461046194651
:10593000FAF7EDFD06460F466410002CEAD1DDE9CA
:105940000401DDE90023BAF1000F06DAFAF7DFFD02
:1059500042464B46FAF7DBFD05E0FAF74AFE4246BF
:105960004B46FAF746FE04460E460022284BFAF74D
:10597000C7FE03D84FF0FF30014607E00022254B59
:1059800020463146FAF71CFDFAF7A2FE102409E082
:10599000002C0ADB0A220023FAF79AFC039B303220
:1059A0001A55641E50EA0102F2D1641C039AC4F134
:1059B00011031444119A012A03D0012208430DD186
:1059C0000AE0084304D000204FF0110B119072E759
:1059D000A3EB0B056D1E0DE05B4504DD4FF00002EF
:1059E00005F1010504E003DA4FF00002A5F101051D
:1059F000002AECD002981199C0E90231C0E90045B3
:105A000079E70000000014400000F03F3000000083
:105A10000000F0430000E03F2DE9FF4F95B09B46AA
:105A20008946064600250FE2252877D1002427461F
:105A3000F84A0121059400E0044316F8013F203B99
:105A400001FA03F01042F7D130782A2811D06FF014
:105A50002F033078A0F13002092A16D8059A44F0B5
:105A6000020402EB820203EB42021044761C059012
:105A7000EFE759F8042B0592002A03DA504244F468
:105A80000054059044F00204761C30782E2816D17C
:105A900016F8010F44F004042A280DD06FF02F02ED
:105AA0003078A0F13003092B09D807EB870302EB0C
:105AB0004303C718761CF3E759F8047B761C30784B
:105AC0006C280FD006DC4C2817D068280DD06A2827
:105AD00014D104E0742810D07A280FD10DE044F4DA
