:020000040800F2
:1000000000040020490100085101000853010008C4
:1000100055010008570100085901000800000000C0
:100020000000000000000000000000005B0100086C
:100030005D010008000000005F0100086101000888
:100040006301000863010008630100086301000800
:1000500063010008630100086301000863010008F0
:1000600063010008630100086301000863010008E0
:1000700063010008630100086301000863010008D0
:1000800063010008630100086301000863010008C0
:1000900063010008630100086301000863010008B0
:1000A00063010008630100086301000863010008A0
:1000B0006301000863010008630100086301000890
:1000C0006301000863010008630100086301000880
:1000D0006301000863010008630100086301000870
:1000E0006301000863010008630100086301000860
:1000F0006301000863010008630100086301000850
:10010000630100086301000863010008630100083F
:10011000630100086301000863010008630100082F
:10012000630100086301000863010008630100081F
:10013000DFF810D000F0DEFA00480047710E00082A
:10014000AFF30080000400200648804706480047BF
:10015000FEE7FEE7FEE7FEE7FEE7FEE7FEE7FEE777
:10016000FEE7FEE7F10D00083101000830B480EA37
:10017000010202F0004530F0004221F0004013D0AF
:1001800090B1C30DD40DC2F31601C0F31600E41AEA
:1001900041F4000140F400027D34914201D3641C1B
:1001A00000E04900002C02DA30BC002070474FF418
:1001B00000000023914201D3891A034340084FEA0B
:1001C0004101F7D151B1914202D14FF0004105E018
:1001D00002D24FF0010101E06FF0010103EBC450C6
:1001E000284430BC00F0F1B92DE9FE4F804681EA89
:1001F0000300C00F0C46009021F0004123F00045A1
:10020000B8EB0200A94105D24046214690461C4663
:100210000B46024623F00040104347D0270DC7F39A
:100220000A00C3F30A510290401A019040286BDA89
:10023000C3F3130040F4801B0098924620B10023C2
:10024000D2EB030A63EB0B0B01985946C0F1400255
:10025000504600F099F906460D4650465946019A17
:1002600000F0A1F910EB08006141002487EA115267
:1002700084EAE7731A4340D0009A62B3019A012AD4
:100280004FEA075215DC001B61EB02014FF0004200
:1002900002EA0752CDE90042001C41F580113246C6
:1002A0002B4600F0D8F903B0BDE8F08F4046214658
:1002B000F9E7001B61EB0201001C41F580130018F7
:1002C0005B412018A2F5001747EB030140EAD57007
:1002D000B6196D4111E06D084FEA360645EAC07562
:1002E0004FEA0752001B61EB0201001C41F580112F
:1002F00049084FEA30000019514132462B4603B0FD
:10030000BDE8F04F00F098B90098012240000023AA
:10031000D0EB020263EBE073009821464FEAE074F1
:10032000B8EB000061EB0401E9E783F000435BE711
:1003300081F0004158E72DE9FE4F81EA030404F003
:10034000004421F0004100944FF0000B23F00043E3
:1003500050EA01045ED052EA03045BD0C3F30A54AE
:10036000C1F30A552C44A4F2F3340194A0FB0254C7
:10037000C1F3130141F48011C3F3130343F4801359
:1003800001FB024400FB034E840A970A44EA8154AD
:1003900047EA8357A4FB076802958D0A05FB07858A
:1003A0004FEA932C04FB0C542705029D4FEA065894
:1003B00047EA1637B5EB08056EEB070C870E920E71
:1003C00047EA811742EA8312A7FB0201B6EB0B0151
:1003D00064EB00042B0D43EA0C335E1844EB1C5015
:1003E000DA465146E7FB0201C5F313044FEA0B332B
:1003F00043EA14534FEA0432019C43EA0603A4F192
:100400000C040294009CCDE900B400F024F903B080
:10041000BDE8F08F00200146F9E72DE9F04D81EAB3
:10042000030404F0004B21F0004514464FF0000A8D
:1004300023F0004150EA050220D054EA01021DD009
:10044000C5F30A570246C5F31303C1F31300C1F302
:100450000A5640F4801543F48013A7EB0608101BDE
:10046000D64608F2FD3873EB050002D308F1010807
:1004700001E092185B41B8F1000F03DA0020014659
:10048000BDE8F08D00204FF48011064684460EE052
:10049000171B73EB050705D3121B63EB050306431C
:1004A0004CEA010C49084FEA300092185B4150EACF
:1004B0000107EDD152EA030012D082EA040083EA78
:1004C0000501084305D0101BAB4106D201220023D1
:1004D00006E000224FF0004302E06FF001025310EB
:1004E0001AEB06004CEB085110EB0A0041EB0B0134
:1004F000BDE8F04D00F0A0B896230022114600F0B0
:100500006DB820F00040C10DC0F3160040F40000AB
:100510007F2901DA00207047962903DCC1F196019A
:10052000C840704796398840704700F0004230F06C
:1005300000400AD0C10D01F56071C0F3160042EA17
:100540000151C2084007114370470020014670471F
:1005500001F0004330B421F0004150EA010206D01E
:100560000A0DA2F56072C1F31301002A02DC30BC4F
:1005700000207047440F44EAC104C100E01830BCB9
:1005800000EBC25000F021B8202A04DB203A00FA28
:1005900002F1002070479140C2F1200320FA03F3DA
:1005A000194390407047202A06DBCB17203A41FAC6
:1005B00002F043EAE07306E041FA02F3D040C2F1F0
:1005C000200291400843194670470029A8BF704790
:1005D000401C490008BF20F00100704710B4B0FA79
:1005E00080FC00FA0CF050EA010404BF10BC704714
:1005F00049B1CCF1200421FA04F411FA0CF118BF2E
:10060000012121430843A3EB0C01CB1D4FEA0061FC
:100610004FEA102042BF002010BC704700EBC350CF
:1006200010440029A4BF10BC7047401C490008BFFB
:1006300020F0010010BC704710B5141E73F10004C7
:1006400008DA401C41F1000192185B411A4301D1C4
:1006500020F0010010BD2DE9F04D92469B4611B1EE
:10066000B1FA81F202E0B0FA80F220329046FFF750
:100670008BFF04460F4640EA0A0041EA0B0153464D
:100680005A46084313D0114653EA010019D0C8F165
:100690004002504600F040F805460E465046594686
:1006A0004246FFF771FF084305D0012004E02046D1
:1006B0003946BDE8F08D0020054346EAE0762C433C
:1006C00037430A986305E40AA0EB08000022FD0AFC
:1006D00044EA47540A3002D500200146E9E7010503
:1006E00010196941DDE9084500196941BDE8F04D7F
:1006F000A2E70000064C074D06E0E06840F0010369
:1007000094E8070098471034AC42F6D3FFF714FD85
:100710000010000810100008202A04DB203A21FAFB
:1007200002F00021704721FA02F3D040C2F120020A
:10073000914008431946704721B1826842F0010296
:10074000826003E0826822F0010282607047014605
:1007500000208A6802F004020AB1012000E00020B3
:1007600070470146C86C80B270470246002013688B
:100770000B400BB1012000E0002070470146002033
:100780008A6802F008020AB1012000E000207047E8
:1007900030B502460020002350680F4C20400D79F0
:1007A0000C6844EA05242043506090680B4C2040BC
:1007B000D1E902542C434D7944EA4504204390602A
:1007C000D06A20F470000C7C641EE4B2234340EA3B
:1007D0000350D06230BD0000FFFEF0FFFDF7F1FFD7
:1007E000F0B504460D4600200021092D11DDE0681A
:1007F000A5F10A0606EB4607072606FA07F1884325
:10080000A5F10A0606EB460603FA06F10843E06086
:100810000CE0206905EB4507072606FA07F1884337
:1008200005EB450603FA06F108432061072A0FDAB3
:10083000606B561E06EB86071F2606FA07F18843F3
:10084000561E06EB860605FA06F10843606322E0B1
:100850000D2A0FDA206BD61F06EB86071F2606FA35
:1008600007F18843D61F06EB860605FA06F1084312
:10087000206310E0E06AA2F10D0606EB86071F2652
:1008800006FA07F18843A2F10D0606EB860605FA83
:1008900006F10843E062F0BD816841F00801816023
:1008A000704721B1826842F4A002826003E082684E
:1008B00022F4A00282607047816841F004018160E7
:1008C0007047000010B501210648FFF7EAFF00BF9E
:1008D00002210448FFF749FF0028F9D00148FFF73B
:1008E00040FF10BD0024014000B587B0012148023F
:1008F00000F04EF90121042000F04AF94FF40040C5
:1009000000F02AF900208DF81B000120ADF8180036
:1009100003208DF81A0006A9194800F087F805236E
:10092000012200211748FFF75BFF0020019004908F
:100930004FF46020039000208DF809008DF8080026
:1009400001208DF8140001A90E48FFF721FF0121B5
:100950000C48FFF7F1FE0B48FFF79EFF00BF094868
:10096000FFF70CFF0128FAD00648FFF7A5FF00BFEC
:100970000448FFF7ECFE0128FAD007B000BD0000E4
:10098000000801400024014008B50121082000F0C2
:10099000FFF84FF48050ADF8000010208DF80300F0
:1009A00003208DF8020069460B4800F03FF84FF431
:1009B0008051094800F0C7F800F0FAF80321202020
:1009C00000F01AF80321302000F016F80121382039
:1009D00000F012F808BD0000000C014010B50446FC
:1009E0002146182000F008F810BD10B50446214635
:1009F000192000F001F810BD70B505460C464FF403
:100A00008051094800F09DF8284600F01BF9200AA3
:100A100000F018F9E0B200F015F94FF480510248E7
:100A200000F091F870BD0000000C01402DE9F0418C
:100A3000024600250026002000230024002791F80C
:100A400003C00CF00F0591F803C00CF0100CBCF1C2
:100A5000000F03D091F802C04CEA050591F800C0E0
:100A6000BCF1000F31D0146800202BE04FF0010CD6
:100A70000CFA00F3B1F800C00CEA03069E4220D144
:100A800083004FF00F0C0CFA03F7BC4305FA03FC8C
:100A90004CEA040491F803C0BCF1280F06D14FF0D2
:100AA000010C0CFA00FCC2F814C00AE091F803C073
:100AB000BCF1480F05D14FF0010C0CFA00FCC2F854
:100AC00010C0401C0828D1D31460B1F800C0BCF19C
:100AD000FF0F34DD546800202EE000F1080C4FF0C9
:100AE000010808FA0CF3B1F800C00CEA03069E42B4
:100AF00021D183004FF00F0C0CFA03F7BC4305FA29
:100B000003FC4CEA040491F803C0BCF1280F05D1A2
:100B100000F1080C08FA0CF8C2F8148091F803C030
:100B2000BCF1480F07D100F1080C4FF0010808FA9A
:100B30000CF8C2F81080401C0828CED35460BDE8E1
:100B4000F081416170470161704710B5FFF71CFFEC
:100B5000FFF7CAFE10BD000001460020034A50689E
:100B600020F44040084350607047000000100240ED
:100B700029B1064AD2690243044BDA6104E0034A10
:100B8000D2698243014BDA617047000000100240D5
:100B900029B1064A92690243044B9A6104E0034A70
:100BA00092698243014B9A61704700000010024035
:100BB00000B587B001210820FFF7EAFF0121880373
:100BC000FFF7D6FF4FF46040ADF8180018208DF8FD
:100BD0001B0003208DF81A0006A91848FFF726FF0E
:100BE0004FF460411548FFF7AEFF0020ADF8040058
:100BF0004FF48270ADF806000020ADF80800ADF8A3
:100C00000A000120ADF80C004002ADF80E002020D3
:100C1000ADF810000020ADF812000720ADF8140068
:100C200001A9074800F052F80121054800F034F806
:100C3000FF2000F007F807B000BD0000000C0140E5
:100C40000038004070B50546002405E0601CC4B2C1
:100C5000C82C01DD002070BD02210E4800F028F8EC
:100C60000028F3D029460B4800F02EF8002405E0B8
:100C7000601CC4B2C82C01DD0020ECE7012105484E
:100C800000F016F80028F3D0024800F01AF8C0B2BD
:100C9000E1E700000038004021B1028842F0400244
:100CA000028004E002884FF6BF731A40028070474A
:100CB0000246002013890B400BB1012000E0002008
:100CC00070470146888970478181704710B50022BE
:100CD000028802F441520B884C8823438C882343BA
:100CE000CC8823430C8923434C8923438C89234399
:100CF000CC8923431A430280838B4FF2FF74234035
:100D000083830B8A038210BD10B500F001F810BD7B
:100D10000CB50020019000903348006840F480300A
:100D20003149086000BF3048006800F4003000908E
:100D30000198401C0190009818B90198B0F5A06F77
:100D4000F1D12948006800F4003010B10120009072
:100D500001E0002000900098012843D1234800685A
:100D600040F01000214908600846006820F00300A8
:100D700008600846006840F0020008601A484068B1
:100D8000194948600846406848600846406840F491
:100D9000806048600846406820F47C10486008463F
:100DA000406840F4E81048600846006840F08070F1
:100DB000086000BF0C48006800F000700028F9D0FF
:100DC0000948406820F00300074948600846406829
:100DD00040F00200486000BF0348406800F00C008B
:100DE0000828F9D10CBD000000100240002002408C
:100DF00010B51348006840F001001149086008462A
:100E00004068104908400E494860084600680E498D
:100E100008400B4908600846006820F480200860FC
:100E20000846406820F4FE0048604FF41F008860C8
:100E3000FFF76AFF4FF000600449086010BD000032
:100E4000001002400000FFF8FFFFF6FE08ED00E092
:100E500002E008C8121F08C1002AFAD17047704783
:100E6000002001E001C1121F002AFBD170470000E1
:100E70008EB0FFF76AFE4FF0000A00200C900024AD
:100E800025E0FFF71FFD81464846FFF735FB534934
:100E90000390FFF76BF98346FFF747FB4FF066328D
:100EA0004F4BCDE90401FFF746FACDE90801504662
:100EB000FFF73BFBCDE90601DDE90823FFF794F9D5
:100EC000CDE90A01FFF744FB8246601C84B2322C54
:100ED000D7DB44495046FFF749F90C904FF0000921
:100EE000CA467AE0FFF7EEFC81460C98FFF71DFB3F
:100EF000CDE906014846FFF7FFFA38490190FFF7B0
:100F000035F98346FFF711FB4FF06632344BCDE9DC
:100F10000201FFF710FACDE90401DDE90623FFF72E
:100F200004FA0022304BCDE90801FFF704FACDE9BD
:100F30000A01FFF70DFB82465046FFF7F6FA2B4AEF
:100F40002B4BCDE90201FFF768FA0022294BCDE9CE
:100F50000401FFF749F90022274BCDE90601FFF70D
:100F60005CFA0022254BCDE90801FFF7E4F9CDE951
:100F70000A01FFF7EDFA05462846FFF7C2FA87B2E5
:100F80008AF0004B5846FFF7D0FA184A184BCDE9C3
:100F90000201FFF742FA0022164BCDE90401FFF7E8
:100FA00023F90022144BCDE90601FFF736FA00229F
:100FB000124BCDE90801FFF7BEF9CDE90A01FFF7B1
:100FC000C7FA06463046FFF79CFA1FFA80F8384603
:100FD000FFF704FD4046FFF708FD83E700F07F457B
:100FE00066660A400000484200001440FCA9F1D2A5
:100FF0004D62503F0088C3400088D340E0FFEF407F
:10100000101000080000002000040000600E00081E
:0400000508000131BD
:00000001FF
