:020000040800F2
:10000000F0070024AD020008DB2A0008472A000898
:10001000D72A000877030008DD310008000000003F
:10002000000000000000000000000000B32E0008E7
:100030002304000800000000DD2A0008B52E000897
:10004000C7020008C7020008C7020008C70200086C
:10005000C7020008C7020008C7020008C70200085C
:10006000C7020008C7020008C7020008C70200084C
:10007000C7020008C7020008C7020008C70200083C
:10008000C7020008C7020008C7020008C70200082C
:10009000C7020008C7020008C7020008C70200081C
:1000A000C7020008C7020008C7020008C70200080C
:1000B000C7020008C7020008C7020008C7020008FC
:1000C000C7020008C7020008C7020008C7020008EC
:1000D000C70200088D310008C7020008C7020008E7
:1000E000C7020008C702000800000000C70200089D
:1000F000C7020008C7020008C7020008C7020008BC
:10010000C7020008C7020008C7020008C7020008AB
:10011000C7020008C7020008C7020008C70200089B
:10012000C7020008C7020008C7020008C70200088B
:10013000C7020008C7020008C7020008C70200087B
:1001400000000000000000000000000000000000AF
:10015000C7020008C7020008C7020008C70200085B
:10016000C7020008C7020008C7020008C70200084B
:10017000C7020008C7020008C7020008C70200083B
:10018000C7020008C7020008C7020008C70200082B
:10019000C7020008C7020008C7020008C70200081B
:1001A000C7020008C7020008C7020008C70200080B
:1001B000C7020008C7020008C7020008C7020008FB
:1001C000C7020008C7020008C7020008C7020008EB
:1001D000C7020008C7020008C7020008C7020008DB
:1001E000C7020008C7020008C7020008C7020008CB
:1001F000C7020008C7020008C7020008C7020008BB
:10020000C7020008C7020008C7020008C7020008AA
:10021000C7020008C7020008C7020008C70200089A
:10022000C7020008C7020008C7020008000000005B
:10023000C7020008C702000800000000C70200084B
:10024000C7020008C7020008C7020008C70200086A
:10025000C7020008C7020008C7020008C70200085A
:10026000C7020008C7020008C7020008C70200084A
:10027000C7020008C7020008C7020008000000000B
:10028000C702000800000000C702000800000000CC
:1002900000000000C7020008DFF80CD000F02AF8C8
:1002A0000048004739320008F0070024064880471C
:1002B00006480047FEE7FEE7FEE7FEE7FEE7FEE74B
:1002C000FEE7FEE7FEE7FEE7952F0008990200082B
:1002D000D2B201E000F8012B491EFBD27047002288
:1002E000F6E710B513460A4604461946FFF7F0FF35
:1002F000204610BD064C074D06E0E06840F00103C3
:1003000094E8070098471034AC42F6D3FFF7C8FFD3
:10031000B0320008D032000870B58D1810F8014BCB
:1003200014F0030201D110F8012B231106D110F8AB
:10033000013B03E010F8016B01F8016B521EF9D18B
:10034000ABB110F8012B04F00C048A1A0C2C03D06A
:10035000A2EB84129B1C08E010F8014BA2EB0422D4
:10036000F8E712F8014B01F8014B5B1EF9D5A942E1
:10037000D4D3002070BD00BFFEE7000010B51D48BB
:100380001D4908604FF48000486000211A488160D0
:100390001721C1604FF000710161002141614FF0F0
:1003A00000518161C1610021016241628162C162CB
:1003B00041638163C163016441648164C164016517
:1003C0004FF0004141650021816501F011FE0A48AE
:1003D0000068006840F001000749096808600748A4
:1003E00000F019F8064800F016F8064800F013F877
:1003F00010BD000000380040680300240300200006
:10040000030030000100380010B5044644F4F81031
:1004100000F001F810BD10B50446204602F090FC33
:1004200010BD704710B504460CB9012010BD94F8FA
:100430003500022803D0802060650120F6E73449AA
:100440002068884205D333492068884201D80120BA
:1004500000E00020C0B1042084F835002C49206859
:1004600088420AD32B492068884206D82068006851
:1004700020F001002168086048E02068006820F052
:1004800001002168086041E02068006820F00E004B
:10049000216808601E49206888420AD31D492068E7
:1004A000884206D82068006820F0010021680860B2
:1004B00005E02068006820F0010021680860206ED7
:1004C000006820F48070216E086094F85C100120B0
:1004D000884011490860D4E919104860E06E40B1C5
:1004E000E06E006820F48070E16E0860D4E91C10B2
:1004F000486000BF002084F8340000BF012084F869
:100500003500206D10B12046216D884700208DE711
:1005100010000240B804024004540258F8B50246E4
:100520000B460021002600240020824D00BFFCE085
:10053000012707FA01F61F6807EA0604B4427CD1D6
:100540005F68022F02D05F68122F1AD14FEAD10CD8
:1005500002F1200757F82C004F074FEAD76C0F27FE
:1005600007FA0CF7B8434FEA417C4FEADC6C1F698D
:1005700007FA0CF738434FEAD10C02F1200747F88D
:100580002C0010684FEA410C032707FA0CF7B84318
:100590001F7907F003074FEA410C07FA0CF73843BD
:1005A00010605F68012F08D05F68022F05D05F6878
:1005B000112F02D05F68122F17D190684FEA410CBB
:1005C000032707FA0CF7B8434FEA410CDF6807FA34
:1005D0000CF738439060506801278F40B8431F796B
:1005E000C7F300178F4038435060D0684FEA410C82
:1005F000032707FA0CF7B8434FEA410C9F6807FA44
:100600000CF73843D0605F6807F08057B7F1805F20
:1006100095D100BF484F3F6847F00207DFF818C187
:10062000CCF8007067463F6807F00207009700BFEC
:1006300000BF424F4FEA910C00E075E057F82C00E4
:100640008F074FEA177C0F2707FA0CF7B8433C4F88
:10065000BA4201D100272DE03A4FBA4201D1012719
:1006600028E0394FBA4201D1022723E0374FBA427E
:1006700001D103271EE0364FBA4201D1042719E009
:10068000344FBA4201D1052714E0334FBA4201D1A9
:1006900006270FE0314FBA4201D107270AE0304F59
:1006A000BA4201D1082705E02E4FBA4201D10927ED
:1006B00000E00A274FEA817C4FEA1C7C07FA0CF71E
:1006C00038431E4F4FEA910C47F82C002868A0438E
:1006D0005F6807F48037B7F5803F00D1204328607A
:1006E0006868A0435F6807F40037B7F5003F00D1A2
:1006F000204368604FF0B0473868A0435F6807F454
:100700008017B7F5801F00D120434FF0B047386005
:100710007868A0435F6807F40017B7F5001F00D1A1
:1007200020434FF0B0477860491C1029FFF400AF18
:10073000F8BD000080000058F44402580804005836
:10074000000002580004025800080258000C025829
:10075000001002580014025800180258001C0258D9
:100760000020025800240258014800687047000029
:100770001402002403480068034909780844014929
:1007800008607047140200241C02002410B50320E6
:1007900000F0D2F80F2000F007F808B1012010BDDA
:1007A00000F08CF80020FAE770B504460E48007897
:1007B0004FF47A71B1FBF0F00C490968B1FBF0F528
:1007C000284601F087FF08B1012070BD102C07D228
:1007D00000222146501E00F072F80548046001E036
:1007E0000120F2E70020F0E71C02002400020024B0
:1007F000180200244178154A11600178F9B1121DE0
:1008000041681160017B0907C27A41EA0261827A7C
:1008100041EAC241427B41EA8241827B41EA424154
:10082000C27B41EA0241427A41EA0221027A41EA6C
:10083000420102781143054A0832116005E00021A7
:10084000024A121D1160121D1160704798ED00E000
:1008500000BF00BF00BFBFF35F8F00BF00BF00BF7E
:100860000548006820F480300349086000200249F0
:10087000703108607047000024ED00E040F0010195
:100880000D4A11600C497039096841F480310A4AF7
:10089000703A116000BF00BF00BFBFF34F8F00BFB1
:1008A00000BF00BF00BF00BF00BFBFF36F8F00BF1E
:1008B00000BF00BF7047000094ED00E070472DE9D5
:1008C000F05F80460D46164602F08AFC0746394620
:1008D0002A46334601F00700C0F1070ABAF1040FB7
:1008E00002D94FF0040A01E0C0F1070AD14600F135
:1008F000040ABAF1070F02D24FF0000A01E0A0F19A
:10090000030AD4464FF0010A0AFA09FAAAF1010AC9
:100910000AEA020A0AFA0CFA4FF0010B0BFA0CFB76
:10092000ABF1010B0BEA030B4AEA0B0421464046EC
:1009300002F05EFCBDE8F09F00BF00F00702064B2E
:1009400019684FF6FF031940044B0B4343EA022199
:10095000014B196000BF70470CED00E00000FA0584
:100960002DE9F041044600250026206800F00060D3
:10097000B0F1006F30D1606E48B1B0F5801F0DD07E
:10098000B0F5001F10D0B0F5401F15D113E0F948A5
:10099000006840F40030F74908600FE00221201D94
:1009A00002F09EF8054609E0022104F1240002F05D
:1009B0002FF9054602E001E0012500BF00BF55B94F
:1009C000EC482430006820F44010616E0843E94987
:1009D0002431086000E02E43208800F48070B0F5D8
:1009E000807F2DD1606D05281AD2DFE800F0030A60
:1009F00010171800DF48006840F40030DD49086037
:100A000010E00021201D02F06BF805460AE00021ED
:100A100004F1240002F0FCF8054603E002E001E0E6
:100A2000012500BF00BF55B9D2482430006820F02E
:100A30000700616D0843CF492431086000E02E4370
:100A4000208800F40070B0F5007F33D1A06D8028BD
:100A500017D003DC40B140281CD10CE0C02817D0CF
:100A6000B0F5807F16D114E0C248006840F4003031
:100A7000C049086010E00021201D02F031F8054651
:100A80000AE0002104F1240002F0C2F8054603E068
:100A900002E001E0012500BF00BF55B9B548243090
:100AA000006820F4E070A16D0843B2492431086069
:100AB00000E02E43208800F48060B0F5806F38D1CC
:100AC000D4F8A400B0F5800F19D004DC50B1B0F513
:100AD000001F1DD10DE0B0F5C00F17D0B0F5000F0D
:100AE00016D114E0A348006840F40030A149086022
:100AF00010E00021201D01F0F3FF05460AE000216F
:100B000004F1240002F084F8054603E002E001E06D
:100B1000012500BF00BF5DB996482C30006820F465
:100B20006000D4F8A410084392492C31086000E01A
:100B30002E43208800F40060B0F5006F38D1D4F85F
:100B4000A800B0F1007F19D004DC50B1B0F1807F73
:100B50001DD10DE0B0F1407F17D0B0F1806F16D1FC
:100B600014E08448006840F400308249086010E0D6
:100B70000021201D01F0B4FF05460AE0002104F128
:100B8000240002F045F8054603E002E001E00125FB
:100B900000BF00BF5DB977482C30006820F0E060EE
:100BA000D4F8A810084373492C31086000E02E43A4
:100BB000206800F00070B0F1007F27D1A06CA0B1D8
:100BC000102804D0202809D030280FD10CE0694823
:100BD000006840F400306749086009E00221201DE8
:100BE00001F07EFF054603E002E001E0012500BFC1
:100BF00000BF55B95F482030006820F03000A16C7C
:100C000008435C492031086000E02E43208800F44E
:100C10008050B0F5805F36D1E06DB0F5005F19D03F
:100C200004DC50B1B0F5805F1DD10DE0B0F5405F40
:100C300017D0B0F5804F16D114E04E48006840F44C
:100C400000304C49086010E00021201D01F048FFF1
:100C500005460AE0002104F1240001F0D9FF054611
:100C600003E002E001E0012500BF00BF55B94148A3
:100C70002430006820F4E040E16D08433D49243110
:100C8000086000E02E43208800F40050B0F5005FBB
:100C900034D1206EB0F5403F1DD007DC68B1B0F50F
:100CA000803F0BD0B0F5003F18D10DE0B0F5802F9C
:100CB00012D0B0F5A02F11D10FE011E00121201DBD
:100CC00001F00EFF05460BE0012104F1240001F0C4
:100CD0009FFF054604E003E002E001E0012500BFBC
:100CE00000BF55B923482430006820F4E020216E6D
:100CF000084320492431086000E02E43208800F496
:100D00008040B0F5804F38D1D4F8AC00B0F1405FEE
:100D10001DD007DC68B1B0F1805F0BD0B0F1005F8F
:100D200018D10DE0B0F1804F12D0B0F1A04F11D129
:100D30000FE011E00121201D01F0D2FE05460BE07D
:100D4000012104F1240001F063FF054604E003E003
:100D500002E001E0012500BF00BF6DB905482C305D
:100D6000006820F0E040D4F8AC10084301492C3171
:100D7000086002E02C4402582E43208800F4004012
:100D8000B0F5004F26D1E06E98B1B0F1805F03D08E
:100D9000B0F1005F0ED106E0FA48006840F4003080
:100DA000F849086008E00121201D01F099FE054680
:100DB00002E001E0012500BF00BF55B9F148243031
:100DC000006820F04050E16E0843EE49243108608D
:100DD00000E02E43206800F08070B0F1807F27D1C2
:100DE000606CA0B1012804D0022809D003280FD1DB
:100DF0000CE0E448006840F40030E249086009E093
:100E00000221201D01F06CFE054603E002E001E036
:100E1000012500BF00BF55B9DA482030006820F036
:100E20000300616C0843D7492031086000E02E437D
:100E3000206800F48000B0F5800F7DD1D2480068B2
:100E400040F48070D0490860FFF78EFC074606E04A
:100E5000FFF78AFCC01B642801D9032505E0CA48B6
:100E6000006800F480700028F2D000BF8DBBC54838
:100E70004430006800F44070B4F8B01001F44071E0
:100E8000884214D0BF484430006820F44078BD4800
:100E90004430006840F48030BA4944310860084664
:100EA000006820F4803008600846C0F80080D4F85C
:100EB000B000B0F5807F15D1FFF756FC074609E07A
:100EC000FFF752FCC01B41F28831884202D903254A
:100ED00007E038E0AB4844300068C0F34000002829
:100EE000EED000BF4DBB00BFB4F8B00000F44070BE
:100EF000B0F5407F0ED1A3481C38006820F47C5127
:100F0000A24AD4F8B000104041EA10109D491C39A3
:100F1000086007E09B481C38006820F47C50994921
:100F20001C390860974844300068B4F8B010C1F329
:100F30000B010843934901E006E002E044310860F8
:100F400002E02E4300E02E43207800F0010068B359
:100F5000A06F182819D005DC48B1082808D010283F
:100F600016D10BE0202811D0282811D10FE011E074
:100F70000121201D01F0B4FD05460BE0012104F123
:100F8000240001F045FE054604E003E002E001E034
:100F9000012500BF00BF55B97A482830006820F00D
:100FA0003800A16F084377492831086000E02E43DC
:100FB000207800F00200022828D1606F062815D2A0
:100FC000DFE800F003040A11121311E00121201DD3
:100FD00001F086FD05460BE0012104F1240001F03B
:100FE00017FE054604E003E002E001E0012500BF32
:100FF00000BF55B963482830006820F00700616FD2
:10100000084360492831086000E02E43207800F052
:10101000040004282AD1D4F89000062815D2DFE86D
:1010200000F003040A11121311E00121201D01F048
:1010300057FD05460BE0012104F1240001F0E8FD15
:10104000054604E003E002E001E0012500BF00BF27
:101050005DB94C482C30006820F00700D4F890109F
:10106000084348492C31086000E02E43207800F006
:101070002000202836D1D4F88C00B0F1405F1DD07C
:1010800007DC68B1B0F1805F0BD0B0F1005F18D120
:101090000DE0B0F1804F12D0B0F1A04F11D10FE0B0
:1010A00011E00021201D01F01BFD05460BE002218F
:1010B00004F1240001F0ACFD054604E003E002E089
:1010C00001E0012500BF00BF5DB92E48283000684F
:1010D00020F0E040D4F88C1008432A4928310860F9
:1010E00000E02E43207800F04000402836D1D4F8AC
:1010F0009800B0F5406F1DD007DC68B1B0F5806F87
:101100000BD0B0F5006F18D10DE0B0F5805F12D0B4
:10111000B0F5A05F11D10FE011E00021201D01F01A
:10112000DFFC05460BE0022104F1240001F070FD14
:10113000054604E003E002E001E0012500BF00BF36
:101140005DB910482C30006820F4E050D4F89810B5
:1011500008430C492C31086000E02E43207800F051
:10116000800080283BD1D4F89C00B0F5C04F24D03B
:101170000EDCA0B1B0F5005F12D0B0F5804F1FD1EA
:1011800014E000002C44025800480258FFFCFF0FF6
:10119000B0F5004F12D0B0F5204F11D10FE011E0A3
:1011A0000021201D01F09CFC05460BE0022104F10A
:1011B000240001F02DFD054604E003E002E001E01B
:1011C000012500BF00BF4DB9B248006820F460405F
:1011D000D4F89C100843AF49086000E02E43207803
:1011E00000F00800082816D1D4F88000B0F5805F20
:1011F00006D1022104F1240001F00AFD06430AE0B1
:10120000A448001F006820F44050D4F88010084320
:10121000A049091F0860207800F01000102814D1A0
:10122000D4F89400B0F5807F06D1022104F12400A7
:1012300001F0EEFC064308E09648006820F4407098
:10124000D4F89410084393490860206800F4002003
:10125000B0F5002F26D1D4F8A00030B1B0F5803F12
:1012600009D0B0F5003F0ED10CE00021201D01F0A7
:1012700037FC054609E0022104F1240001F0C8FC16
:10128000054602E001E0012500BF00BF4DB98148DD
:10129000006820F44030D4F8A01008437D4908606D
:1012A00000E02E43206800F48020B0F5802F2DD17F
:1012B000D4F88400B0F5801F06D0B0F5001F0CD024
:1012C000B0F5401F11D10FE072482C38006840F48F
:1012D000003070492C39086009E0012104F1240034
:1012E00001F096FC054602E001E0012500BF00BFC9
:1012F0005DB96848001F006820F44010D4F88410DD
:1013000008436449091F086000E02E43206800F488
:101310008030B0F5803F24D1E06C18B1B0F5803F4B
:101320000FD108E05B482C38006840F40030594980
:101330002C39086007E00221201D01F0D1FB054691
:1013400001E0012500BF00BF55B952480C380068C4
:1013500020F48030E16C08434E490C39086000E00D
:101360002E43206800F00050B0F1005F05D102214B
:1013700004F1240001F04CFC0643206800F4003026
:10138000B0F5003F27D1E06FA0B1B0F5807F06D067
:10139000B0F5007F0CD0B0F5407F0CD109E03D489E
:1013A0002C38006840F400303A492C39086004E0D9
:1013B00003E002E001E0012500BF00BF55B9354858
:1013C000001F006820F44070E16F08433149091F95
:1013D000086000E02E43206800F48010B0F5801F04
:1013E00009D12C480838006820F00040216F0843DC
:1013F000284908390860206800F08050B0F1805F0B
:101400000AD124484838006820F48040D4F8B41049
:101410000843204948390860206800F40010B0F5FE
:10142000001F09D11B480838006820F08070A16EA9
:101430000843184908390860206800F08040B0F17E
:10144000804F11D100BF13484838006820F4004095
:1014500010494839086008460068D4F8B8100843B5
:101460000C494839086000BF206800F00040B0F126
:10147000004F09D107480C38006820F04050216D1A
:10148000084304490C39086016B90020BDE8F08112
:101490000120FBE75844025870B504460D4600266B
:1014A0008D48006800F00700A8420ED28A48006804
:1014B00020F007002843884908600846006800F0CB
:1014C0000700A84201D0012070BD207800F0020082
:1014D000022807D18148006820F00F00E168084326
:1014E0007E490860207800F00100002851D07B4838
:1014F000006820F47060A16808437849086060685B
:10150000022807D1754818380068C0F34040F8B980
:101510000120D9E76068032807D1704818380068AF
:10152000C0F34060A0B90120CEE76068012807D170
:101530006A4818380068C0F3002048B90120C3E7A2
:10154000664818380068C0F3800008B90120BBE77E
:1015500062480838006820F00700616808435F4966
:1015600008390860FFF700F906466068022811D1C3
:1015700008E0FFF7F9F8801B41F28831884201D971
:101580000320A1E755480838006800F0380010280B
:10159000EFD13AE06068032811D108E0FFF7E4F8E2
:1015A000801B41F28831884201D903208CE74B48E7
:1015B0000838006800F038001828EFD125E060688E
:1015C000012811D108E0FFF7CFF8801B41F28831E4
:1015D000884201D9032077E740480838006800F0C6
:1015E00038000828EFD110E008E0FFF7BDF8801BB5
:1015F00041F28831884201D9032065E7374808382D
:10160000006800F038000028EFD13348006800F08F
:101610000700A8420ED93048006820F00700284390
:101620002D4908600846006800F00700A84201D074
:10163000012049E7207800F00400042807D127485A
:10164000006820F070002169084324490860207870
:1016500000F00800082809D12048001D006820F08B
:101660007000616908431D49091D0860207800F079
:101670001000102809D11948001D006820F4E0600E
:10168000A16908431549091D0860207800F0200071
:10169000202809D111480830006820F07000E16965
:1016A00008430E490831086000F01EF80B4909682C
:1016B00001F470614FF4807292FAA2F2B2FA82F2EF
:1016C000D140074A515CC840064908600F20FFF727
:1016D0006BF80020F8E60000002000521844025881
:1016E000A03200080002002470B5012500EE905AD7
:1016F0000022012100230024DFED861AB0EE610AEA
:10170000DFED841AB0EE611A0020834D2D6805F0DC
:10171000380535B1082D15D0102D15D0182D7CD1D8
:1017200014E07D4D103D2D68C5F3401545B17A4D4F
:10173000103D2D68C5F3C106784D25FA06F000E08E
:101740007648E5E07648E3E07648E1E0724D18350A
:101750002D6805F00302704D18352D68C5F305118D
:101760006D4D1C352D6805F001036B4D24352D683A
:10177000C5F3CC0515FB03F501EE905AF8EE611A9E
:10178000B0EE610A22B1012A4FD0022A7DD16BE06E
:10179000614D103D2D68C5F340152DB35E4D103DD4
:1017A0002D68C5F3C1065D4D25FA06F4B4FBF1F5CD
:1017B00001EE905AB8EE612ADFED5B1AC0EE212AE5
:1017C000554D20352D68C5F3080501EE905AF8EE09
:1017D000611A72EEA11AF7EE002A71EEA21A62EEF9
:1017E000211AB0EE611A1FE04C4DB5FBF1F501EE88
:1017F000905AB8EE612ADFED4C1AC0EE212A464D10
:1018000020352D68C5F3080501EE905AF8EE611AEF
:1018100072EEA11AF7EE002A00E077E071EEA21A4C
:1018200062EE211AB0EE611A5EE03D4DB5FBF1F5B6
:1018300001EE905AB8EE612ADFED3B1AC0EE212A84
:10184000354D20352D68C5F3080501EE905AF8EEA8
:10185000611A72EEA11AF7EE002A71EEA21A62EE78
:10186000211AB0EE611A3FE02E4DB5FBF1F501EE05
:10187000905AB8EE612ADFED2C1AC0EE212A264DCF
:1018800020352D68C5F3080500E00EE001EE905A02
:10189000F8EE611A72EEA11AF7EE002A71EEA21AA2
:1018A00062EE211AB0EE611A1EE01D4DB5FBF1F596
:1018B00001EE905AF8EE612ADFED1B1A80EE212A24
:1018C000154D20352D68C5F3080501EE905AF8EE48
:1018D000611A72EE211AB7EE002A71EE821A62EED8
:1018E000A11AB0EE611A00BF00BF0B4D20352D6864
:1018F000C5F346256D1C00EE905AF8EE601A81EE95
:10190000212AFCEEC21A11EE900A01E0044800BF41
:1019100000BF70BD00000000104402580090D003CA
:1019200000093D0040787D010000004670B5044686
:101930000025207800F00100002872D0F9480068E6
:1019400000F0380010280CD0F648006800F038008D
:10195000182812D1F3481830006800F0030002285C
:101960000BD1F04810380068C0F3404000286DD01B
:10197000606800286AD1012070BD00BF6068B0F5C2
:10198000803F08D1E7481038006840F48030E549CE
:10199000103908602EE0606868B9E24810380068C5
:1019A00020F48030DF49103908600846006820F4D0
:1019B000802008601EE06068B0F5A02F0DD1D948E6
:1019C0001038006840F48020D64910390860084675
:1019D000006840F4803008600CE0D248103800689D
:1019E00020F48030CF49103908600846006820F4A0
:1019F0008020086000BF6068A0B1FEF7B5FE054614
:101A000008E0FEF7B1FE401B41F28831884201D95F
:101A10000320B1E7C34810380068C0F340400028F5
:101A2000EFD013E0FEF7A0FE054608E0FEF79CFEAF
:101A3000401B41F28831884201D903209CE7B94814
:101A400010380068C0F340400028EFD1207800F043
:101A50000200022847D1B348006800F0380058B1AE
:101A6000B048006800F0380018283ED1AD48183062
:101A7000006800F00300B8BBAA4810380068C0F343
:101A8000800018B1E06808B9012075E7A548103852
:101A9000006820F01900E1680843A2491039086085
:101AA000FEF762FE054606E0FEF75EFE401B0228DA
:101AB00001D9032060E79B4810380068C0F380001C
:101AC0000028F1D097480C38006820F47C304FF49F
:101AD0007C3292FAA2F2B2FA82F221699140084372
:101AE00090490C3908604AE0FFE7E06868B38D4828
:101AF0001038006820F01900E1680843894910395E
:101B00000860FEF731FE054606E0FEF72DFE401B9D
:101B1000022801D903202FE7824810380068C0F35B
:101B200080000028F1D07F480C38006820F47C3019
:101B30004FF47C3292FAA2F2B2FA82F22169914019
:101B4000084378490C39086019E076481038006875
:101B500020F00100734910390860FEF705FE0546C4
:101B600006E0FEF701FE401B022801D9032003E72F
:101B70006C4810380068C0F380000028F1D120784C
:101B800000F01000102877D16648006800F0380097
:101B900008280CD06348006800F03800182823D1CA
:101BA00060481830006800F0030001281CD15D482F
:101BB00010380068C0F3002020B1E069802801D00F
:101BC0000120D9E657480C38006820F0F8404FF063
:101BD000F84292FAA2F2B2FA82F2216A91400843E4
:101BE00050490C39086047E0E06958B34D48103857
:101BF000006840F080004B4910390860FEF7B4FDE2
:101C0000054606E0FEF7B0FD401B022801D903207F
:101C1000B2E6444810380068C0F300200028F1D034
:101C200040480C38006820F0F8404FF0F84292FA33
:101C3000A2F2B2FA82F2216A9140084339490C3982
:101C4000086019E037481038006820F080003549F6
:101C500010390860FEF788FD054606E0FEF784FDB2
:101C6000401B022801D9032086E62E481038006860
:101C7000C0F300200028F1D1207800F008000828E7
:101C800036D16069D0B127486430006840F0010067
:101C9000244964310860FEF767FD054606E0FEF75B
:101CA00063FD401B022801D9032065E61D4864300E
:101CB0000068C0F340000028F1D019E019486430F2
:101CC000006820F00100174964310860FEF74CFD00
:101CD000054606E0FEF748FD401B022801D9032017
:101CE0004AE6104864300068C0F340000028F1D193
:101CF000207800F02000202834D1A069D8B109480C
:101D00001038006840F48050064910390860FEF72A
:101D10002BFD054608E0FEF727FD401B022803D9EE
:101D2000032029E610440258AF480068C0F3403051
:101D30000028F0D016E0AC48006820F48050AA4992
:101D40000860FEF711FD054606E0FEF70DFD401B9D
:101D5000022801D903200FE6A3480068C0F34030F1
:101D60000028F2D1207800F0040004287DD19F489B
:101D7000006840F480709D490860FEF7F5FC054658
:101D800006E0FEF7F1FC401B642801D90320F3E5CF
:101D90009648006800F480700028F2D000BFA06868
:101DA000012808D190487030006840F001008E4949
:101DB000703108602DE0A06868B98B487030006809
:101DC00020F001008849703108600846006820F062
:101DD000040008601DE0A06805280DD1824870301D
:101DE000006840F0040080497031086008460068CF
:101DF00040F0010008600CE07B487030006820F083
:101E000001007949703108600846006820F004003C
:101E1000086000BFA068A0B1FEF7A6FC054608E078
:101E2000FEF7A2FC401B41F28831884201D9032011
:101E3000A2E56D4870300068C0F340000028EFD084
:101E400013E0FEF791FC054608E0FEF78DFC401B11
:101E500041F28831884201D903208DE56248703013
:101E60000068C0F340000028EFD1606A00287CD0F1
:101E70005D481030006800F03800182876D0606A9D
:101E8000022874D15848006820F0807056490860D4
:101E9000FEF76AFC054606E0FEF766FC401B0228DA
:101EA00001D9032068E550480068C0F3406000286D
:101EB000F2D100BFD4E90A1041EA00104A492831A2
:101EC000096840F2F33291430843474928310860DA
:101ED000208E401EC0F30800616B491E4FF47E4205
:101EE00002EA41210843218F491ED20102EA014141
:101EF00008433C21095D491E120202EA01610843C0
:101F000039493031086000BF081D00684FF6F8718C
:101F100088434FF6F87292FAA2F2B2FA82F2A16CFA
:101F2000914008433049343108602F482C30006814
:101F300020F00C00216C08432B492C310860084626
:101F4000006820F00200616C084327492C310860CA
:101F50000846006840F4803008600846006840F495
:101F6000003008600846006802E03BE038E01FE00F
:101F700040F4802008600846006840F001000860D6
:101F80001948006840F0807017490860FEF7ECFBC4
:101F9000054606E0FEF7E8FB401B022801D90320B6
:101FA000EAE411480068C0F340600028F2D019E06C
:101FB0000D48006820F080700B490860FEF7D4FBE4
:101FC000054606E0FEF7D0FB401B022801D903209E
:101FD000D2E405480068C0F340600028F2D101E077
:101FE0000120C9E40020C7E4004402580048025818
:101FF00070B50446002500260CB9012070BD606A4A
:1020000000B900BFA06AB0F5800F00D100BF8E49B3
:10201000206888420CD08D492068884208D08C49BD
:102020002068884204D0E0680F2801D90120E5E744
:10203000204600F011FF064683492068884209D0F7
:1020400082492068884205D081492068884201D0B1
:10205000082E0DD87C492068884207D07B4920682B
:10206000884203D07A492068884203D1102E01D9D2
:102070000120C3E7A06AB0F5800F1DD17249206826
:1020800088420DD071492068884209D07049206883
:10209000884205D0206BB0F5702F01D90120ADE743
:1020A000206B10B9A089050400E0256BE068B0EB57
:1020B000154F01D90120A1E794F8810028B900202B
:1020C00084F88000204600F0C5F8022084F88100E2
:1020D0002068006820F0010021680860A069B0F164
:1020E000806F0BD16068B0F5800F07D1A06B28B965
:1020F0002068006840F4805021680860A16AE069A7
:1021000008432843E16B0843E1680843216888607D
:10211000616A606B0843A16B0843A16908432169A8
:10212000084361690843216A084361680843E16C18
:102130000843A1680843A16C0843A16D08432168C6
:10214000C860A06AB0F5800F4DD1206C012806D17F
:102150002068006840F400402168086005E02068BD
:10216000006820F4004021680860606C012806D1F6
:102170002068006840F480402168086005E020681D
:10218000006820F48040216808602F492068884258
:102190000AD02E492068884206D02D4920688842FE
:1021A00002D0B5F5702F0ED027492068884207D09D
:1021B00026492068884203D025492068884209D1F1
:1021C000B5F5F81F06D12068006840F4005021687A
:1021D000086005E02068006820F40050216808606D
:1021E0002168E06A0864606888B9A06A38B9206824
:1021F000806820F4C05040F4006021688860206846
:10220000806820F4C06040F48060216888602068A5
:10221000006D20F0010021680865606800F480000E
:10222000B0F5800F07D12068C06820F00040616DD4
:1022300008432168C8600020C4F88400012084F8A5
:1022400081000020DAE60000003001400038004044
:10225000003C004010B5B6B0044600BF1A48006804
:1022600040F00200184908600846006800F00200CB
:10227000019000BF00BF00BF13480830006840F461
:1022800080401149083108600846006800F4804029
:10229000019000BF00BF4FF48050029000201990C1
:1022A00002A8FEF75DFB4FF43040319002203290DF
:1022B00001203390032034900520359031A9034844
:1022C000FEF72CF936B010BDE04402580004025865
:1022D0002DE9F84F0446884691461D460A9E002780
:1022E000BA4600BF94F88000012802D10220BDE860
:1022F000F88F012084F8800000BFFEF735FA07460A
:1023000094F88100012812D06068B0F5800F05D1E3
:10231000A06818B994F88100042808D04FF0020A88
:1023200000BF002084F8800000BF5046DFE7B8F10E
:10233000000F03D0B9F1000F00D045B94FF0010AEA
:1023400000BF002084F8800000BF5046CFE794F81B
:102350008100042802D0052084F881000020C4F800
:102360008400C4F86490A4F86A50A4F86850C4F8D3
:102370005C80A4F86250A4F8605020676067206811
:1023800040686FF30F0028432168486020680068A8
:1023900040F00100216808606068B0F5800F05D149
:1023A0002068006840F4007021680860E0680F2829
:1023B0004CD942E0B4F8620088B12068406900F06E
:1023C000020002280BD1E06D006821680862E06D10
:1023D000001DE065B4F86200401EA4F86200B4F885
:1023E0006A0088B12068406948F20801084058B185
:1023F0002068006B616E0860606E001D6066B4F856
:102400006A00401EA4F86A00701CB0B1FEF7ACF977
:10241000C01BB04211D3204600F0A0FC00BF00203A
:1024200084F8800000BFD4F8840040F48070C4F8C1
:102430008400012084F8810059E7B4F86200002884
:10244000B8D1B4F86A000028B4D10FE1E0680728D9
:1024500071D966E0B4F8620020B32068406900F0EA
:10246000020002281ED1B4F8620001280ED9E06BE8
:1024700060B1E06D006821680862E06D001DE065F4
:10248000B4F86200801EA4F862000BE0E06D0088E2
:1024900021680884E06D801CE065B4F86200401E8D
:1024A000A4F86200B4F86A0010B32068406900F430
:1024B0006040E8B12068406900F4004060B12068E5
:1024C000006B616E0860606E001D6066B4F86A00A3
:1024D000801EA4F86A000BE02068008E616E088000
:1024E000606E801C6066B4F86A00401EA4F86A0042
:1024F000701CB0B1FEF738F9C01BB04211D32046B2
:1025000000F02CFC00BF002084F8800000BFD4F84D
:10251000840040F48070C4F88400012084F88100B5
:10252000E5E6B4F86200002894D1B4F86A00002807
:1025300090D19BE0FFE790E0B4F8620058B32068C8
:10254000406900F00200022833D1B4F86200032889
:102550000FD9E06B40280CD9E06D00682168086253
:10256000E06D001DE065B4F86200001FA4F8620091
:102570001FE0B4F8620001280ED9E06B60B1E06D95
:10258000008821680884E06D801CE065B4F8620072
:10259000801EA4F862000CE0E06D0078216881F8EC
:1025A0002000E06D401CE065B4F86200401EA4F815
:1025B0006200B4F86A0048B32068406900F46040E3
:1025C00020B32068406900F4004060B12068006BCF
:1025D000616E0860606E001D6066B4F86A00001FDE
:1025E000A4F86A0020E02068406900F4C040B0F51B
:1025F000005F0CD92068008E616E0880606E801CC0
:102600006066B4F86A00801EA4F86A000CE02068D6
:1026100090F83000616E0870606E401C6066B4F81F
:102620006A00401EA4F86A00701CB0B1FEF79CF866
:10263000C01BB04211D3204600F090FB00BF002029
:1026400084F8800000BFD4F8840040F48070C4F89F
:102650008400012084F8810049E6B4F86200002873
:102660007FF46AAFB4F86A000028F9D13B46002233
:1026700008212046009600F0FCFB28B1D4F8840025
:1026800040F02000C4F88400204600F067FB00BF43
:10269000002084F8800000BF012084F88100D4F875
:1026A000840008B1012022E6002020E6042808D199
:1026B0004FF0E021096941F004014FF0E02211617F
:1026C00007E04FF0E021096921F004014FF0E0221A
:1026D0001161704770B504462546681EB0F1807FD1
:1026E00001D301200FE0681E4FF0E02148610F2167
:1026F0004FF0FF3000F07CFD00204FF0E0218861BA
:1027000007200861002070BD704770470146002215
:10271000002391F8792091F87A3042EA030070475B
:102720002DE9F04104462068C569206807682068E3
:10273000866805F00F08B8F1000F0DD105F02000F4
:1027400050B107F0200010B906F0805020B12046AB
:1027500000F096FCBDE8F081B8F1000F72D05D4842
:10276000304018B907F4907000287AD005F00100C5
:1027700048B107F4807030B1012021680862E06F31
:1027800040F00100E06705F0020048B106F00100EA
:1027900030B1022021680862E06F40F00400E06779
:1027A00005F0040048B106F0010030B104202168B2
:1027B0000862E06F40F00200E06705F0080078B1C1
:1027C00007F0200028B906F0805010B906F001008B
:1027D00030B1082021680862E06F40F00800E0672F
:1027E000E06F70B305F0200040B107F0200010B991
:1027F00006F0805010B1204600F042FCE06F00F07F
:10280000080020B92068806800F0400018B3204616
:1028100000F016FC2068806800F04000B8B1206825
:10282000806820F0400021688860606F58B12A48B5
:10283000616F0865606FFDF7F5FD10B1606F016DA8
:1028400088470DE00DE02046FFF75FFF08E02046D7
:10285000FFF75BFF04E02046FFF757FF0020E0672B
:1028600078E705F4801078B106F4800060B14FF489
:10287000801021680862202084F8790084F87A00AA
:102880002046FFF741FF65E705F0800048B107F0FB
:10289000800010B906F4000018B1204600F035FCA5
:1028A00058E705F0400030B107F0400018B120466D
:1028B00000F0D6FB4EE705F4000040B107F0804081
:1028C00028B12068006820F080402168086000BFBF
:1028D00040E70000010000102930000810B5034651
:1028E00093F87A00202867D101B10AB9012010BD00
:1028F00000BF93F87800012801D10220F7E70120FA
:1029000083F8780000BF5966A3F86820A3F86A200E
:1029100000BF9868B0F5805F0AD1186920B940F20D
:10292000FF10A3F86C001CE0FF20A3F86C0018E077
:10293000986848B9186918B9FF20A3F86C0010E02E
:102940007F20A3F86C000CE09868B0F1805F08D19C
:10295000186918B97F20A3F86C0002E03F20A3F8A3
:102960006C0000BF0020D867222083F87A0000BFE7
:10297000002083F8780000BF1868806840F00100EC
:102980001C68A0601868006800F0005060B118680A
:10299000006840F480701C6820601868806840F00F
:1029A00080501C68A06005E01868006840F49070D2
:1029B0001C68206000209AE7022098E71D4A016801
:1029C000914236D11C49098801F4004189BB1A495A
:1029D000098801F4804171B1184909780A2903D0A6
:1029E0000021154A118024E01349098841F400416F
:1029F000114A11801DE0114909780D2906D10E49AF
:102A0000098841F480410C4A118012E00B49097891
:102A1000094A1288C2F30D02094B995406490988E4
:102A2000491C054A118011460988C72901DD00218A
:102A300011807047001001400C0200240E02002497
:102A400020020024704700BFFEE71FB501200022CE
:102A50000092CDE9012003231222510603900020A9
:102A600000F00CF8012000210091019103231922AC
:102A7000CDE90210590700F001F81FBD2DE9FF5FF5
:102A800004460D4616461F46DDE910ABDDE90E890A
:102A9000FDF7DEFE01208DF80000E0B28DF80100A8
:102AA0000195F0B28DF8080000208DF809008DF82E
:102AB0000A008DF80B708DF80C808DF80D908DF854
:102AC0000EA08DF80FB06846FDF794FE0420FDF7C8
:102AD000D5FEBDE8FF9F00BFFEE7704770470000CE
:102AE0002DE9F04104460E4600274848006800F0F2
:102AF0000300032802D10120BDE8F08143482838B3
:102B0000006820F08060414928390860FDF72CFEFC
:102B1000054606E0FDF728FE401B022801D90320E8
:102B2000EAE73A4828380068C0F3C0600028F1D1CD
:102B300000BF3648006820F47C30216840EA01304C
:102B400032490860A088401EC0F30800A168491EF1
:102B50004FF47E4202EA41210843A189491ED20175
:102B600002EA01410843217C491E120202EA016186
:102B7000084326491031086000BF2448001D006842
:102B800020F0C000616908432049091D086008461B
:102B9000006820F02000A16908431C49091D086055
:102BA0002EB90846006840F40020086012E0012EAB
:102BB00008D11648001D006840F480101349091D13
:102BC000086007E01148001D006840F400100F493C
:102BD000091D08600D482838006840F080600B49E6
:102BE00028390860FDF7C0FD054606E0FDF7BCFD8D
:102BF000401B022801D903207EE7044828380068DA
:102C0000C0F3C0600028F1D0384675E72844025868
:102C10002DE9F04104460E4600274848006800F0C0
:102C20000300032802D10120BDE8F0814348283881
:102C3000006820F08050414928390860FDF794FD74
:102C4000054606E0FDF790FD401B022801D9032050
:102C5000EAE73A4828380068C0F340700028F1D10C
:102C600000BF3648006820F07C70218840EA01509F
:102C700032490860A088401EC0F30800A168491EC0
:102C80004FF47E4202EA41210843A189491ED20144
:102C900002EA01410843217C491E120202EA016155
:102CA000084326491831086000BF2448001D006809
:102CB00020F44060616908432049091D0860084606
:102CC000006820F40070A16908431C49091D0860D0
:102CD0002EB90846006840F48000086012E0012E1A
:102CE00008D11648001D006840F400001349091D72
:102CF000086007E01148001D006840F080700F492F
:102D0000091D08600D482838006840F080500B49C4
:102D100028390860FDF728FD054606E0FDF724FD8B
:102D2000401B022801D903207EE7044828380068A8
:102D3000C0F340700028F1D0384675E728440258A7
:102D400001B582B04FF47A70012301AA02A9009064
:102D50000148FFF7BDFA0EBD6803002402685169FF
:102D60000268926942F0080203689A6102689269F7
:102D700042F0100203689A610268126822F00102B0
:102D800003681A600268126940F26B339A43036861
:102D90001A610268926822F4404203689A6090F8CF
:102DA0008120042A0ED001F020025AB1D0F88420EC
:102DB00042F08002C0F884200268926942F020024A
:102DC00003689A6190F88120032A21D001F0400223
:102DD0005AB1D0F8842042F00402C0F8842002687E
:102DE000926942F0400203689A61826AB2F5800FEC
:102DF0000ED101F080025AB1D0F8842042F00202D4
:102E0000C0F884200268926942F0800203689A61E7
:102E100001F400725AB1D0F8842042F00102C0F8E7
:102E200084200268926942F4007203689A6101F496
:102E300080725AB1D0F8842042F00802C0F8842091
:102E40000268926942F4807203689A610022A0F8D5
:102E50006220A0F86A20704710B501460124C86BB3
:102E600004EB5013C868421CD01DC20802FB03F0DB
:102E700010BD2DE9F04106460C4617469846069DC2
:102E80000BE0681C48B12DB1FDF76EFCA0EB08000B
:102E9000A84202D90320BDE8F08130684069204093
:102EA000A04201D1012000E00020B842E9D000207A
:102EB000F1E7704710B5FDF75DFC10BD10B5044695
:102EC0000420FFF7F3FB0148046010BD0802002452
:102ED00000B59DB04C210AA8FDF701FA202102A8F7
:102EE000FDF7FDF92A48006820F004002849086031
:102EF00000BF0020019026480C30006840F440409C
:102F000023490C3108600846006800F440400190F5
:102F100000BF00BF00BF1E480C30006800F4005026
:102F2000B0F5005FF7D101200A9000040B90022059
:102F300013900221149105211591A02116910221CF
:102F4000179104211891022119910C211A91002145
:102F50001B911C910AA8FEF7E9FC08B100BFFEE72F
:102F60003F20029003200390002004900820059049
:102F7000402006900790000108904020099002210F
:102F800002A8FEF789FA08B100BFFEE71DB000BD38
:102F90000C4802582048006840F470001E49086040
:102FA0001E48006840F001001C49086000201B49D1
:102FB000103108601948006819490840174908602D
:102FC0000020164918310860091D0860091D0860B5
:102FD000124928310860091D0860091D0860091D93
:102FE0000860091D0860091D0860091D0860091DA9
:102FF00008600A48006820F4802008490860002022
:10300000064960310860012006490860C00602498F
:10301000803908607047000088ED00E000440258E5
:103020007FEDF6EA0881005170B50546AC6B0020D3
:10303000A4F86A00A4F862002046FFF766FB70BDA2
:103040000168096821F4907102681160016889685B
:1030500021F0010102689160202180F87A10704708
:1030600010B504462068006820F040002168086020
:10307000202084F879002046FFF7E4FC002010BDF2
:103080002DE9F0410446B4F86C7094F87A002228D7
:1030900033D12068858CA068B0F5805F09D12069A4
:1030A00038B9666E05EA07003080606E801C606685
:1030B00005E0F8B22840626E511C61661070B4F8E9
:1030C0006A00401E80B2A4F86A00A0B920680068B7
:1030D00020F49070216808602068806820F001006A
:1030E00021688860202084F87A002046FFF766FC7B
:1030F0000020BDE8F0810020FBE72068008B40F055
:103100000800216808830220F3E7014691F879005E
:10311000212839D1B1F86200C8B90868006800F008
:10312000005030B10868806820F400000B68986097
:1031300005E00868006820F080000B6818600868E7
:10314000006840F040000B681860002070478868F5
:10315000B0F5805F0BD1086948B9CA6D1088C0F31B
:1031600008000B681885C86D801CC86505E0CB6D2C
:10317000581CC86518780B681885B1F86200401EA5
:10318000A1F862000020E1E70220DFE770B500242B
:103190000F4D1048FFF7C4FA00BF03E0641CAC42B7
:1031A00000D904E00B48FFF7B1FA2028F6D100BFA0
:1031B000002403E0641CAC4200D906E00122064969
:1031C0000448FFF78BFB0028F4D100BF70BD00005E
:1031D000FFFF0100E80200240E02002400BFFEE70A
:1031E00002480068C0F30220704700000CED00E0C8
:1031F00010B5002804DB0A07130E054A135406E035
:103200000A07140E034A00F00F031B1FD45410BD0D
:1032100000E400E018ED00E002E008C8121F08C159
:10322000002AFAD170477047002001E001C1121F47
:10323000002AFBD170470000FDF7A8FAFFF705FC54
:10324000FFF746FE4FF4C870FFF738FEFDF796F81B
:103250000AE0002406E0054931F81400FDF7D4F82F
:10326000601C84B2FF2CF6DDF3E7000000000024B0
:10327000010002000400060008000A000C00100013
:103280002000400080000001010002000400060050
:1032900008000A000C00100020004000800000011F
:1032A00000000000010203040102030406070809EC
:1032B000D03200080000002420020000180300089B
:1032C000E434000820020024D00500002832000861
:1032D0001082FF7F238347866A898B8CAA8FC792CF
:1032E000E195F8980A9C199F23A227A526A81EAB52
:1032F00010AEFBB0DEB3B9B68CB955BC16BFCDC1AC
:103300007AC41CC7B3C93FCCBFCE32D19AD3F4D54F
:1033100042D881DAB3DCD6DEEBE0F1E2E7E4CEE6D8
:10332000A5E86CEA23ECC9ED5EEFE1F054F2B4F3EA
:1033300003F540F66BF783F889F97CFA5CFB28FC0F
:10334000E2FC89FD1CFE9CFE08FF61FFA6FFD7FF83
:10335000F5FFFE0412D70C10FA61FF08FF9CFE1C5B
:10336000FE89FDE2FC29FC5CFB7CFA89F983F86BA1
:10337000F740F603F5B4F354F2E1F05EEFC9ED2344
:10338000EC6CEAA5E8CEE6E7E4F1E2EBE0D6DEB3EA
:10339000DC81DA42D8F4D59AD332D1BFCE3FCCB358
:1033A000C91CC77AC4CDC116BF55BC8CB9B9B6DE2D
:1033B000B3FBB010AE1EAB26A827A522A2199F0A08
:1033C0009CF898E195C792AA8F8B8C6989478623D0
:1033D00083FF7FDB7CB779947673735470376D1DF0
:1033E0006A0667F463E560DB5DD75AD857E054EEB0
:1033F00051034F204C45497246A843E840313E8472
:103400003BE2384B36BF333F31CB2E642C0A2ABC0B
:10341000277D254B232821131F0D1D171B301959FC
:10342000179215DB133512A0101D0FAA0D490CFBC6
:103430000ABE0993087B0775068205A204D5031C02
:10344000037502E2016201F6009D005800270009A1
:1034500000000412270C307D9D00F6006201E2019D
:1034600075021C03D603A304830575067B07930826
:10347000BE09FB0A4A0CAA0D1D0FA1103612DB1360
:10348000921559173019171B0E1D131F28214B2396
:103490007D25BD270A2A642CCC2E4031C0334B3603
:1034A000E338853B313EE840A94373464549214C0A
:1034B000044FEE51E054D957D75ADC5DE560F46310
:1034C00007671D6A376D547074739576B879DB7C25
:1034D0000090D00304D10112109A000500010000F1
:0434E00000000000E8
:040000050800029954
:00000001FF
