:020000040800F2
:1000000000060020490100085101000853010008C2
:1000100055010008570100085901000800000000C0
:100020000000000000000000000000005B0100086C
:100030005D010008000000005F0100086101000888
:100040006301000863010008630100086301000800
:1000500063010008630100086301000863010008F0
:1000600063010008630100086301000863010008E0
:1000700063010008630100086301000863010008D0
:1000800063010008630100086301000863010008C0
:1000900063010008630100086301000863010008B0
:1000A00063010008630100086301000863010008A0
:1000B0006301000863010008630100086301000890
:1000C0006301000863010008630100086301000880
:1000D0006301000863010008630100086301000870
:1000E0006301000863010008630100086301000860
:1000F0006301000863010008630100086301000850
:10010000630100086301000863010008630100083F
:10011000630100086301000863010008630100082F
:10012000630100086301000863010008630100081F
:10013000DFF810D000F01AF8004800475106000818
:10014000AFF30080000600200648804706480047BD
:10015000FEE7FEE7FEE7FEE7FEE7FEE7FEE7FEE777
:10016000FEE7FEE7D105000831010008064C074D07
:1001700006E0E06840F0010394E807009847103477
:10018000AC42F6D3FFF7D8FF80060008A0060008AF
:1001900008B50121082000F0EBF84FF48050ADF8CD
:1001A000000010208DF8030003208DF8020069463E
:1001B0000B4800F039F84FF48051094800F0C1F8BD
:1001C00000F0E6F80321202000F014F8032130208D
:1001D00000F010F80121382000F00CF808BD0000F4
:1001E000000C014010B5044621461F2000F002F823
:1001F00010BD000070B505460C464FF4805109480B
:1002000000F09DF8284600F00DF9200A00F00AF9E8
:10021000E0B200F007F94FF48051024800F091F885
:1002200070BD0000000C01402DE9F04102460025A0
:100230000026002000230024002791F803C00CF0C2
:100240000F0591F803C00CF0100CBCF1000F03D0A7
:1002500091F802C04CEA050591F800C0BCF1000F0E
:1002600031D0146800202BE04FF0010C0CFA00F3A1
:10027000B1F800C00CEA03069E4220D183004FF083
:100280000F0C0CFA03F7BC4305FA03FC4CEA040418
:1002900091F803C0BCF1280F06D14FF0010C0CFA05
:1002A00000FCC2F814C00AE091F803C0BCF1480F8A
:1002B00005D14FF0010C0CFA00FCC2F810C0401C34
:1002C0000828D1D31460B1F800C0BCF1FF0F34DDB1
:1002D000546800202EE000F1080C4FF0010808FAE5
:1002E0000CF3B1F800C00CEA03069E4221D1830052
:1002F0004FF00F0C0CFA03F7BC4305FA03FC4CEA71
:10030000040491F803C0BCF1280F05D100F1080CDA
:1003100008FA0CF8C2F8148091F803C0BCF1480F39
:1003200007D100F1080C4FF0010808FA0CF8C2F8E8
:100330001080401C0828CED35460BDE8F081416194
:1003400070470161704710B5FFF722FF10BD000034
:1003500029B1064AD2690243044BDA6104E0034A38
:10036000D2698243014BDA617047000000100240FD
:1003700029B1064A92690243044B9A6104E0034A98
:1003800092698243014B9A6170470000001002405D
:1003900000B587B001210820FFF7EAFF012188039B
:1003A000FFF7D6FF4FF46040ADF8180018208DF825
:1003B0001B0003208DF81A0006A91848FFF734FF28
:1003C0004FF460411548FFF7BCFF0020ADF8040072
:1003D0004FF48270ADF806000020ADF80800ADF8CB
:1003E0000A000120ADF80C004002ADF80E002020FC
:1003F000ADF810000020ADF812000720ADF8140091
:1004000001A9074800F052F80121054800F034F82E
:10041000FF2000F007F807B000BD0000000C01400D
:100420000038004070B50546002405E0601CC4B2E9
:10043000C82C01DD002070BD02210E4800F028F814
:100440000028F3D029460B4800F02EF8002405E0E0
:10045000601CC4B2C82C01DD0020ECE70121054876
:1004600000F016F80028F3D0024800F01AF8C0B2E5
:10047000E1E700000038004021B1028842F040026C
:10048000028004E002884FF6BF731A400280704772
:100490000246002013890B400BB1012000E0002030
:1004A00070470146888970478181704710B50022E6
:1004B000028802F441520B884C8823438C882343E2
:1004C000CC8823430C8923434C8923438C892343C1
:1004D000CC8923431A430280838B4FF2FF7423405D
:1004E00083830B8A038210BD10B500F001F810BDA4
:1004F0000CB50020019000903348006840F4803033
:100500003149086000BF3048006800F400300090B6
:100510000198401C0190009818B90198B0F5A06F9F
:10052000F1D12948006800F4003010B1012000909A
:1005300001E0002000900098012843D12348006882
:1005400040F01000214908600846006820F00300D0
:1005500008600846006840F0020008601A484068D9
:10056000194948600846406848600846406840F4B9
:10057000806048600846406820F47C104860084667
:10058000406840F4E81048600846006840F0807019
:10059000086000BF0C48006800F000700028F9D027
:1005A0000948406820F00300074948600846406851
:1005B00040F00200486000BF0348406800F00C00B3
:1005C0000828F9D10CBD00000010024000200240B4
:1005D00010B51348006840F0010011490860084652
:1005E0004068104908400E494860084600680E49B6
:1005F00008400B4908600846006820F48020086025
:100600000846406820F4FE0048604FF41F008860F0
:10061000FFF76AFF4FF000600449086010BD00005A
:10062000001002400000FFF8FFFFF6FE08ED00E0BA
:1006300002E008C8121F08C1002AFAD170477047AB
:10064000002001E001C1121F002AFBD17047000009
:10065000FFF779FE11E000240DE0084931F814504D
:1006600005EBD57143F6FF7202EB610188B2FFF72B
:10067000B9FD601C84B2FF2CEFDDECE70000002028
:10068000A00600080000002000020000300600085C
:10069000A008000800020020000400004006000836
:1006A000FF7F238347866A898B8CAA8FC792E19547
:1006B000F8980A9C199F23A227A526A81EAB10AE66
:1006C000FBB0DEB3B9B68CB955BC16BFCDC17AC488
:1006D0001CC7B3C93FCCBFCE32D19AD3F4D542D8D0
:1006E00081DAB3DCD6DEEBE0F1E2E7E4CEE6A5E8C2
:1006F0006CEA23ECC9ED5EEFE1F054F2B4F303F5DC
:1007000040F66BF783F889F97CFA5CFB28FCE2FC85
:1007100089FD1CFE9CFE08FF61FFA6FFD7FFF5FFC9
:10072000FEFFF5FFD7FFA6FF61FF08FF9CFE1CFE42
:1007300089FDE2FC29FC5CFB7CFA89F983F86BF704
:1007400040F603F5B4F354F2E1F05EEFC9ED23ECAB
:100750006CEAA5E8CEE6E7E4F1E2EBE0D6DEB3DC56
:1007600081DA42D8F4D59AD332D1BFCE3FCCB3C9C7
:100770001CC77AC4CDC116BF55BC8CB9B9B6DEB39F
:10078000FBB010AE1EAB26A827A522A2199F0A9C7B
:10079000F898E195C792AA8F8B8C69894786238345
:1007A000FF7FDB7CB779947673735470376D1D6A65
:1007B0000667F463E560DB5DD75AD857E054EE5125
:1007C000034F204C45497246A843E840313E843BE4
:1007D000E2384B36BF333F31CB2E642C0A2ABC277C
:1007E0007D254B232821131F0D1D171B3019591769
:1007F0009215DB133512A0101D0FAA0D490CFB0A30
:10080000BE0993087B0775068205A204D5031C0365
:100810007502E2016201F6009D0058002700090000
:1008200000000900270058009D00F6006201E20167
:1008300075021C03D603A304830575067B07930882
:10084000BE09FB0A4A0CAA0D1D0FA1103612DB13BC
:10085000921559173019171B0E1D131F28214B23F2
:100860007D25BD270A2A642CCC2E4031C0334B365F
:10087000E338853B313EE840A94373464549214C66
:10088000044FEE51E054D957D75ADC5DE560F4636C
:1008900007671D6A376D547074739576B879DB7C81
:0400000508000131BD
:00000001FF
